:020000040800F2
:10000000A82700200901000849500008253E0008E3
:10001000C1470008ED1300081DC3000800000000E0
:10002000000000000000000000000000B5730008A0
:10003000511E000800000000A9570008F9860008BA
:100040001F0100081F0100081F0100081F01000810
:100050001F0100081F0100081F0100081F01000800
:100060001F0100081F0100081F0100081F010008F0
:100070001F0100081F0100081F0100081F010008E0
:100080001F0100081F0100081F0100081F010008D0
:100090001F0100081F0100081F010008413400086B
:1000A0001F0100081F0100081F0100081F010008B0
:1000B000158800086D8800089D8800081F01000849
:1000C0001F0100081F0100081F0100081F01000890
:1000D0001F01000801BD000815BE00087DBF000813
:1000E0001F010008DD5A00081F010008CD88000824
:1000F000FD880008DFF80CD000F04AFD00480047FA
:100100006DD40008A827002005480047FEE7FEE759
:10011000FEE7FEE7FEE7FEE7FEE7FEE7FEE7FEE7B7
:10012000F5000008A0F14101192900D820307047DE
:1001300040EA01039B0703D009E008C9121F08C069
:10014000042AFAD203E011F8013B00F8013B521EE9
:10015000F9D27047D2B201E000F8012B491EFBD260
:1001600070470022F6E710B513460A4604461946C2
:10017000FFF7F0FF204610BD30B505462A460B4676
:1001800012F8010B13F8014B08B1A042F8D01CB1D2
:10019000002802D06D1CF1E7284630BDCAB2401ECF
:1001A00010F8011F8A4202D00029F9D100207047BF
:1001B000421C10F8011B0029FBD1801A704730B592
:1001C00004460020034600E05B1C934203D2E05C3F
:1001D000CD5C401BF8D030BD034611F8012B00F870
:1001E000012B002AF9D11846704730B5054600208A
:1001F000034600E05B1C934205D2EC5CC85C201A0D
:1002000001D1002CF6D130BDF0B480EA0102D40F48
:100210004200B2EB410F02D20246084611464A00A4
:1002200042D0C30DDDB2C1F3C752AD1A202D35DA6D
:10023000C1F3160141F4000204B15242C5F1200697
:1002400002FA06F12A411044B3EBD05F23D0C4B1C7
:10025000012DA0EBC35009DCF0BC4FF0004202EAD4
:10026000C352DBB200F5000000F0EFBB400000F12C
:10027000807000EBC350A0F1807040EAD17049005B
:1002800009E0490841EAC071A0EBC35000F5000045
:10029000400800EBC350F0BC00F0CEBB614201222D
:1002A00002EB4101001BF6E7F0BC704781F0004112
:1002B000AAE780F00040A7E780EA010210B502F04B
:1002C0000043400022D04A001FD0010E01EB126112
:1002D000C0F35600C2F3560240F4000042F400029C
:1002E000A0FB022000047F39140400D0401C50EA17
:1002F000124001D44000491EC2B20C0604EBD010DB
:10030000401C4008802A02D003E0002010BD20F0ED
:100310000100002900DA0020184310BD30B480EA43
:10032000010202F0004530F0004221F0004013D0FD
:1003300090B1C30DD40DC2F31601C0F31600E41A38
:1003400041F4000140F400027D34914201D3641C69
:1003500000E04900002C02DA30BC002070474FF466
:1003600000000023914201D3891A034340084FEA59
:100370004101F7D151B1914202D14FF0004105E066
:1003800002D24FF0010101E06FF0010103EBC45014
:10039000284430BC00F050BB2DE9FE4F804681EA76
:1003A0000300C00F0C46009021F0004123F00045EF
:1003B000B8EB0200A94105D24046214690461C46B2
:1003C0000B46024623F00040104347D0270DC7F3E9
:1003D0000A00C3F30A510290401A019040286BDAD8
:1003E000C3F3130040F4801B0098924620B1002311
:1003F000D2EB030A63EB0B0B01985946C0F14002A4
:10040000504600F09AFA06460D4650465946019A63
:1004100000F0B2FA10EB08006141002487EA1152A3
:1004200084EAE7731A4340D0009A62B3019A012A22
:100430004FEA075215DC001B61EB02014FF000424E
:1004400002EA0752CDE90042001C41F58011324614
:100450002B4600F037FB03B0BDE8F08F4046214645
:10046000F9E7001B61EB0201001C41F58013001845
:100470005B412018A2F5001747EB030140EAD57055
:10048000B6196D4111E06D084FEA360645EAC075B0
:100490004FEA0752001B61EB0201001C41F580117D
:1004A00049084FEA30000019514132462B4603B04B
:1004B000BDE8F04F00F0F7BA009801224000002399
:1004C000D0EB020263EBE073009821464FEAE07440
:1004D000B8EB000061EB0401E9E783F000435BE760
:1004E00081F0004158E72DE9FE4F81EA030404F052
:1004F000004421F0004100944FF0000B23F0004332
:1005000050EA01045ED052EA03045BD0C3F30A54FC
:10051000C1F30A552C44A4F2F3340194A0FB025415
:10052000C1F3130141F48011C3F3130343F48013A7
:1005300001FB024400FB034E840A970A44EA8154FB
:1005400047EA8357A4FB076802958D0A05FB0785D8
:100550004FEA932C04FB0C542705029D4FEA0658E2
:1005600047EA1637B5EB08056EEB070C870E920EBF
:1005700047EA811742EA8312A7FB0201B6EB0B019F
:1005800064EB00042B0D43EA0C335E1844EB1C5063
:10059000DA465146E7FB0201C5F313044FEA0B3379
:1005A00043EA14534FEA0432019C43EA0603A4F1E0
:1005B0000C040294009CCDE900B400F083FA03B06F
:1005C000BDE8F08F00200146F9E72DE9F04D81EA02
:1005D000030404F0004B21F0004514464FF0000ADC
:1005E00023F0004150EA050220D054EA01021DD058
:1005F000C5F30A570246C5F31303C1F31300C1F351
:100600000A5640F4801543F48013A7EB0608101B2C
:10061000D64608F2FD3873EB050002D308F1010855
:1006200001E092185B41B8F1000F03DA00200146A7
:10063000BDE8F08D00204FF48011064684460EE0A0
:10064000171B73EB050705D3121B63EB050306436A
:100650004CEA010C49084FEA300092185B4150EA1D
:100660000107EDD152EA030012D082EA040083EAC6
:100670000501084305D0101BAB4106D2012200231F
:1006800006E000224FF0004302E06FF00102531039
:100690001AEB06004CEB085110EB0A0041EB0B0182
:1006A000BDE8F04D00F0FFB970B521F00043034301
:1006B0000CD0C1F30A550024D5EB040564EB040308
:1006C000D617AD1AB34102DB0020014670BD2018D9
:1006D00041EB025170BDC10F80EAE0700844CA07C7
:1006E0009623002100F0B1B996230022114600F0B4
:1006F000ACB90EB5C10F80EAE0700844CA0700210A
:1007000040F233438DE80E000A460B4600F0DAF95A
:1007100003B000BD0EB540F2334102910021CDE996
:1007200000110A460B4600F0CDF903B000BD20F0E1
:100730000040C10DC0F3160040F400007F2901DA2B
:1007400000207047962903DCC1F19601C84070472C
:1007500096398840704770B5C1F30A5201F00045E0
:100760000024C1F3130140F2FF3341F480119A4297
:1007700001DA002070BD40F233439A42A2F23342C4
:1007800003DC524200F0E8F800E090402C43F1D046
:10079000404270BDC1F30A5210B5C1F3130140F2DB
:1007A000FF3341F480119A4201DA002010BD40F27B
:1007B00033439A42A2F2334203DC524200F0CCF8B7
:1007C00010BD904010BD00F0004230F000400AD053
:1007D000C10D01F56071C0F3160042EA0151C20873
:1007E00040071143704700200146704730B5041E92
:1007F00071F1000404DB4FF00044404264EB01015E
:10080000141E73F1000405DB1C464FF000435242F6
:1008100063EB04038B4208BF824230BD30B5041E37
:1008200071F1000404DB4FF00044404264EB01012D
:10083000141E73F1000405DB1C464FF000435242C6
:1008400063EB0403994208BF904230BD01F00043BE
:1008500030B421F0004150EA010206D00A0DA2F5A1
:100860006072C1F31301002A02DC30BC0020704723
:10087000440F44EAC104C100E01830BC00EBC25090
:1008800000F0DAB8002801DBC0F10040002901DBEC
:10089000C1F1004181427047002801DBC0F10040F6
:1008A000002901DBC1F100418842704730B50B4699
:1008B000014600202022012409E021FA02F59D4290
:1008C00005D303FA02F5491B04FA02F52844151E64
:1008D000A2F10102F1DC30BD2DE9F05F05460020F8
:1008E00092469B4688460646814640241BE02846A1
:1008F00041464746224600F02FF853465A46C01A52
:10090000914110D311461846224600F016F82D1AD0
:1009100067EB01084F4622460120002100F00DF848
:1009200017EB00094E41201EA4F10104DFDC48460C
:1009300031462A464346BDE8F09F202A04DB203A90
:1009400000FA02F1002070479140C2F1200320FA22
:1009500003F3194390407047202A04DB203A21FA20
:1009600002F00021704721FA02F3D040C2F12002C8
:100970009140084319467047202A06DBCB17203ADE
:1009800041FA02F043EAE07306E041FA02F3D04094
:10099000C2F1200291400843194670470FB400236A
:1009A00000B589B00CA900910B996FF00042CB60A3
:1009B0001E4B06931E4B07930423CDE901321D4ABB
:1009C000089202466B46002000F08EF909B05DF8EF
:1009D00014FB70B586B006464FF0FF300091CDE9AC
:1009E0000101002015460C4604903246694604A8D1
:1009F000FFF7D4FF02460498211825B108B1084634
:100A000000E020462860049800280DD0002A02DD6E
:100A10000098884208D0081B0094CDE901043246B2
:100A2000694604A8FFF7BAFF06B070BD210F0008A1
:100A30003F0F0008B50B00080029A8BF7047401CF5
:100A4000490008BF20F00100704710B4B0FA80FCE4
:100A500000FA0CF050EA010404BF10BC704749B121
:100A6000CCF1200421FA04F411FA0CF118BF012191
:100A700021430843A3EB0C01CB1D4FEA00614FEA71
:100A8000102042BF002010BC704700EBC350104440
:100A90000029A4BF10BC7047401C490008BF20F0CB
:100AA000010010BC704710B5141E73F1000408DA81
:100AB000401C41F1000192185B411A4301D120F022
:100AC000010010BD2DE9F04D92469B4611B1B1FADF
:100AD00081F202E0B0FA80F220329046FFF72DFF5B
:100AE00004460F4640EA0A0041EA0B0153465A46C3
:100AF000084313D0114653EA010019D0C8F140024F
:100B00005046FFF729FF05460E46504659464246D5
:100B1000FFF713FF084305D0012004E020463946C3
:100B2000BDE8F08D0020054346EAE0762C433743CC
:100B30000A986305E40AA0EB08000022FD0A44EAD3
:100B400047540A3002D500200146E9E70105101993
:100B50006941DDE9084500196941BDE8F04DA2E7AA
:100B6000C1F30A52C1F3130140F2FF3341F4801183
:100B70009A4202DA00200146704740F233439A421B
:100B8000A2F2334202DC5242FFF7E6BEFFF7D5BEC7
:100B9000064C074D06E0E06840F0010394E80700CA
:100BA00098471034AC42F6D3FFF7A8FAACEF000830
:100BB000CCEF0008C0B24FF4F05100F023BA0000AF
:100BC0002DE9FF4F087883B09946FF2805D0491CCE
:100BD0002D2804D00024002008E000200BE0012490
:100BE000F9E700EB800003EB4000491C0B78FF2B7A
:100BF000F7D104B1404200230293147819461D46F0
:100C00002D2C01D02B2C04D1521C2D2C13D00024C0
:100C10000294AA461478FF2C0FD00A25A3FB05786E
:100C200001FB05814FF0000C03FB0C11521CE31972
:100C30004AEB0101EEE70124EAE7814453EA0100AF
:100C400002D019F5C87F06DA03980021C0E9001127
:100C500007B0BDE8F08F0025AE4E2F46DFF8B88212
:100C6000184600F0E3F9CDE90001B9F1000002DA1D
:100C7000C9F1000400E004460023A74A1AEB030B65
:100C800042EB045A12E0E00707D02A4633463846C2
:100C90004146FFF728FC074688462A463346104659
:100CA0001946FFF720FC05460E466410002CEAD1D9
:100CB000DDE90001B9F1000F5A46534606DAFFF7A5
:100CC00084FC3A464346FFF780FC05E0FFF70BFC47
:100CD0003A464346FFF707FC029A0AB181F0004109
:100CE000039AC2E90001B3E72DE9FF4F1F468DB01B
:100CF000D7E901464FF0FF382E2045464FF0000956
:100D00000B90B9696D1C0E988847396A82468847EE
:100D10000028F6D1BAF1FF3F0AD024F4D064002EA7
:100D200011DDBAF12B0F08D0BAF12D0F0BD102E073
:100D3000404611B08DE744F48064B9696D1C0E988B
:100D400088478246761E6946600501D52D2000E061
:100D50002B208DF8000001F1010B0DF1200809E0B6
:100D6000B9696D1C0E98884782460F9844F4007448
:100D7000761E0560002E02DDBAF1300FF0D00B991F
:100D80008A453ED144F0800406E00F99681CA9F121
:100D9000010944F400740860B9696D1C761E0E9850
:100DA000884782463028F0D02BE00B998A4505D140
:100DB000200603D444F08004761E18E050460BF061
:100DC000C1FD08B30DF11301761E44F400748B4588
:100DD00008D2AAF130000BF8010B200607D5A9F1C3
:100DE000010003E0200602D409F101008146A005BC
:100DF00002D50F99681C0860B9696D1C0E98884768
:100E00008246002ED1DC53E0002E51DDBAF1650F91
:100E100002D0BAF1450F4BD1A00549D5B9696D1C77
:100E200024F44074761E0E9888478246002E0CDD0E
:100E30002B2804D0BAF12D0F07D144F48074B9697E
:100E40006D1C0E9888478246761EE00501D52D213F
:100E500000E02B2108F8011BCDF82C8021E00DF1DA
:100E60002901761E44F4007488450CD2AAF13000A2
:100E700010F0FF0088F8000002D10B99884509D9CD
:100E800008F1010806E0E00501D5244801E042F23E
:100E90000F708146B9696D1C0E98884782460F987D
:100EA0000560002E04DD50460BF04CFD0028D6D125
:100EB000F9690E988847FF208BF8000088F8000039
:100EC0000020069007904B466A4608A906A8FFF73F
:100ED00077FEA00502D46FF001002AE714F0240F7A
:100EE0000AD0E00714D1DDE906123868031D3B6023
:100EF0000068C0E900120BE0DDE90601FFF7A6FC7F
:100F00000146E00704D13868021D3A6000680160BC
:100F100028460EE7000014400000F03FF1D8FFFF24
:100F2000426842B1016811F8013B23B1521EC0E989
:100F30000012184670470121C160881E7047426840
:100F40005AB1C368016843B983688B4205D0491E12
:100F5000521CC0E90012002070474FF0FF3070476C
:100F60002DE9F04D00231A461B1A8A4103DB0020AD
:100F70000146BDE8F08DC1F30A52C1F3130141F4FB
:100F800080154FF0000BD10702D100186D41521EA1
:100F90000027044640F2FF11384601EB620A3E4644
:100FA0008046024600204FF48011FFF7D5FCC2199D
:100FB0007141BB1846EB0100B4EB030C75EB000C60
:100FC00004D3E41A65EB000517460E46241908F110
:100FD00001006D4180463428E3DDF91946EB060037
:100FE000091BA84103D24FF0FF32134601E0002253
:100FF00013461BEB070046EB0A51BDE8F04DFFF727
:1010000052BD00007F2801D9002208E0064A02EB09
:101010005002C007127800D1120902F00F0201201D
:101020009040084070470000D8ED00080EB540F22F
:10103000334202920022CDE900221346FFF742FD1F
:1010400003B000BD30B58C1810F8012B12F00F035F
:1010500001D110F8013B120906D110F8012B03E071
:1010600010F8015B01F8015B5B1EF9D101E001F8AA
:10107000013B521EFBD1A142E6D3002030BD002926
:10108000816802D041F0010101E021F0010181609D
:1010900070470000074910B588420AD14415012164
:1010A000204604F0B3FB2046BDE81040002104F0C8
:1010B000ADBB10BD00240140826822F0F0020A435B
:1010C00082607047806D80B27047024600201268CF
:1010D0000A4200D00120704730B542680F4B0C79AE
:1010E0001A400B6842EA04221343436082680C4BA7
:1010F0004D791A40D1E9034323438C6844EA4504FF
:10110000234313438360026B097D22F0F872491E6A
:10111000C9B242EA0151016330BD0000FFFEFFFC8D
:10112000FDF7FFC0002A426801D00A4300E08A436D
:101130004260704770B507241D290AD9C56DA1F119
:101140001E0606EB4606B440A543B3401D43C565E5
:1011500021E013290AD9C568A1F1140606EB460659
:10116000B440A543B3401D43C56014E009290AD922
:101170000569A1F10A0606EB4606B440A543B34053
:101180001D43056107E0456901EB4106B440A543F5
:10119000B3401D4345611F23072A09D2046C521E28
:1011A00002EB820293409C4391400C43046470BD67
:1011B0000D2A09D2C46BD21F02EB820293409C43DA
:1011C00091400C43C46370BD132A09D2846B0D3A5D
:1011D00002EB820293409C4391400C43846370BDB8
:1011E000192A09D2446B133A02EB820293409C43C2
:1011F00091400C43446370BD046B193A02EB8202C8
:1012000093409C4391400C43046370BD816841F05E
:1012100080418160704700210160017141714FF090
:101220004072C0E90212016101210175704700009E
:1012300070B588B001258DF81C504FF480508DF8A2
:101240001E501D4E06908DF81F508DF81D5006A99A
:10125000304602F0E5FA0121022004F0A7FA680303
:10126000069003208DF81C0000248DF81F4006A96D
:10127000304602F0D5FA114E3046FFF70BFF6846B4
:10128000FFF7C9FF00948DF804408DF805400294E3
:1012900004948DF8145069463046FFF71DFF102165
:1012A0003046FFF709FF01224FF440313046FFF787
:1012B00039FF08B070BD0000000402400024014066
:1012C00010B54FF48051084802F0F4FA00210748A5
:1012D000FFF7D5FE002004F039FBBDE810400021E7
:1012E0004FF4007004F086BA00040240002401406C
:1012F00010B529B1054881600121054809F0A4FF16
:10130000BDE810400121024809F09EBF780000208E
:10131000EDB00008014948617047000078000020E6
:101320002DE9F04102461948174E00240078254661
:1013300006F11007A6F1100353F824C08C4509D11B
:1013400046F8245047F8242019E0642101200AF0CF
:10135000A7FA16E0641C042CEED3002453F824C032
:10136000BCF1000F05D0641C042CF7D30020BDE8AD
:10137000F08146F8245047F8242043F82410002830
:10138000E3D0601CF3E70000681900203C01002056
:101390000349002008700121024809F055BF0000F0
:1013A00000000020B58A000830B503460020024640
:1013B0006FF02F0407E09D5C00EB800004EB400021
:1013C000521C2844D2B28A42F5D330BD10B5FFF783
:1013D0002FFF04F07DF906F07FFFBDE810402821C3
:1013E000014809F031BF0000B99600084FF4E13020
:1013F0000AF002FC044D05A00BF006F92C46022071
:10140000401CA042FCD3F6E7FFFF2F004275734655
:1014100061756C745F48616E646C65720D0A0000E2
:1014200030B5C3B00020ADF80801374842AB6A467A
:101430000088801E81B235480AF0F0FEBDF8081120
:101440006846491E00F0DCF8BDF808116D46694495
:1014500011F8011C88423CD12D4CA560BDF800005C
:101460000DF04CFBA1680880D1F802000DF03AFBAA
:10147000A168C1F80200B1F807000DF03FFBA168B8
:1014800021F8070F48880DF039FBA168A1F8090081
:101490000D3082B2BDF80801824204D01DA00DF0CB
:1014A00089FB43B030BD401EADF808019DE80D003A
:1014B00021AC84E80D00B1F809201AB124A803A9D1
:1014C000FEF736FEBDF80801C1B221A803F04AFEBE
:1014D000E7E7002405E0295D13A00DF06BFB641C19
:1014E000A4B2BDF808018442F5D30EA00DF062FB52
:1014F000BDF808116846491E00F082F801460CA0AC
:101500000DF058FBCDE7000032010020251400202B
:1015100030000020205061636B204C656E6774685A
:10152000204572720D0A000025303258200000005C
:1015300020435243204572726F72203A2530325850
:101540000D0A000030B59BB004460020ADF86400E1
:101550001F4819AB6A460088801E81B21D480AF0F8
:101560005DFEBDF864106846491E00F049F801466A
:10157000BDF864006D460DEB000212F8012C91429B
:1015800008D1401E81B22246284600F0EFFC01201F
:101590001BB030BD10A00DF00DFB002405E0295D4F
:1015A0000FA00DF007FB641CA4B2BDF864008442D8
:1015B000F5D30DA00DF0FEFABDF864106846491E83
:1015C00000F01EF8014609A00DF0F4FA0020DFE754
:1015D00036010020E1160020434F4D333A00000051
:1015E00025303258200000000D0A000020435243ED
:1015F000204572726F72203A253032580D0A000071
:1016000010B500231A4602E0845C521C23448A422F
:10161000FAD3D8B210BD70B504464FF6FF70002360
:101620004AF201050EE014F8012B50400022C607D3
:101630004FEA500000D06840521CD2B2082AF6D3BC
:101640005B1CDBB28B42EED370BD000010B5034CC7
:10165000606808B903F054FD606810BD7800002090
:101660003EB50546042202A901F02CFE9DF80910A2
:101670009DF80A209DF8080001EB02218DF800007A
:101680008CB2ADF801409DF80B108DF80310552871
:1016900007D12146281D01F0D1FD9DF8031081429C
:1016A00001D000203EBD0CB120463EBD01203EBD14
:1016B00003480021017141718171C161C17170479D
:1016C000C400002001218140024802888A43028030
:1016D0007047000014010020014900204872704743
:1016E0005C00002010B596210348FEF73AFD034840
:1016F00000218180017010BD241400202E010020E3
:1017000010B540F226210448FEF72BFD03480021C6
:10171000C180417010BD0000BA1400202E010020CD
:1017200010B54FF416710448FEF71BFD0348002165
:101730000181817010BD0000E01600202E01002004
:101740002DE9F041424F3846FFF78AFF414E424DA6
:10175000A6F15D0400283DD05D223146384601F0F7
:10176000B1FD5D2231462046EE60FEF7E1FC96F8C1
:1017700054103AA00DF01EFAE868B0F855103DA0DC
:101780000DF018FAE86890F8593090F8582090F861
:1017900057103EA00DF00EFAE86890F85C3090F813
:1017A0005B2090F85A1043A00DF004FA5FF000059A
:1017B00004EB4500691C838D828849A00DF0FAF97D
:1017C0006D1CEDB2142DF3D339A00DF0F3F9012007
:1017D000BDE8F081552020705920A4F801001B209D
:1017E000A0801E20A0854D21E1801421E1857F226B
:1017F00022810A222286B12262816186E321A181AF
:10180000A086052184F85410A4F85500082084F817
:101810005700122084F85A005921201DFFF7F0FECE
:101820000C49E0705D225D39384601F05DFD2FA066
:101830000DF0C0F95D220749384601F043FD054827
:1018400031465D225D38EE60FEF772FC0020BFE796
:101850000001080861050020B00000200D0A205B8F
:1018600050686F746F5D506F696E743A25640D0A2D
:10187000000000000D0A205B50686F746F5D496EB8
:1018800074657276616C3A25640D0A000D0A205B5E
:1018900050686F746F5D53746172742054696D6524
:1018A0003A20253032643A253032643A25303264A9
:1018B0000D0A00000D0A205B50686F746F5D456E65
:1018C000642054696D653A202020253032643A2521
:1018D0003032643A253032640D0A0D0A20000000CF
:1018E00025643A2825642C25642920002054686545
:1018F00020666972737420706F776572206F6E2036
:10190000416E676C652072657365740D0A00000096
:1019100000221146022005F04EBD00221146032090
:1019200005F049BD00221146082005F044BD002203
:101930001146042005F03FBD00221146372005F076
:101940003ABD00224FF48071372005F034BD0022EB
:101950001146052005F02FBD00221146012005F09B
:101960002ABD10B504464FF4004001F03BFF0428A7
:1019700001D10021216010BD70B505464FF400462D
:101980000C46304601F02EFF04280AD105480168B4
:1019900021F4807101602C603046BDE8704001F098
:1019A00021BF70BD043C02400248016841F00101C2
:1019B00001607047043C024070B505464FF4004694
:1019C0000C46304601F00EFF042817D12CB12C70C4
:1019D0003046BDE8704001F005BF25F003063468CD
:1019E000A807C10EFF20884084433046FFF7B9FFA7
:1019F00021463046BDE87040FFF7BEBF70BD70B5F0
:101A000005464FF400460C46304601F0EBFE042834
:101A100005D12C603046BDE8704001F0E3BE70BDDA
:101A200005480068C00705D0034804490830016034
:101A30000349016070470000043C0240EFCDAB89D0
:101A40000504030210B501218CB0080603F0AEFEB8
:101A5000124C204600F0D6F81148009011480021A1
:101A6000CDE901019620CDE903018020CDE90501F2
:101A70004FF44050CDE9081007910A91694620467D
:101A800000F046F90121204600F082F804480122C6
:101A90004021001F0AF0B4FA0CB010BD586002409B
:101AA000043801402414002010B501218CB0080630
:101AB00003F07CFE134C204600F0A4F8124800907E
:101AC00012480021CDE9010140F22620CDE90301B1
:101AD0008020CDE905014FF44050CDE90810079171
:101AE0000A916946204600F013F90121204600F0D2
:101AF0004FF8054801224021001F0AF081FA0CB07E
:101B000010BD00006C60024004440040BA14002084
:101B100010B501218CB0080603F048FE134C204696
:101B200000F070F81248009012480021CDE9010140
:101B30004FF41670CDE903018020CDE905014FF483
:101B40004050CDE9081007910A916946204600F0FF
:101B5000DFF80121204600F01BF805480122402152
:101B6000001F0AF04DFA0CB010BD000030600240BA
:101B700004480040E0160020C10002D40249486039
:101B800070470249086070470060024004640240E8
:101B90000029016802D041F0010102E04FF6FE7217
:101BA000114001607047000010B501218CB008069B
:101BB00003F0FCFD104C204600F024F80F48009084
:101BC0000F48019000211020CDE902018020CDE9CD
:101BD00004108001CDE90810069107910A91694629
:101BE000204600F095F8054801228021001F0AF0E8
:101BF00007FA0CB010BD00004460024004380140F8
:101C0000C019002001684FF6FE72114001600021EA
:101C1000016041608160C1603149314A08399042B8
:101C200003D1486840F00F0006E02D4A143290427C
:101C300004D1486840F0F00048607047284A2832D4
:101C4000904203D1486840F47060F5E7244A3C3282
:101C5000904203D1486840F47040EDE7204A50328A
:101C6000904203D1486840F47020E5E71C4A643292
:101C7000904203D1486840F47000DDE7184A78329A
:101C8000904203D1486840F07060D5E7154A111FB3
:101C9000904203D1086840F00F0006E0114A143268
:101CA000904204D1086840F0F000086070470D4A87
:101CB0002832904203D1086840F47060F5E7094A81
:101CC0003C32904203D1086840F47040EDE7054A89
:101CD00050329042EAD1086840F47020E5E70000F5
:101CE0000860024008640240406880B2704700000B
:101CF00001460020CA0001D4034A00E0034A1268EA
:101D00000A4200D001207047006002400064024097
:101D100030B5036847F6F07293430C6A8A68224331
:101D2000D1E904452C4322438C692243CC692243E8
:101D30004C6A22438C6A22431A430260CA6842609A
:101D40000A6882604968C16030BD41607047000028
:101D500010B501218CB0080603F028FD104C204678
:101D6000FFF750FF0F4800900F480190002110200E
:101D7000CDE902018020CDE904108001CDE90810F1
:101D8000069107910A9169462046FFF7C1FF054871
:101D900001228021001F0AF033F90CB010BD0000B1
:101DA0008060024004440040201B002010B5012147
:101DB0008CB0080603F0FAFC104C2046FFF722FF17
:101DC0000F4800900F48019000211020CDE902013A
:101DD0008020CDE904108001CDE90810069107911B
:101DE0000A9169462046FFF793FF054801228021AA
:101DF000001F0AF005F90CB010BD00001C60024085
:101E000004480040801C0020104A002152F8213074
:101E100083420AD10D4B0020103342F8210043F8D1
:101E20002100103343F8210002E0491C0429EDD3BE
:101E30005FF0000052F82010002905D1401C042852
:101E4000F8D3084609F02CBD70470000581900204F
:101E5000704710B592B0044610A9002004F05EF857
:101E600011A9002004F08CF810A9002004F056F805
:101E70002068009060680190A068029001208DF8B1
:101E8000060006200CF03AFEADF809009DF8460069
:101E90008DF80C009DF845008DF80D009DF844006C
:101EA0008DF80E009DF842008DF80F009DF841005E
:101EB0008DF810009DF843008DF81100122168463E
:101EC000FFF79EFB8DF812001321684600F002F820
:101ED00012B010BD00B5C1B04FF480736A4603F074
:101EE00037FCC1B2684609F0DFFE41B000BD30B535
:101EF00000F10C01054693B011F8010B8DF8460076
:101F000008788DF8450048784C1C8DF8440011A9DC
:101F1000002004F0B7F960788DF84200A0788DF8C1
:101F20004100E0788DF8430001248DF8404010A96D
:101F3000002004F059F904F02FFA2868009068682E
:101F40000190A86802908DF806400020ADF80900C5
:101F50000C216846FFF754FB8DF80C000D216846F4
:101F6000FFF7B8FF04F0DEF913B030BD0178134677
:101F70001180427842EA0121198081785960C27843
:101F800042EA01215960027942EA0121596042790D
:101F900042EA0121596081791972C1795981027A25
:101FA00042EA01215981417A9981827A42EA0121EA
:101FB0009981C27A9A73402901D94021998100F10F
:101FC0000C019A8903F10F00FEF7B2B82DE9F04F2A
:101FD000ADF51D7D00267096FE4871960BF016F942
:101FE0008B9097A9002003F0CBFF8B98A0B1FAA1AA
:101FF0000BF0F0F8751E002846D090F81480F7A179
:102000008B980BF0E7F800283ED0007D10F0FF041D
:102010000AD0012C14D020E00BF0D6F80146F0A035
:102020000CF0C8FD00F0EFBFEA48FEF7C1F80090E1
:102030009DF85E329DF85D229DF85C12EDA00AE0ED
:10204000E448FEF7B5F800909DF85E329DF85D22F9
:102050009DF85C12F3A00CF0ADFDFEA18B980BF087
:10206000B9F888B140696F90FBA18B980BF0B2F87A
:10207000DFF8E8B3002570B1416951B18BF8061063
:10208000F7A00CF097FD06E00DF51D7D2846BDE894
:10209000F08F8BF80650FCA18B980BF09BF8070093
:1020A00071D03869FEF784F800F0FF09B9F11E0F0E
:1020B00073D2F8A039690CF07DFD4A468CA83969C5
:1020C000FEF736F802210DF50C790DF23220FFF7FC
:1020D0006BF9C7B2022109F10500FFF765F9C0B23B
:1020E000659002218EA8FFF75FF9C0B2029002212D
:1020F0000DF23B20FFF758F9C0B2669002210DF2B5
:102100003E20FFF751F900F0FF0A02210DF24120B5
:10211000FFF74AF900F0FF0966984FF46161484300
:10212000CAEB0A1100EB810101EB0900019004F0F8
:10213000F9F862A9002003F0F1FEA7F112001328BC
:102140002CD201F093FD019988421DD901F08EFD3A
:1021500001991DE09DF88B01B84209D19DF88911C4
:102160006598814204D19DF88A110298814219D064
:1021700001208BF80800CDE900A9DDE96513384698
:10218000029A06F07DFA0DE001F070FD014601981B
:1021900001F04AF87828EBD8DCE725E0C2A000BFC0
:1021A0000CF008FD01270CB36F988DF850829590C4
:1021B0008DF8514294A803F005FA00BF8BF8007027
:1021C000B8F10F0F2FD2DFE818F029002F006D00B3
:1021D000AC02350337032E002E00C705D5052E00AF
:1021E000D705D905DB062307B4A0D9E7B8490520F0
:1021F00000EB400201EB8202527A22B1401CC0B2D5
:102200000A28F5D3DAE700EB400001F8208001EB63
:10221000800047706F9941604772CFE7ADA00CF026
:10222000C9FC8BF80070D1E2B4A00CF0C3FCB9A1DA
:102230008B980AF0CFFF0400F5D0E0680628F2D1B1
:10224000B5A120460AF0C6FF18B14169B4A00CF050
:10225000B1FCB7A120460AF0BDFF20B1D0E90623AA
:10226000B4A00CF0A7FCB6A120460AF0B3FF18B149
:102270004169B4A00CF09EFCB5A120460AF0AAFF6B
:1022800020B1D0E90623B5A00CF094FCB8A12046FB
:102290000AF0A0FF0028C6D0D0E90623B7A00CF0B2
:1022A00089FCC0E7BAA00CF085FC01208BF80A007D
:1022B0005C4698A18B980AF08DFF8046C06806287E
:1022C000B1D1B9A140460AF085FF060008D03069B7
:1022D000FDF76EFF33690246B4A11846FDF785FF8E
:1022E000B3A140460AF076FF06005AD03069FDF7E8
:1022F0005FFF33690246B0A11846FDF776FF70B361
:102300003069FDF755FF0246AEA13069FDF76DFF5C
:1023100060B33069FDF74CFF33690246ACA1184643
:10232000FDF763FF40B33069FDF742FF0246ABA102
:102330003069FDF75AFF20B33069FDF739FF0246D7
:10234000A9A13069FDF751FF00B33069FDF730FFF7
:102350000246A8A13069FDF748FFE0B121E0FFE7A0
:102360006570002005F0D8FCE5711AE06570062064
:1023700005F0D2FCE77114E00220E071677265702D
:102380000FE09EA00CF016FCE77109E0A4A00CF091
:1023900011FC032003E0A7A00CF00CFC0420E0716A
:1023A0006770AAA140460AF015FF050010D0286901
:1023B000FDF7FEFE02467DA12869FDF716FF30B14C
:1023C0002869FDF7F5FE0246A2A1286946E166E10B
:1023D00078E10000BA140020434D440044697200C3
:1023E000204E6F20634A736F6E3A5B25735D0D0A52
:1023F000000000000D0A205B25302E32643A2530A3
:102400002E32643A25302E32645D204869333531EE
:1024100039202D3E2053544D3332282564290D0A8E
:10242000000000000D0A205B25302E32643A253072
:102430002E32643A25302E32645D204869333531BE
:10244000392041636B2053544D3332282564290DC4
:102450000A00000053657100457272005C000020A4
:102460002121212121212121212121214572723A7D
:1024700020282564292021212121212121212121F8
:10248000212121210D0A00004461746554696D65A4
:102490000000000020526563204461746574696D1A
:1024A000653A25730D0A00002054696D65206F752B
:1024B00074206F662073796E630D0A002054696D75
:1024C000652054797065204572720D0A0000000085
:1024D000F4010020204E6F726D616C20636F6D6D92
:1024E000756E69636174696F6E20776974682063C3
:1024F0006F726520626F6172643A00002048693330
:10250000353139204765742053656E736F720D0A3B
:10251000000000004D736700426174566F6C00004C
:10252000426174566F6C3A25322E31660D0A0000F6
:10253000496C6C00496C6C3A25322E31660D0A00EC
:10254000506F7300506F733A25322E31660D0A00BA
:102550004C61746974756465000000004C617469B5
:10256000747564653A25322E33660D0A000000004A
:102570004C6F6E6769747564650000004C6F6E6720
:1025800069747564653A25322E33660D0A000000C1
:102590002047657420636F726520626F61726420EA
:1025A0007374617475733A00537973004F4B000074
:1025B0004D453930390000004E6F74436F6E6E65C3
:1025C00063740000436F6E6E656374696E6700002C
:1025D000436F6E6E65637465640000004C696E6BDA
:1025E0004661696C000000004E6F4D6F64756C654C
:1025F000000000005050504661696C00204869336B
:1026000035313920706F7765722063616E206265A5
:10261000207475726E6564206F66660D0A00000096
:1026200020C3BBD3D0D5D2B5BD555342C7FDB6AF3D
:102630000D0A000020C3BBD3D0D5D2B5BD3447CDE1
:10264000F8BFA8C7FDB6AF0D0A00000050686F7450
:102650006F00000046696E6973680000FDF7C5FDF4
:10266000F8B12869FDF7A4FD0246EEA12869FDF73F
:10267000BCFDC0B12869FDF79BFD0246ECA12869AD
:10268000FDF7B3FD98B12869FDF792FD0246AFF260
:10269000B0012B691846FDF7A8FD60B112E0E7A074
:1026A00006E0EBA004E001207190F0A000E0F4A0AF
:1026B0000CF080FA06E0F7A00CF07CFA082005F098
:1026C0002BFB6770F9A140460AF084FD00287DD0FD
:1026D0000069FDF76DFD0A2801D9607820B1719875
:1026E00088B10120E0729EE5F4A00CF063FA0420AA
:1026F00005F012FB0120E0720820FEF7E3FF062040
:10270000FEF7E0FF8FE5607A08B10020E072082054
:1027100005F002FBA079642801D26430A071ECA01E
:1027200025E3F0A00CF046FAAFF218218B980AF0DE
:1027300051FD0500D7D0E8680628D4D1F5A1284678
:102740000AF048FD04001DD02069FDF731FD024666
:10275000F2A12069FDF749FD48B12069FDF728FD88
:102760000246F0A12069FDF740FD30B10AE0EFA07C
:102770000CF020FAFEF70CFE04E0F0A00CF01AFAC0
:1027800008F04EFEF1A128460AF024FD0400AAD06C
:102790002069FDF70DFD23690246EDA11846FDF7FE
:1027A00024FD48B32069FDF703FD23690246E9A132
:1027B0001846FDF71AFD28B32069FDF7F9FC02461B
:1027C000E6A12069FDF711FD10B300E0C7E2206922
:1027D000FDF7EEFC23690246E2A11846FDF705FD70
:1027E000E0B12069FDF7E4FC23690246DFA1184649
:1027F000FDF7FBFCC0B1F5E3DEA00CF0DBF9FFF761
:10280000ABF8EFE3DEA00CF0D5F9FFF781F8E9E3D0
:10281000DFA00CF0CFF9FFF780F8E3E3E0A00CF0C5
:10282000C9F9FFF784F8DDE3E1A00CF0C3F9FFF785
:102830008EF8D7E3E2A09AE2E9A00CF0BBF9AFF280
:102840002C318B980AF0C6FC5FEA00084FF00004B8
:10285000D1D0D8F80C000628CDD101F029FA0146D4
:102860001D221CA8FDF764FCE5A140460AF0B2FC5D
:1028700030B141691C9141690124E3A00CF09AF93F
:10288000E4A140460AF0A6FC070028D0641C386981
:10289000FDF78EFC1428386904D3FDF789FC014646
:1028A000DDA038E09BA901F05DF910F0FF0FA2D187
:1028B000DCA00CF07FF900270DF51B790DF1700AF3
:1028C0000AEB070019F807104173D7A00CF072F952
:1028D0007F1CFFB2042FF3D373A00CF06BF9D3A1CC
:1028E00040460AF077FC38B1818AADF88110416921
:1028F000D0A0641C0CF05EF9D1A140460AF06AFC3D
:10290000070014D0641C3869FDF752FCC6B2782E5B
:1029100004D33146CDA00CF04DF963E3324644A810
:102920003969FDF705FC44A9CEA00CF043F9D0A10C
:1029300040460AF04FFC38B1818AADF884104169F5
:10294000CFA0641C0CF036F9D2A140460AF042FC3C
:1029500038B1818AADF886104169D2A0641C0CF0B0
:1029600029F9D5A140460AF035FC38B1017D8DF832
:102970007C104169D3A0641C0CF01CF9072CCCD14D
:10298000D54F3846FEF76CFEC4B2201F74280FD80E
:102990002146D2A00CF00EF9221D24A9384600F0E1
:1029A00091FC24A9081925A90571D2A00CF002F9FF
:1029B00001F07EF91D221CA9FDF701FC28B9324661
:1029C00044A924A8FDF7FBFB58B3CCA00CF0F2F807
:1029D00044AC782E03D9D1A00CF0ECF81CE05520C3
:1029E0008DF80800ADF8096031462046FEF708FE74
:1029F0008DF80B0002986B90324621466CA8FDF7CB
:102A000097FB062000F03EFC072000F03BFC321D47
:102A10006BA9384600F068FC1CA805F0E1FAC4A0D8
:102A2000A5E197E14E6F496E74657276616C0000A6
:102A30004F76657254696D65000000002054616B2B
:102A4000656420612070686F746F210D0A000000BA
:102A50002055706C6F61642070686F746F732063B1
:102A60006F6D706C65746564210D0A0020B2BBD473
:102A7000DAC5C4D5D5BCE4B8F4210D0A00000000C5
:102A800020D5D5C6ACC9CFB4ABB3ACCAB1210D0A01
:102A9000000000002054616B656420612070686F45
:102AA000746F204661696C210D0A000053657276CF
:102AB0006572506963506174680000000D0A20C59A
:102AC000C4D5D5C1F7B3CCB3C9B9A6210D0A00004E
:102AD0000D0A20C5C4D5D5C1F7B3CCCAA7B0DC2137
:102AE0000D0A0000204869333531392073656E6462
:102AF0007320636F6E74726F6C20696E737472757D
:102B00006374696F6E7320746F2053544D33320DAC
:102B10000A0000004D6F6465000000004E6F726D8A
:102B2000616C00005465737400000000204E6F72E9
:102B30006D616C204D6F64650D0A00002054657353
:102B400074204D6F64650D0A0000000052756E0020
:102B500055700000446F776E000000004C6566748D
:102B600000000000526967687400000053746F70C1
:102B700000000000204D6F746F722055700D0A0028
:102B8000204D6F746F7220446F776E0D0A00000045
:102B9000204D6F746F72204C6566740D0A00000042
:102BA000204D6F746F722052696768740D0A0000BF
:102BB000204D6F746F722053746F700D0A00000007
:102BC0002048693335313920726561647320436F61
:102BD0006E66696720746F2053544D33320D0A00BE
:102BE00020486933353139207365747320436F6E23
:102BF00066696720746F2053544D33320D0A00000C
:102C000044657669636500004465766963653A25C5
:102C1000640D0A00495000004950204572723A255F
:102C20006400000049503A0025642000506F72741F
:102C300000000000506F72743A25640D0A00000015
:102C4000487474705365727665720000204874741D
:102C500070204C656E677468204F7665723A256403
:102C6000000000005365727665723A25730D0A0004
:102C700050686F746F496E74657276616C00000005
:102C800050686F746F496E74657276616C3A256432
:102C90000D0A000044617461496E74657276616C5E
:102CA0000000000044617461496E74657276616C65
:102CB0003A25640D0A0000004E6F536C656570463E
:102CC0006C6167004E6F536C656570466C61673A66
:102CD00025640D0A00000000800108080D0A205B31
:102CE00053797374656D5D2853697A653A25642953
:102CF000000000002025730D0A00000020537461BD
:102D00007274207570646174696E6720706172619D
:102D10006D65746572732E2E2E0D0A002048747432
:102D200070204C656E677468204F7665720D0A00DE
:102D30002055706461746520706172616D657465A1
:102D4000727320636F6D706C657465642E2E2E0D2A
:102D50000A000000AFA00AE014B1012C06D041E146
:102D6000B9A00BF027FF8BF801703BE1BDA00BF081
:102D700021FF37E1C3A0FAE7CCA0F8E7D4A00BF01D
:102D800019FFDCA18B980AF025FA07004FF0000428
:102D9000E5D0F8680628E2D1D8A138460AF01AFA38
:102DA00030B1017D01248DF86410D5A00BF002FF35
:102DB000D8A138460AF00EFA40B1808A81B2ADF847
:102DC0006510AFF24410641C0BF0F4FED2A138463B
:102DD0000AF000FA060036D0641C3069FDF7E8F905
:102DE000024698A83169FDF7A3F9022298A90DF1CE
:102DF000670005F047FB98AE02221AA8F11C05F007
:102E000041FB0222B11D0DF1690005F03BFB9DF86D
:102E10006700182802D308208DF867009DF8680025
:102E20003C2801D38DF868509DF869003C2801D3F7
:102E30008DF869509DF869309DF868209DF86710FD
:102E4000B7A00BF0B7FEBCA138460AF0C3F90600E4
:102E500036D0641C3069FDF7ABF9024668A83169C9
:102E6000FDF766F9022268A90DF16A0005F00AFB78
:102E700068AE02220DF16B00F11C05F003FB02228B
:102E8000B11D1BA805F0FEFA9DF86A00182802D3B0
:102E900012208DF86A009DF86B003C2801D38DF854
:102EA0006B509DF86C003C2801D38DF86C509DF858
:102EB0006C309DF86B209DF86A10A0A00BF07AFE94
:102EC000A3A138460AF086F95FEA000957D0641CCE
:102ED0000AF071F9074600250DF1100A48E029466D
:102EE00048460AF05FF95FEA00083FD000269AA141
:102EF0000AF070F930B141690126C8B2709097A00C
:102F00000BF058FE98A140460AF064F978B1416987
:102F100006F101067F3101D5002102E0FE2900DD26
:102F2000FE210AEB4500818090A00BF043FE91A1A9
:102F300040460AF04FF950B14169761C3C2900DD4A
:102F40003C210AEB450081858BA00BF033FE032E5C
:102F50000CD17098401E132808D8681C7099C2B212
:102F60000AEB4100418D408809F01CFB6D1CEDB25D
:102F7000BD42B4D3052C35D104A804F0DDFE31E008
:102F800080A00BF017FE85A18B980AF023F90400AE
:102F900024D0E068062821D182A120460AF01AF93F
:102FA00068B140697F3001D5002002E0FE2800DDD5
:102FB000FE2080B201466E907CA00BF0FBFD7FA14D
:102FC00020460AF007F948B140693C2800DD3C2062
:102FD00080B201466D907BA00BF0ECFDDDE96D1039
:102FE00001F040FC8B980AF049F904468B980AF0EE
:102FF000B9F8214677A00BF0DDFD20460AF0B2FAC1
:1030000017A00BF0D7FD0DF51D7D0020BDE8F08F5A
:1030100072A0ACE62054686520636F6E66696775C0
:10302000726174696F6E20646F6573206E6F7420B7
:103030006E65656420746F206265207570646174CC
:1030400065640D0A000000002048693335313920DD
:10305000526571756573742073687574646F776EEB
:103060000D0A000020526563656976656420736807
:103070007574646F776E20726573706F6E73650D13
:103080000A000000204869333531392065786974B9
:103090007320746872656164207265706C79207247
:1030A000656365697665640D0A0000002048693330
:1030B0003531392072656164732050686F746F20F8
:1030C000506F696E7420436F6E6669670D0A000069
:1030D00020486933353139205365742050686F7446
:1030E0006F20506F696E7420436F6E6669670D0ABA
:1030F0000000000050617261000000004E756D001C
:1031000050686F746F506F696E744E756D3A2564B8
:103110000D0A0000496E740053746172740000005F
:1031200053746172742054696D653A25643A25645C
:103130003A25640D0A000000456E6400456E642067
:1031400054696D653A25643A25643A25640D0A0090
:10315000506F696E7400000050000000506F696E7F
:10316000743A25642000000048000000486F723A5D
:1031700025642000560000005665723A25640D0A49
:10318000000000002048693335313920476F207432
:103190006F20416E676C653A0000000050545A5031
:1031A0006F73000048416E676C650000486F7220C5
:1031B000416E676C653A25642C20000056416E67AD
:1031C0006C65000056657220416E676C653A256437
:1031D0000D0A000025730D0A000000002048693325
:1031E000353139205175657279204C6F636174698E
:1031F0006F6E0D0A0000000010B5044808F06CF86E
:10320000BDE81040024808F067B80000A9AC00080B
:1032100075B100080348012101804FF47A714180A3
:103220007047000010010020884201D3401A704707
:10323000014A511A084470478051010030B50024FA
:10324000A1B00D46802905D909A00BF0B3FC0020E0
:1032500021B030BDAAB2694600F034F800206946BA
:1032600002E00A5C401C1444A842FAD3E0B2EFE743
:1032700020436865636B204C656E677468204572F7
:10328000720D0A002DE9F041054672B6FEF7C8FB43
:1032900000240B4F4CF25036AD01304600F0A2FA3C
:1032A0000428FAD105EB84003844FEF75AFB641C6D
:1032B000E4B2102CF1D3FEF777FB62B6BDE8F081E3
:1032C0000000080804E000BF10F8013B01F8013BD2
:1032D000521E92B2F8D2704701E008C808C1521ECF
:1032E00092B2FAD2704700002DE9F04114460D4623
:1032F000064672B6FEF794FB4CF2503711E03846A2
:1033000000F070FA0428FAD129783046FEF754FB11
:10331000042802D006A00BF04DFC641E6D1CA4B264
:10332000761C002CEBD1FEF73FFB62B6BDE8F081C6
:103330006572720D0A0000002DE9F04114460D4639
:10334000064672B6FEF76CFB4CF2503711E0384679
:1033500000F048FA0428FAD130462968FEF74FFBFE
:10336000042802D006A00BF025FC641E2D1DA4B27B
:10337000361D002CEBD1FEF717FB62B6BDE8F081DD
:103380006572720D0A0000003EB54FF4003420460D
:1033900000F072F8009400248DF8044008208DF8A5
:1033A00005008DF80640684600F076F829208DF873
:1033B000080003208DF809008DF80A008DF80B40F5
:1033C00002A801F06BFE00214FF4805002F0FEFDD8
:1033D00000214FF4807002F015FB3EBD30B5012195
:1033E00085B0084602F0E2F900248DF81040012073
:1033F0008DF81300202503A91048039500F010FA5A
:103400000021012002F0F6F98DF804400C208DF81F
:10341000050000958DF80640684600F03DF817203D
:103420008DF8080003208DF809008DF80A008DF84A
:103430000B4002A801F032FE05B030BD0000024092
:1034400010B5202000F01EF8002812D04FF44040A4
:1034500005F062F8012002F06BF910B1012002F0D2
:103460005FF9044901204870BDE81040202000F0B9
:1034700003B810BD500000200149086070470000EB
:1034800014040140034A0146002012680A4200D099
:10349000012070471404014030B51A49837902684D
:1034A00053B30B6893430B600A1D13680468A3436E
:1034B000136002790A441368046823431360114AB5
:1034C000083213680468A3431360131D1C68056861
:1034D000AC431C604479102C05D021440A68006874
:1034E00002430A6030BD1168046821431160196805
:1034F00000680143196030BD0079084401689143B8
:10350000016030BD0004014070B5050072D03A4C36
:103510002046FEF7E9FB0028FAD172B600F08EFED5
:103520002046FEF7E1FB0028FAD1344E0021304658
:1035300008F05CFD304608F06BFD2F4E283E30460B
:10354000FEF7D2FB0028FAD12D4E0021304608F0BC
:103550004DFD304608F05CFD2A48FDF79BFD2846EE
:1035600002F0D8FD2046FEF7BFFB0028FAD1264D19
:103570000021284608F03AFD284608F049FD6D1460
:103580002846FEF7B5FB012802D12846FEF7F4FADB
:1035900000212046FEF7FCFA2046FEF733FB04F03C
:1035A000BDFE00F04BFE4FF0E020016921F001016B
:1035B00001611648016841F08051016014480168BA
:1035C00021F002010160016841F48061016011494C
:1035D0000A6842F004020A60016841F001010160DA
:1035E000016841F400710160016821F0100101607F
:1035F00062B630BF70BD000044600240004400402D
:1036000000480040002401400038014024380240B6
:103610000070004010ED00E070B5044646782CA024
:103620000BF0C8FAE0782F4D082829D2DFE800F027
:103630002804060A0C0E3D3F2BA000E02DA00BF045
:10364000B9FA1DE02FA0FAE732A0F8E735A00BF099
:10365000B1FA3648007898B9A87850B10020A8701F
:1036600043F69821324807F0EFFD32494FF47A5083
:1036700001E03049C82004F0F1FB2861FEF752F95F
:10368000062E0DD0032E14D02BA00BF093FA00259C
:103690002DA0615D0BF08EFA6D1CEDB20A2DF7D3F3
:1036A000BDE870402AA00BF085BA2AA0C7E72DA07C
:1036B000C5E760792179A27900EB0121E079E98001
:1036C00000EB02222A81BDE870402AA00BF072BAFA
:1036D000204E6F77204D6F746F7220537461747534
:1036E000733A0000B0000020205475726E696E6756
:1036F00020557000205475726E696E6720446F7794
:103700006E000000205475726E696E67204C65660D
:1037100074000000205475726E696E6720526967EC
:10372000687400002053746F7000000030000020A7
:1037300059AE000885BB00080D0A203438352065D5
:1037400072726F723A20000020253032580000005B
:103750000D0A0000204175746F2052756E6E696EFF
:103760006700000020476F20746F20416E676C6512
:1037700000000000202020204E6F7720416E676CF3
:10378000653A2025642C25640D0A000008490420B0
:103790000A68D20701D0012070470A68D20501D516
:1037A00002207047096811F4F05FFAD003207047D7
:1037B000183C024005490028086802D040F0020089
:1037C00001E020F00200086070470000003C024069
:1037D000034A116821F001010143116070470000A4
:1037E000003C024008B5034604208DF80000FFF7B6
:1037F000CDFF8DF8000004E0FFF7C8FF8DF8000052
:103800005B1E9DF80000012801D013B104E0002BDD
:10381000F2D105208DF800009DF8000008BD0000E1
:10382000F0B5002301244FF0030E00BF0D6804FA29
:1038300003F21540954222D106685D000EFA05FCA0
:103840000F7926EA0C06AF40374307600E79012E48
:1038500001D0022E0CD186684F7926EA0C06AF40C3
:1038600037438760868896438A799A4032438280BC
:10387000C668CA7926EA0C06AA403243C2605B1CBD
:10388000102BD3D3F0BD4B07DB0E9A40C90810B5FF
:1038900000EB8100016A0F249C40A1430162016A90
:1038A0001143016210BD02460020128A0A4200D074
:1038B000012070474183704701837047828A4A40E4
:1038C0008282704770B50DA10E48FCF755FC0025AB
:1038D0000D4C012608B1667105E00CA10948FCF702
:1038E0004BFC20B1A671E06900F086FDE561BDE802
:1038F00070400449084800F0C3B8000050445449DF
:103900004E464F00E0160020C4000020414E5453A4
:103910005441543100000000FC05002010B504485B
:1039200007F0DAFCBDE81040024807F0D5BC000003
:1039300075A7000889A900087CB5054601228DF805
:10394000042000208DF806000A4E4FF480448DF8C4
:10395000072000948DF8052069463046FFF760FF88
:103960002146304615B1FFF7A7FF7CBDFFF7A2FF48
:103970007CBD00000000024010B50020FFF7DCFF16
:10398000064900204870064807F0A6FC054807F0E5
:10399000A3FCBDE81040FDF78BBE0000C400002072
:1039A00075A7000889A9000810B5104C0E48A06240
:1039B0004FF4165008F068FA012008F0F7FB0120D8
:1039C000FFF7BAFFFDF774FE012060700020207041
:1039D000E0700A21064807F037FCBDE8104042F2CB
:1039E0001071044807F030BCFC050020C400002022
:1039F00075A7000889A9000810B5012808D0022879
:103A00000BD004280ED108A0BDE810400BF036B949
:103A100008A00BF0CFF80DA0F6E70FA00BF0CAF846
:103A200014A0F1E710BD0000244346474E4D454128
:103A30000D0A0000204765742047505320696E66C8
:103A40006F726D6174696F6E0D0A000024504454EA
:103A5000494E464F0D0A0000204465746563746941
:103A60006F6E20616E74656E6E6120737461747523
:103A7000730D0A0024414E5453544154310D0A0031
:103A800070B50C46054601F001FA2146284600F0C3
:103A9000D7FF2146284601F05FF82146284601F06D
:103AA0008BF82146284601F0D7F821462846BDE884
:103AB000704001F0C5B9000001480069704700007E
:103AC0009000002010B50288002101EB12210A4469
:103AD0004168838902EB116202EB114202EB112271
:103AE0001144027A1144428901EB1221114401EB85
:103AF0001321827B19441144CAB2002104E0441806
:103B0000491CE47B2244D2B28B42F8D8104610BD47
:103B10000148007870470000B0000020014840785C
:103B200070470000B00000200148C07870470000D6
:103B3000C40000200148407870470000C400002005
:103B400001480078704700005C0000200148807A3E
:103B5000704700005C0000200148C08870470000EA
:103B6000B00000202DE9F0418AB08846002106917E
:103B70000791089109912F4901270968059101468C
:103B80006846FCF729FB6846FCF712FB441E6E46AC
:103B900012D4305D2E280DD030380A280AD325469D
:103BA00003E07019407870556D1C6846FCF700FB07
:103BB000A842F6D8641EECD59DF800002E282DD022
:103BC000002505AC08E0705D2E2804D144F827508C
:103BD0007F1C042F22DC6D1C6846FCF7E9FAA84222
:103BE000F1D8042F1AD16846FCF7E2FA09900020B8
:103BF0006FF02F0504EB800354F820105B6800225F
:103C0000491C5B1E06E0775C02EB820205EB420278
:103C10003A44491C8B42F6DAFF2A03D901200AB044
:103C2000BDE8F08108F80020401C0428E2DB0020F9
:103C3000F5E700003CED00080148C079704700003E
:103C40005C0000200148C06870470000B000002000
:103C50000148C07A704700005C000020024A1369E6
:103C60000360506908607047C400002010B509491E
:103C7000002002F085F9074841780278C1EB011174
:103C8000C2EB42138900C3EB0222807801EB0211E0
:103C9000084410BD4C0100200148407A70470000E4
:103CA0005C000020014800787047000044010020BB
:103CB0000148006B70470000740100200148407803
:103CC000704700005C0000200148007A7047000047
:103CD0005C0000200148008970470000B00000200F
:103CE00004484178008911B140F00100704720F08C
:103CF000010070479000002070B5C0B001680091CD
:103D000041680191806802900120164D8DF80600EF
:103D10002846FDF7A5FC10F0FF0420D0221D20A9A5
:103D20002846FFF7CFFA20460AF0E8FEADF8090072
:103D300020AE224603A8311DFCF7FAF904F10C006D
:103D4000C5B229466846FDF75BFC0DF805006D1C01
:103D5000E9B26846FEF7BEF800203119087140B09C
:103D600070BD0000800108080148406870470000ED
:103D7000540000200148406B70470000740100208F
:103D800070B5164C05462046FDF76AFC00B35D226F
:103D900013492046FFF796FA1248C16800291CD043
:103DA0000F49C1605D22A1F15D00FCF7C1F90C482B
:103DB00029465D3800EB45040BA0638D62880AF04C
:103DC000F9FE628D6188BDE87040072003F0F3BA08
:103DD000BDE870400CA00AF0EDBE70BD00010808FF
:103DE00061050020B000002020476F20746F205034
:103DF00072657365742825642920416E676C653A85
:103E000025642C25640D0A00205265616420416EF2
:103E1000676C65204572726F725374617475730DAF
:103E20000A0000004FF4E13007F0E6FE0E2003F038
:103E300073FF04F0F1FA054D05A008F0E5FB2C46F0
:103E40000220401CA042FCD3F6E70000FFFF2F0039
:103E5000486172644661756C745F48616E646C653C
:103E6000720D0A001CB5402300220121104C8DF870
:103E7000041000938DF8062060B18DF807108DF8BE
:103E8000051069462046FFF7CBFC40212046FFF78E
:103E900013FD1CBD02208DF807008DF80510694642
:103EA0002046FFF7BDFC40212046FFF703FD1CBD67
:103EB0000000024010B50020FFF7D4FFFFF79CF987
:103EC000044C0021204608F091F82046BDE810403F
:103ED00008F09EB80044004010B50120FFF7C2FF73
:103EE0004FF4FA7009F004FABDE8104000F05CBA33
:103EF0002DE9FC41002440208DF804400125104F9D
:103F000000908DF8055002268DF807606946384606
:103F1000FFF786FC20208DF8044000908DF80550B6
:103F20008DF8076069463846FFF77AFC402138462D
:103F3000FFF7C0FC20213846FFF7BCFCBDE8FC8140
:103F4000000402407CB501248DF8044040208DF827
:103F50000640104D00908DF805408DF807406946E9
:103F60002846FFF75DFC8DF8044020208DF80640C0
:103F700000908DF805408DF8074069462846FFF708
:103F80004FFC40212846FFF797FC20212846FFF7E9
:103F900093FC7CBD000402402DE9FC4700258DF810
:103FA00004504FF001098DF80690374F82464FF0CC
:103FB00040088DF805502C46CDF800808DF807504C
:103FC00069463846FFF72CFC002620213846FFF7CB
:103FD00071FC042009F0ACF920213846FFF76CFC95
:103FE000042009F0A5F96806050E40213846FFF7C0
:103FF0005AFC08B16D1CEDB2042009F099F9761C49
:10400000F6B2082EE1D3BAF1000F4FF02001384686
:1040100014D0FFF74FFC8DF804908DF806408DF812
:104020000540CDF800808DF8074069463846FFF717
:10403000F7FB40213846FFF73DFC13E0FFF73AFC61
:104040008DF804908DF806408DF80540CDF800807D
:104050008DF8074069463846FFF7E2FB40213846B5
:10406000FFF72AFC042009F063F920213846FFF706
:1040700023FC042009F05CF920213846FFF71AFCE4
:104080002846BDE8FC870000000402401CB5402023
:10409000009001208DF8040000208DF806008DF8B6
:1040A00005000F4C8DF8070069462046FFF7B8FB66
:1040B00040212046FFF700FC20212046FFF7FCFBB3
:1040C000042009F035F940212046FFF7F3FB0420D6
:1040D00009F02EF92046BDE81C402021FFF7EABB7D
:1040E000000402401CB54020009001208DF804001F
:1040F00000208DF806008DF80500114C8DF80700A2
:1041000069462046FFF78CFB20212046FFF7D2FBB3
:1041100040212046FFF7CEFB042009F009F92021B9
:104120002046FFF7C9FB042009F002F94021204690
:10413000FFF7C2FBBDE81C40042009F0F9B80000FD
:10414000000402407CB500248DF8044001218DF864
:1041500006104020164D00908DF805408DF8074060
:1041600069462846FFF75CFB40212846FFF7A4FB81
:10417000042009F0DDF820212846FFF79DFB0420EC
:1041800009F0D6F807E0641CE4B2FA2C03D9FFF773
:10419000A9FF01207CBD40212846FFF784FB0028B1
:1041A000F1D120212846FFF785FB00207CBD0000CF
:1041B000000402407CB505464020009001208DF8A7
:1041C000040000208DF806008DF80500164E8DF8CD
:1041D000070069463046FFF723FB20213046FFF7F2
:1041E00069FB002428064FF04001304602D5FFF756
:1041F00063FB01E0FFF75EFB6806050E042009F093
:1042000097F820213046FFF757FB042009F090F87B
:1042100020213046FFF74EFB042009F089F8641C8A
:10422000E4B2082CDED37CBD0004024002494CF607
:10423000CC400860704700000030004002494AF658
:10424000AA20086070470000003000400149486023
:10425000704700000030004001498860704700004E
:104260000030004001490860704700000030004005
:1042700070B504F04BFA194817494163046B18A054
:1042800021680AF097FC1DA00AF094FC0025601933
:10429000417B1EA00AF08EFC6D1CEDB2042DF6D3FE
:1042A0001BA00AF087FCB4F811101AA00AF082FCD7
:1042B000217B1EA00AF07EFCE17C24A00AF07AFC9F
:1042C000A18A29A00AF076FCE18A2FA00AF072FCEC
:1042D000BDE8704002F01EB9F1EC00087401002046
:1042E0000D0A205B53797374656D5D44657669636F
:1042F0006549443A25640D0A000000000D0A205B60
:1043000053797374656D5D49503A0000256420004F
:104310000D0A00000D0A205B53797374656D5D50C2
:104320006F72743A25640D0A000000000D0A205BCC
:1043300053797374656D5D4C6F77506F7765724616
:104340006C61673A25640D0A000000000D0A205BCD
:1043500053797374656D5D436F6E736F6C65204E3A
:10436000756D3A25640D0A000D0A205B537973744C
:10437000656D5D50686F746F20496E74657276610B
:104380006C3A25640D0A00000D0A205B53797374A2
:10439000656D5D4461746120496E74657276616C0F
:1043A0003A25640D0A00000010B509F085F80020D8
:1043B0000E4B014600EB4002401C03F8221003EBB9
:1043C0008202C0B251705160117251720A28F1D349
:1043D0004FF4E13007F0CCFC0121054806F034FF32
:1043E000BDE810400121034806F02EBFF401002073
:1043F000A9AC000875B1000810B50446164801685C
:1044000039B916490160164941601649816016495B
:10441000C160611E03290ED800EB8400002150F812
:10442000042C084690470C490020103901EB840108
:1044300041F8040C10BD601F0328FBD8064810305B
:1044400000EB840050F8140CFDF7DEFC611FBDE8A2
:10445000104006A00AF0AEBB4819002035B900088C
:10446000C9B900085DBA0008F1BA00085B54696D6B
:1044700065725D2D3E436F6E7374204B696C6C20CA
:10448000536861726554696D65723A25640D0A005E
:1044900010B5054C08212046FFF70CFA2046BDE870
:1044A00010401021FFF706BA0004024010B5054C79
:1044B00008212046FFF700FA2046BDE810401021F1
:1044C000FFF7FAB90004024070B5154D2846FDF714
:1044D000C7F868B1062213492846FEF7F3FE1149D2
:1044E000A1F10E0041600A6882608988818170BDF7
:1044F0000C4C5520A41F022120700220A4F80100BA
:104500000020A080201DFDF77BF8E07006222146E8
:104510002846FEF7E9FEBDE8704003A00AF04ABB5A
:104520004002080822010020204C6F67577269740E
:1045300065207468652064656661756C74207661B9
:104540006C756520666F7220746865206669727389
:104550007420706F776572206F6E0D0A0000000086
:1045600010B50121044806F06FFEBDE8104001219E
:10457000024806F069BE000091AD0008B5B1000820
:1045800070B5FFF783FD9420FFF714FEFFF7DAFD07
:104590001B4E08B1304670BD0320FFF70BFEFFF73E
:1045A000D1FDFFF773FD9520FFF704FEFFF7CAFD6D
:1045B0000120FFF7F1FC0446FFF768FD0420FFF738
:1045C000F9FDFFF7BFFD0020FFF7E6FC0546FFF70A
:1045D00089FD2109F0290FD005F00F0202EB04102C
:1045E000C0B28840FCF785F8064A074BFBF77BFF13
:1045F000BDE87040FCF72AB904A00AF0DBFAC9E76D
:10460000EFEE6E4F0AD7A3703D0AA73F5B4D4158AE
:1046100034343030395D204F7665722052616E67D8
:10462000650D0A002DE9F0411F4C0126E67000F0EF
:10463000ADF8FFF787FC322008F05AFE88210220EF
:1046400000F06CF8194F050005D019A00AF0B2FA75
:10465000E670676020E0C82008F04AFEFFF790FF90
:104660001A49884205DD1AA00AF0A4FAE6706760CC
:1046700010E02049FBF720FE6060FCF7A4F802463A
:104680000B461DA00AF096FA0220E070282122486D
:1046900006F0DAFDFFF70AFF00F05EF8FFF728FCEE
:1046A0002846BDE8F081000054000020000080BFD3
:1046B0000D0A205B4D415834343030395D496E6904
:1046C00074204661696C0D0A00000000007C92486D
:1046D0000D0A205B4D415834343030395D446174EB
:1046E00061204572722C496E6974204661696C0DB7
:1046F0000A0000000000A0410D0A205B4D41583423
:10470000343030395D696C6C756D696E616E6365EE
:104710003A25660D0A000000A9AD000870B50C46E8
:104720000546FFF7B3FC9420FFF744FDFFF70AFDB1
:1047300058B92846FFF73EFDFFF704FD28B920468B
:10474000FFF738FDFFF7FEFC08B1012070BDFFF751
:10475000C9FC002070BD00001CB580200090002026
:104760008DF8040001208DF806008DF80500022068
:10477000054C8DF8070069462046FFF751F8802167
:104780002046FFF797F81CBD000402401CB58020AE
:10479000009001208DF804008DF806008DF80500CA
:1047A000064C8DF8070069462046FFF739F880214E
:1047B0002046FFF781F8FFF76BFE1CBD00040240A6
:1047C0004FF4E13007F018FA044D05A007F01CFF84
:1047D0002C460220401CA042FCD3F6E7FFFF2F002E
:1047E0004D656D4D616E6167655F48616E646C65B6
:1047F000720D0A002DE9F04705680646481E0F466F
:10480000A846A94604B218E056F824002946FCF749
:1048100043F802D256F8245007E056F824004146E7
:10482000FCF730F801D256F8248056F82410484698
:10483000FBF7EAFC641E814624B2002CE4DCBF1EB8
:104840003EB229464846FBF731FD4146FBF72EFDB7
:1048500004463046FBF73FFF01462046BDE8F047DF
:10486000FBF75CBD70B506460D464FF4165007F0D9
:104870000BFB002007F09AFC0EA00AF09BF9124CEB
:104880002046FDF731FA0028FAD11049012048707E
:1048900000F020F801210E4806F0D6FC4FF4967087
:1048A00008F026FD2A463146BDE87040072002F098
:1048B00082BD0000204D6F746F7220506F7765725B
:1048C000204F6E0D0A00000044600240B00000203E
:1048D000D1AF00082DE9FC41012406468DF80440C3
:1048E000002510208DF80650154F00908DF80750C8
:1048F0008DF8054069463846FEF792FF8DF8044072
:104900008DF806508DF807508DF8054002200D4CAB
:10491000009069462046FEF783FF4FF010013846AD
:104920003EB1FEF7C7FF02212046FEF7C5FFBDE8F6
:10493000FC81FEF7C1FF02212046FEF7BBFFF6E730
:10494000000002400004024010B50020FFF7C2FF43
:10495000064900204870064806F0BEFC054806F0EF
:10496000BBFCBDE81040FCF7DBBE0000B00000203F
:1049700059AE0008D1AF000810B5FCF7D1FE4FF4D6
:10498000165007F081FA002007F010FC0FA00AF083
:1049900011F9134C2046FDF7A7F90028FAD1114C64
:1049A00001206070FFF796FF42F210710E4806F08A
:1049B0004BFC0E4944F6206003F050FA2061BDE83C
:1049C000104001210A4806F03FBC0000204D6F74E2
:1049D0006F7220506F776572204F6E0D0A000000D5
:1049E00044600240B000002059AE000885BB0008BA
:1049F000D1AF000870B5002007F0D8FB09A00AF07D
:104A0000D9F80D4C012528466570FFF763FF4FF478
:104A1000165007F039FA0121084806F015FC2570F8
:104A200070BD0000204D6F746F7220506F776572FB
:104A3000204F6E0D0A000000B0000020D1AF00082A
:104A40002DE9F84F0C4682464FF0000835A120466C
:104A5000FBF792FB0546C07903213038C7B22846E0
:104A600000F064F8FF2805D02844694600F08CFA6D
:104A70008AF80100002651E02AA12046FBF77CFBC2
:104A8000044600254FF0040B0BEB8500C1B2204615
:104A900000F04CF8FF283ED02044694600F074FA3C
:104AA00008EB880202EB0A0989F83E00052000EBBA
:104AB0008500C1B2204600F039F8FF282BD02044F1
:104AC000694600F061FA89F83F00062000EB850096
:104AD000C1B2204600F02AF8FF281CD020446946C5
:104AE00000F052FAA9F84000072000EB8500C1B29F
:104AF000204600F01BF8FF280DD02044694600F046
:104B000043FA89F842006D1C08F10100EDB200F093
:104B1000FF08042DB8D3761CF6B2641CBE42ABD39A
:104B2000BDE8F88F244244475356000003460DE089
:104B300002782A2A03D0202A01D37A2A01D9FF2019
:104B400070472C2A01D1491EC9B2401C0029EFD15F
:104B5000C01AC0B27047000038B50A46054614A115
:104B60001046FBF709FB04460621FFF7DFFFFF288D
:104B700005D02044694600F007FA85F88B0007212C
:104B80002046FFF7D3FFFF2805D02044694600F0F8
:104B9000FBF985F88C0009212046FFF7C7FFFF28A5
:104BA00005D02044694600F0EFF9C5F8A00038BDF3
:104BB00024474E4747410000F8B50A46064624A15F
:104BC0001046FBF7D9FA05460221FFF7AFFFFF2891
:104BD00005D02844694600F0D7F986F899000024EA
:104BE000E01CC1B22846FFF7A1FFFF280AD02844E5
:104BF000694600F0C9F93119641CE4B281F88D00EE
:104C00000C2CEDD30F212846FFF790FFFF2805D08D
:104C10002844694600F0B8F9A6F89A001021284601
:104C2000FFF784FFFF2805D02844694600F0ACF95F
:104C3000A6F89C0011212846FFF778FFFF2805D031
:104C40002844694600F0A0F9A6F89E00F8BD0000CF
:104C500024474E47534100002DE9F8430A460446D5
:104C600074A11046FBF788FA05460121FFF75EFFA5
:104C700042F210764FF06408FF281ED0284469469F
:104C800000F082F907469DF800100A2000F074F940
:104C9000B7FBF0F1B1FBF6F084F87E004046B1FBC3
:104CA000F0F2B2FBF0F308FB132284F87F20B1FB93
:104CB000F8F208FB121084F8800003212846FFF761
:104CC00035FFDFF87891FF283DD02844694600F091
:104CD0005BF907469DF80000801CC1B20A2000F075
:104CE0004BF9B7FBF0F044F8810F9DF80000801CF1
:104CF000C1B20A2000F040F9B7FBF0F100FB1170DF
:104D0000FBF7F2FC07469DF80000C0F10500C1B2B8
:104D10000A2000F031F9FBF7E7FC3946FBF7CCFA43
:104D20004946FBF7FBFA074605210A2000F024F963
:104D300021684843FBF7D8FC3946FBF765FAFBF7D7
:104D4000F6FC44F8810904212846FFF7EFFEFF280E
:104D500002D0285C84F8850005212846FFF7E6FE8E
:104D6000FF283DD02844694600F00EF907469DF81B
:104D70000000801CC1B20A2000F0FEF8B7FBF0F082
:104D800044F8860F9DF80000801CC1B20A2000F094
:104D9000F3F8B7FBF0F100FB1170FBF7A5FC074639
:104DA0009DF80000C0F10500C1B20A2000F0E4F84F
:104DB000FBF79AFC3946FBF77FFA4946FBF7AEFA58
:104DC000074605210A2000F0D7F821684843FBF781
:104DD0008BFC3946FBF718FAFBF7A9FC44F8860967
:104DE00006212846FFF7A2FEFF2802D0285C84F89F
:104DF0008A0009212846FFF799FEFF2818D0284489
:104E0000694600F0C1F8B0FBF6F184F87D10414628
:104E1000B0FBF1F2B2FBF1F308FB132284F87C2023
:104E2000B0FBF8F208FB120000F5FA60A4F87A0073
:104E3000BDE8F88324474E524D4300000000704205
:104E400038B50A4604460FA11046FBF795F905460A
:104E50000721FFF76BFEFF2813D02844694600F0B6
:104E600093F8A4F8A4009DF80000032809D2C0F12B
:104E70000300C1B20A2000F07FF834F8A41F4843B1
:104E8000208038BD24474E56544700002DE9F84F86
:104E90000C4682464FF0000835A12046FBF76CF91E
:104EA0000546C07903213038C7B22846FFF73EFED9
:104EB000FF2805D02844694600F066F88AF800000B
:104EC000002651E02AA12046FBF756F904460025AA
:104ED0004FF0040B0BEB8500C1B22046FFF726FE16
:104EE000FF283ED02044694600F04EF808EB8802C7
:104EF00002EB0A0989F80200052000EB8500C1B227
:104F00002046FFF713FEFF282BD02044694600F00F
:104F10003BF889F80300062000EB8500C1B220466B
:104F2000FFF704FEFF281CD02044694600F02CF84F
:104F3000A9F80400072000EB8500C1B22046FFF766
:104F4000F5FDFF280DD02044694600F01DF889F8D2
:104F500006006D1C08F10100EDB200F0FF08042D01
:104F6000B8D3761CF6B2641CBE42ABD3BDE8F88F52
:104F700024475047535600000246012000E05043AA
:104F8000491EC9B2FBD270472DE9F04F4FF0000A1D
:104F90008B468046D14655465446564601782D29C3
:104FA00002D146F00206401C01782C2908D02A299B
:104FB00006D02E290AD030390A290AD300252C46DA
:104FC000B00701D508F10108002718E046F00106F6
:104FD000401CF10702D0641CE4B201E06D1CEDB28C
:104FE000401CDBE7E81B401EC1B20A20FFF7C4FFEC
:104FF00018F80710303900FB01AA7F1CFFB2AF423E
:10500000F0D3052C00D905248BF8004000270EE0D2
:10501000E01B401EC1B20A20FFF7AEFFEA1902EB07
:1050200008014978303900FB01997F1CFFB2A74283
:10503000EED321460A20FFF79FFF0AFB0090B1073D
:1050400000D54042BDE8F08F704738B527208DF875
:10505000000001248DF801408DF802408DF80340D6
:10506000684600F01BF826208DF800008DF80140FE
:1050700000208DF802008DF80340684600F00EF81D
:1050800025208DF800008DF801408DF802408DF844
:105090000340684600F002F838BD000030B50F222A
:1050A000C47801780123FCB1144C246801F1E0219B
:1050B00004F4E064C4F5E064C4F30724C4F1040517
:1050C000E2404478AC408578154025432A0181F8B8
:1050D0000024007800F01F018B404009800000F19F
:1050E000E020C0F8003130BD01F01F0083404809C6
:1050F000800000F1E020C0F8803130BD0CED00E010
:1051000012491148124A48600260124A4260124A2B
:105110008260124A0261124AC26000F5FC7200F11C
:105120006803136050335360503393605033D3603F
:105130005033136100220A704A70CA600A614A61E2
:1051400042F6F82141617047BC020020780000203F
:10515000F1120008FD730008C5660008C17400085C
:105160001513000870B50446C07A00260125CAB0A0
:10517000B42871D01ADCA5286FD00CDC132808DD08
:10518000142806D0152804D0A42802D12046FEF702
:10519000B3FD4AB070BDAA380A28FAD2DFE800F0A1
:1051A0007FF705050505A2A6AAAEF2E7F12813D000
:1051B00009DCA0F1B5000728EBD2DFE800F0A7ABCF
:1051C000BEC9EBECE900F2380528E2D2DFE800F0D6
:1051D000080C03284600DCE72046FCF73AFED8E737
:1051E0002046FCF784FED4E72068009060680190B8
:1051F000A06802908DF80650142009F07FFCADF8ED
:105200000900FEF7B7FD0146142203A8FAF790FF44
:1052100020216846FCF7F4F98DF82000212159E09F
:105220002068009060680190A06802908DF8065098
:105230001D2009F063FCADF80900FEF739FD0146B9
:105240001D2203A8FAF774FF29216846FCF7D8F954
:105250008DF829002A213DE054E0F1E004F10C0032
:1052600002F0BEFEB8B12068009060680190A068AE
:1052700002908DF806500C21ADF809606846FCF7E5
:10528000BFF98DF80C000D216846FCF723FE1420B1
:1052900008F02EF87DE772A009F08CFC79E77548DC
:1052A0000178D9B10670FCF773F820680090606847
:1052B0000190A06802900C248DF80650042009F09B
:1052C0001DFCADF8090021466846FCF799F98DF8F8
:1052D0000C000D216846FCF7FDFD5AE7057006F04D
:1052E0009FF8E2E70022114605204DE0002211461A
:1052F000012049E000221146022045E0002211462B
:10530000032041E00022114604203DE0207BFEF70F
:1053100037FD3EE7607BA17B257B00EB0126E07B30
:10532000217C324600EB01242346294652A009F095
:1053300041FC2A462146304607E0247B54A0214602
:1053400009F038FC00212246084607F02BF920E737
:10535000207B617B00EB0125A07BE17B00EB01243E
:10536000224629464FA009F025FCFE2D03D9FE2533
:1053700050A009F01FFC3C2C03D93C2453A009F099
:1053800019FCA2B2A9B2072002F015F801E75BE010
:105390001FE000E050E02068009060680190A06885
:1053A00002908DF80650592009F0A8FBADF80900CD
:1053B000FEF748FC002890D0011D592203A8FAF7F7
:1053C000B7FE65216846FCF71BF98DF8650066217C
:1053D00080E72068009060680190A06802908DF8D6
:1053E00006500C21ADF809606846FCF709F98DF804
:1053F0000C000D216846FCF76DFD207B8DF81C012B
:10540000607BA17B00EB0120ADF81D01E07B8DF8F6
:105410001F01207C8DF82001607C8DF82101A07C8B
:105420008DF82201E07C8DF82301207D8DF8240188
:1054300032A802F081FCACE6002211460620A3E768
:10544000204602F07FFDA4E626A009F0B3FB2A4C1B
:105450002046FCF749FC0028FAD103F04FF998E602
:1054600020436F6E666967204572722044617461E3
:105470000D0A0000300000205365742050726573DF
:105480006574282564293A25642C25640D0A0000DA
:10549000436C6561722050726573657428256429B8
:1054A0000D0A000020416E676C653A2025642025B6
:1054B000640D0A0020486F7220416E676C65204FB2
:1054C000766572203235340D0A0000002056657270
:1054D00020416E676C65204F7665722036300D0A6C
:1054E000000000000D0A20526573657420436D644E
:1054F0002E2E2E0D0A0000004460024010B5044C10
:1055000001202071E069FEF777FF0020E06110BD07
:10551000C40000202DE9F041274C637822789342A3
:1055200002D1E16800291CD02449466851F8225074
:105530006F68BE4215D1867BAD7BAE4211D1007A39
:1055400001280ED10025521CD0B2256120700528FB
:1055500000D325702278934205D1194805F0BCFE8E
:10556000E560BDE8F08151F822000388606803839C
:1055700051F822305B68C36151F822301B7A80F801
:10558000203051F822305B89438451F822309B89C6
:10559000838451F822309B7B80F8263051F822100A
:1055A00027308A890F31FAF7C3FD60684168BDE88A
:1055B000F04118300847000078000020B4040020B3
:1055C00009EB000810B5417801292FD1184A41682C
:1055D0005368994201D10378CBB11369994202D142
:1055E0000378022B18D0D369994202D10378082B93
:1055F00017D0526B914219D10078062816D10DA010
:1056000009F0D8FA1548BDE8104005F065BE14A0B1
:1056100009F0D0FA1948F6E719A009F0CBFA2148A9
:10562000F1E721A009F0C6FA2848ECE710BD000018
:10563000F4010020205265632041636B2C204B69EC
:105640006C6C207468652054616B65206120506823
:105650006F746F20434D440D0A000000C9B3000869
:10566000205265632041636B2C204B696C6C207465
:10567000686520446574434F4D0D0A0071B30008FE
:10568000205265632041636B2C204B696C6C207445
:105690006865204765742053746174757320434DA9
:1056A000440D0A009DB30008205265632041636BDE
:1056B0002C204B696C6C2074686520506F77657284
:1056C000204F666620434D440D0A0000F5B30008E4
:1056D0007CB501248DF804408DF806400F4E4FF440
:1056E00080558DF8074000958DF805406946304695
:1056F000FEF796F829463046FEF7DEF800208DF8D2
:1057000004008DF806408DF8074000948DF80540A0
:1057100069463046FEF784F87CBD00000004024074
:1057200002490A6842EA8000086070470070004041
:10573000034A0146002052680A4200D00120704707
:1057400000700040014908627047000000000E42EE
:10575000F0B57E241470002501247D2618E0475DF5
:10576000212F1CD07D2F02D07E2F09D104E01655A9
:10577000641CA4B25D2703E01655641CA4B25E2726
:105780001755641CA4B29F1EBC4203DC6D1CADB255
:105790008D42E4D321201055641CA0B2F0BD1655F3
:1057A000641CA4B25127EBE770470000044A0029AB
:1057B000116801D0014300E081431160704700008F
:1057C0001C380240044A0029116801D0014300E05E
:1057D000814311607047000024380240044A0029C8
:1057E000116801D0014300E081431160704700005F
:1057F00018380240044A0029116801D0014300E032
:10580000814311607047000020380240044A00299B
:10581000116801D0014300E081431160704700002E
:10582000143802400D48016841F4807101600B4951
:1058300008310A680A4B1A400A600268094B1A408C
:105840000260026822F480220260086820F47D0071
:1058500008600020091D0860704700000038024001
:105860000CC0FF88FEFFFEEE30B5254A1168A2F19C
:10587000040411F00C034FF4004105D0042B09D0AF
:10588000082B09D00C2B09D02368C3F342335B1CCF
:10589000994018E01B4916E01B4914E01168136891
:1058A00001F47011194C03F4400304EB91410978A1
:1058B000012404EB9353146814F4803F1DD0124C60
:1058C0006143B1FBF3F1016011680F2303EA111189
:1058D0000E4B09335C5C0168E140416014680725A8
:1058E00005EA14241C5D21FA04F48460126805EAB8
:1058F000D2229A5CD140C16030BD024CE0E700008A
:10590000083802400024F40000127A0054010020FC
:10591000014600204A09012A09D0064A126801F00E
:105920001F0101238B40134200D001207047014A20
:10593000343AF3E734380240034A116821F0F001A9
:1059400001431160704700000838024001490860B7
:105950007047000000004742024900220A700870A8
:105960007047000035380240014908627047000066
:1059700000004742034A116821F46041014311606D
:105980007047000004380240034A116821F4E061C6
:1059900001431160704700000838024003490A685B
:1059A00022F4605242EAC0000860704708380240A2
:1059B0000149086070470000D8064742C0F3014122
:1059C000032907D1094A116821F0C04300F0C04102
:1059D00019431160054934310A6822F440320A60E3
:1059E0000A6800F4403002430A6070470038024001
:1059F000034A116821F00301014311607047000060
:105A00000838024038B50022124B0092CA221A60B0
:105A100053221A600F4A1C3A0029116802D0014330
:105A2000116012E0814311600A4A183A5514116856
:105A3000009C01EA1021641C0094AC4201D00029B2
:105A4000F5D0116811EA102000D00120FF21196063
:105A500038BD00002428004030B54FF4003487B032
:105A60002046FDF709FD049400248DF81440082019
:105A70008DF8150001258DF8165004A8FDF70CFDD2
:105A800029208DF8180003208DF819008DF81A00D0
:105A90008DF81B5006A8FFF701FB2D0200212846B8
:105AA000FFF7B0FF8DF8004031208DF801408DF8F0
:105AB0000C008DF80240C007CDE901046A46294672
:105AC000002000F0D5FA0121080300F07FFA01213F
:105AD0002846FFF797FF07B030BD000010B54FF420
:105AE000807000F03FFA00281CD00F4CA0780128ED
:105AF00001D10020A0704FF4404002F00DFDFEF7F0
:105B00009DFB0120FFF714FE10B10120FFF708FEF6
:105B10004FF40030FDF7B0FC4FF4805000F02AF84D
:105B20000120207010BD000050000020010901EB91
:105B3000810100F00F0000EB4100C0B2704700216E
:105B400003E0491C0A38C9B2C0B20A28F9D20907D1
:105B500040EA116070470000C0F3100040F0800080
:105B6000C1430348026802F080021143016070479C
:105B70000C280040C0F30F1040F08000C1430348E0
:105B8000026802F080021143016070470C28004057
:105B900010B501210807FFF715FE0120FFF7D2FD20
:105BA0000120FFF7D9FE0A2007F0A2FB05E00A203A
:105BB00007F09EFB0120FFF7CFFE4920FFF7A8FE6C
:105BC0000028F4D04FF48030FFF7F8FE0120FFF7F3
:105BD000EFFEBDE8104000F0DFBB00002DE9F05FF4
:105BE0005A4F594C00207C6000F038FA43F2F22AF8
:105BF0000025DFF85CB107F108064FF055084FF0BB
:105C00000709504544D0FFF7C3FF04F118007F2176
:105C10004160FF210560816000F0F8F910B94DA0E6
:105C200008F0C8FFF5700C2030707570B57002E098
:105C300051A008F0BFFFC82007F05AFB43490020DD
:105C4000083100F01FFB0028F2D059A008F0B2FF85
:105C500084F80080A4F80190E57025716571A57144
:105C6000C4F807500721201DFBF7CAFCE0700B2287
:105C700035495846FDF738FB00F054FB4FF47A7075
:105C800007F036FB5146BDE8F05F002000F0A8BBEE
:105C9000DA465846FBF7E4FC80B32B490B220B3164
:105CA0005046FDF70FFB28480B30786001792171D1
:105CB000417961718179A171D0F8071049A0491C1F
:105CC000C4F8071008F076FF20490020083100F0E2
:105CD00057F984F80080A4F80190E57030782071BD
:105CE00070786071B078A0710721201DFBF788FCE7
:105CF000E0700B2214495046FDF7F6FA5B20FFF7DF
:105D000007FE08B13EA004E05A20FFF701FE10B1E3
:105D100044A008F04FFF4CA008F04CFF01210807F9
:105D2000FFF750FD0120FFF70DFD00F035FB4FF4AC
:105D30008070FFF711FF4FF40030FDF79DFBBDE8C9
:105D4000F05F00F0EFBA0000881900204401002045
:105D5000400008080D0A20525443205072657363B6
:105D6000616C657220436F6E666967206661696C5D
:105D700065645C200D0A00000D0A3E3E20212120B2
:105D8000B5DAD2BBB4CEC9CFB5E7205254432053C5
:105D900065742054696D65206661696C65642E20A8
:105DA00052657365742121203C3C0D0A00000000FF
:105DB0000D0A3E3E20212120B5DAD2BBB4CEC9CF98
:105DC000B5E720525443205365742054696D652013
:105DD000737563636573732E202121203C3C0D0A8B
:105DE000000000000D0A2043505520526573657471
:105DF00020436F756E743A2564200D0A0000000080
:105E00000D0A20506F776572204F6E2052657365C2
:105E100074206F636375727265642E2E2E2E0D0AC8
:105E2000000000000D0A2045787465726E616C20D8
:105E30005265736574206F636375727265642E2E8C
:105E40002E2E0D0A000000000D0A204E6F206E65F8
:105E5000656420746F20636F6E6669677572652074
:105E60005254432E2E2E2E0D0A0000001FB503A9FA
:105E7000002000F053F80C49002000F081F803A93D
:105E8000002000F04BF808488278417800788DE8CF
:105E900007009DF80E309DF80D209DF80F1003A00F
:105EA00008F088FE1FBD00004C0100200D0A5B3287
:105EB00030253032642D253032642D253032642077
:105EC000253032643A253032643A253032645D0040
:105ED00008B5002000900C480168490612D44FF024
:105EE000FF31016043140168009A01F04001521C27
:105EF00000929A4201D00029F5D00068400601D4F2
:105F0000002008BD012008BD0C280040024801689F
:105F100021F08001016070470C28004010B50C464C
:105F20000E4909680E4A11400A0CE270C1F30423BD
:105F3000637001F03F03A370C1F342312170002868
:105F40000BD11046FFF7F2FDE0706078FFF7EEFD31
:105F50006070A078FFF7EAFDA07010BD0428004033
:105F60003FFFFF000449024600200968034B194027
:105F7000114200D0012070470C2800407FFF010033
:105F800010B50C460F4909680F4A1140C1F305428C
:105F90002270C1F30623637001F07F03A3704023D6
:105FA00003EA1141E17000280BD11046FFF7BEFD56
:105FB00020706078FFF7BAFD6070A078FFF7B6FD3B
:105FC000A07010BD002800407F7F7F0030B50E4DCF
:105FD000CA222A6053222A600B4B0B4A1C3B1C32FC
:105FE000002920F00404196800F0040004D02143C3
:105FF00019601168014303E0A143196011688143EE
:106000001160FF20286030BD2428004070B5124D7B
:1060100004460026CA20286053202860FFF758FF56
:10602000A8B10D481C38016821F0400101600168E9
:106030002268114301600848A168143801600168B2
:10604000A28841EA02410160FFF760FF0126FF20BC
:106050002860304670BD00002428004008B5034980
:1060600001EB80000090006808BD0000502800404F
:1060700070B514460D46264A0021002810684FEAE4
:10608000406005D000281CDA2078FFF74FFD19E0AA
:10609000002800DBE1702078FFF751FD06046078EE
:1060A000FFF74DFD46EA0026A078FFF748FD0643BE
:1060B000E07846EA0046207BFFF741FD46EA0060B3
:1060C00010E0E170207BFFF731FDA0782178E278C5
:1060D00040EA01406178090241EA02410843217B1C
:1060E00040EA0160A1680A4A084361680843CA217E
:1060F0001C32116053211160B5F5807F04D0111F4F
:106100000860FF20106070BD01491431F8E70000FD
:106110000828004070B588B0040060D04FF4003506
:106120002846FDF7A9F9049500258DF8145008209C
:106130008DF8150001268DF8166004A8FDF7ACF95E
:1061400029208DF8180003208DF819008DF81A0009
:106150008DF81B6006A8FEF7A1FF3602002130462D
:10616000FFF750FC1F490020FFF70AFF172C00D94A
:1061700017241C498B781A198DF8022048788DF85D
:10618000010009788DF800103C2A06D3401C8DF8D8
:1061900001003C3C18198DF802009DF801003C28D4
:1061A00004D18DF80150491C8DF800109DF80000B5
:1061B000182801D18DF8005031208DF80C00C0074F
:1061C000CDE901056A4631460020FFF751FF012164
:1061D0000803FFF7FBFE01213046FFF713FC08B070
:1061E00070BD00004C01002070B50C4601006078C5
:1061F0004FF000062AD0FFF799FCA078FFF796FC35
:10620000A078E17840EA014560782178000240EA10
:1062100041300543194CCA20206053202060FFF70D
:1062200057FE78B116480540144820380560FFF73E
:106230006DFE12481C380068800602D400F0ACF8ED
:1062400000B10126FF202060304670BDC10603D595
:1062500020F010000A306070E078FFF770FC050451
:106260006078FFF76CFC45EA0025A078FFF767FC33
:106270000543207845EA4035CCE70000242800405B
:106280003FFFFF002DE9F041244F0C4602004FF084
:10629000000620783A6831464FEA426204D0002A6C
:1062A00015DAFFF743FC13E0002A00DBE170FFF78B
:1062B00046FC05046078FFF742FC45EA0025A0781B
:1062C000FFF73DFC0543E07845EA00450AE0E17050
:1062D000A078217840EA01456078E178000240EA40
:1062E000014005430D4CCA201C342060532020601F
:1062F000FFF7EEFD68B10A48054008480838056018
:10630000FFF704FE3868800602D400F045F800B1BB
:106310000126FF2020603046BDE8F08108280040BB
:106320007F7F7F001FB503A90020FFF7F7FD0C4911
:106330000020FFF725FE03A90020FFF7EFFD084826
:106340008278417800788DE807009DF80E309DF83E
:106350000D209DF80F1003A008F02CFC1FBD0000BD
:106360004C0100200D0A204E6F772054696D653A6C
:10637000205B3230253032642D253032642D2530BB
:10638000326420253032643A253032643A25303286
:10639000645D0D0A0000000018B500200F49009050
:1063A000CA200860532008600C481838026822F0A0
:1063B000A0020260C4130268009B02F020025B1C72
:1063C0000093A34201D0002AF5D00068800601D5D1
:1063D000012000E00020FF220A6018BD24280040B0
:1063E00008B5034A02EB80000090016008BD000080
:1063F000502800402DE9F041284C294FA4F11A05FE
:1064000002262C61AE713846FBF72AF998B10622B4
:10641000A11F3846FCF756FFA01F286101782170A4
:10642000B0F80110A4F80110C178E1700179217170
:106430004079607113E055202070A4F8016020714C
:10644000AA2060710221201DFBF7DAF8E070062215
:1064500012493846FCF748FF124808F0ABFB607958
:1064600001270026552802D0AA2803D006E0AF70E5
:106470000DA001E0AE7012A008F09CFB2079552819
:1064800007D0AA286E7007D013A0BDE8F04108F02D
:1064900091BB6F7013A0F8E718A0F6E7AA000020E0
:1064A00080000808F0EE00080D0A20466F72636550
:1064B0006420636861726765204F6E0D0A000000FA
:1064C0000D0A20466F7263656420636861726765B8
:1064D000204F66660D0A00000D0A2046697273742B
:1064E0000D0A00000D0A204F70656E20746865204B
:1064F0006368617267696E670D0A00000D0A2043C8
:106500006C6F736520746865206368617267696E7B
:10651000670D0A0070B5AEB03422234920A8F9F700
:1065200007FE224E3046FBF79BF8C4B2201F6D4693
:10653000742811D821461EA008F03CFB221D694694
:106540003046FCF7BFFE2A1900211171291D1EA03B
:1065500008F030FB2EB070BD782C03D91CA008F0D9
:1065600029FBF7E720A8F9F723FEC4B255208DF8E0
:10657000B400ADF8B540214620A8FBF741F88DF8EE
:10658000B7002D980090224620A9281DF9F7D0FDCC
:106590000620FCF777FE0720FCF774FE221D6946F3
:1065A0003046FCF7A1FED5E708ED00088001080899
:1065B0000D0A205B53797374656D5D2853697A65A4
:1065C0003A256429000000002025730D0A00000010
:1065D0000D0A2048747470536572766572204F7688
:1065E00065720D0A0000000010B50B4C2046FBF749
:1065F00037F868B1062209492046FCF763FE0748D0
:10660000A0F10E01486002688A608088888110BD10
:1066100040F2E73010BD00004002080822010020CF
:1066200070B5174C2046FBF71BF828B35D221549BF
:106630002046FCF747FE1448C16800291ED01149C6
:10664000C1605D22A1F15D00F9F772FD0FA008F0B5
:10665000B1FA0C4D00245D3D05EB4400828D81882C
:106660000EA008F0A7FA641CE4B2142CF4D30DA019
:10667000BDE8704008F09EBA0BA0F9E770BD0000BD
:106680000001080861050020B00000202053746F4D
:10669000726520416E676C653A0D0A002025642CF6
:1066A000256420000D0A0000205265616420416EBF
:1066B000676C65204572726F725374617475730DE7
:1066C0000A00000010B5034804F006FE024900204D
:1066D000886010BDEDB0000878000020F0B58FB0E4
:1066E00004460CA90020FFF74BFC0DA90020FFF782
:1066F00015FC9DF836009DF832309DF831209DF84C
:1067000030108DE80F009DF837209DF8353026A118
:1067100004A802F5FA6205F087FF06F00DFD0646B3
:106720000020014606F0F6FC024626A1304606F09F
:10673000D1FC0020014606F0EDFC024622A13046C5
:1067400006F0C8FC2046F9F7E5FF06F0E3FC024638
:106750001EA1304606F0BEFC04A806F0F5FC024679
:106760001BA1304606F0B6FC304606F087FD054614
:10677000F9F71EFD87B2304606F0F4FC294617A053
:1067800008F04AFA2346002239461548009508F0D9
:1067900011FA284606F0E6FE06F0D0FE014611A0EA
:1067A00008F008FA0FB0F0BD25642D253032642DB5
:1067B0002530326420253032643A253032643A255F
:1067C00030326400434D44004469720053657100E7
:1067D0004461746554696D650000000025730D0007
:1067E000ACEE0008204D656D6F7279207574696C90
:1067F000697A6174696F6E3A256425250D0A0D0A60
:1068000000000000F0B58FB0064606F095FC054686
:1068100000202F4906F07EFC02462EA1284606F0F5
:1068200059FC0020014606F075FC02462AA12846C4
:1068300006F050FC3046F9F76DFF06F06BFC02469F
:1068400026A1284606F046FC0DA90020FFF798FB7C
:106850000EA90020FFF762FB9DF83A009DF8363044
:106860009DF835209DF834108DE80F009DF83B20F1
:106870009DF839301AA104A802F5FA6205F0D4FE99
:1068800004A806F061FC02461CA1284606F022FC82
:10689000284606F0F3FC0446F9F78AFC87B228463E
:1068A00006F060FC214618A008F0B6F9334609222C
:1068B000394616A008F07EF9204606F053FE06F091
:1068C0003DFE014621A008F075F90FB0F0BD0000B3
:1068D00000002240434D440044697200536571003A
:1068E00025642D253032642D253032642025303248
:1068F000643A253032643A2530326400446174656C
:1069000054696D650000000025730D003C2D203C8E
:106910002D203C2D2053544D3332546F486933356C
:1069200031394578697450726F63657373285369A0
:106930007A653A25642928434D443A256429285329
:1069400065713A2564290D0A00000000204D656D2F
:106950006F7279207574696C697A6174696F6E3AC7
:10696000256425250D0A0D0A00000000F0B58FB042
:10697000044606F0E1FB064600204FF0804106F099
:10698000C9FB02462CA1304606F0A4FB00200146BC
:1069900006F0C0FB024629A1304606F09BFB2046CC
:1069A000F9F7B8FE06F0B6FB024625A1304606F020
:1069B00091FB0DA90020FFF7E3FA0EA90020FFF7D5
:1069C000ADFA9DF83A009DF836309DF835209DF8D7
:1069D00034108DE80F009DF83B209DF8393019A147
:1069E00004A802F5FA6205F01FFE04A806F0ACFB4D
:1069F00002461BA1304606F06DFB304606F03EFC19
:106A00000546F9F7D5FB87B2304606F0ABFB2946C1
:106A100016A008F001F923460222394614A008F016
:106A2000C9F8284606F09EFD06F088FD01461FA025
:106A300008F0C0F80FB0F0BD434D44004469720047
:106A40005365710025642D253032642D2530326464
:106A500020253032643A253032643A2530326400E1
:106A60004461746554696D650000000025730D0074
:106A70003C2D203C2D203C2D2053544D3332546F5F
:106A800048693335313947657453746174757320BF
:106A90002853697A653A25642928434D443A256488
:106AA00029285365713A2564290D0A00204D656D2A
:106AB0006F7279207574696C697A6174696F6E3A66
:106AC000256425250D0A0D0A000000002DE9F84F68
:106AD0008146002406F030FB00900020504906F06B
:106AE00019FB02464FA1009806F0F4FA0020014677
:106AF00006F010FB02464CA1009806F0EBFA48465F
:106B0000F9F708FE06F006FB024648A1009806F0D9
:106B1000E1FAFDF797F805001FD006F00DFB0646D9
:106B2000324643A1009806F0D5FA95F85400F9F7DB
:106B3000F1FD06F0EFFA02463FA1304606F0CAFA30
:106B400006F0E0FA834602463CA1304606F0C2FA5F
:106B500095F854606FF07E0840E0009806F002FB64
:106B60003046BDE8F84F06F0FDBC00BF06F0E4FA81
:106B70008246601CF9F7CEFD06F0CCFA024631A140
:106B8000504606F0A7FA05EB4407B8887F38404521
:106B900001DA404602E07F2800DD7F20F9F7A9FDF9
:106BA00006F0B8FA024628A1504606F093FAB88DCE
:106BB000002801DA002002E03C2800DD3C20F9F743
:106BC00098FD06F0A7FA024620A1504606F082FA88
:106BD0005146584606F06FFA641CE4B2B442C5D37D
:106BE000009806F04BFB0646F9F7E2FA84B20098EB
:106BF00006F0B8FA314616A008F00EF84B460B2204
:106C0000214614A0009607F0D5FF304606F0AAFCF6
:106C100006F094FCBDE8F84F01461CA007F0CABF7F
:106C200000002640434D44004469720053657100E2
:106C300050617261000000004E756D00506F696E0A
:106C400074000000500000004800000056000000E2
:106C500025730D003C2D203C2D203C2D2053544D00
:106C60003332546F486933353139202853697A6596
:106C70003A25642928434D443A25642928536571EF
:106C80003A25642925730D0A00000000204D656D2A
:106C90006F7279207574696C697A6174696F6E3A84
:106CA000256425250D0A0D0A00000000F0B58FB0FF
:106CB000064606F041FA054600202F4906F02AFA5A
:106CC00002462EA1284606F005FA0020014606F0ED
:106CD00021FA02462AA1284606F0FCF93046F9F7C7
:106CE00019FD06F017FA024626A1284606F0F2F929
:106CF0000DA90020FFF744F90EA90020FFF70EF9B7
:106D00009DF83A009DF836309DF835209DF83410F6
:106D10008DE80F009DF83B209DF839301AA104A89A
:106D200002F5FA6205F080FC04A806F00DFA0246AE
:106D30001CA1284606F0CEF9284606F09FFA044624
:106D4000F9F736FA87B2284606F00CFA214618A061
:106D500007F062FF33460822394616A007F02AFFE3
:106D6000204606F0FFFB06F0E9FB014620A007F0F5
:106D700021FF0FB0F0BD000000002040434D440053
:106D8000446972005365710025642D253032642DED
:106D90002530326420253032643A253032643A2579
:106DA000303264004461746554696D650000000010
:106DB00025730D003C2D203C2D203C2D2053544D9F
:106DC0003332546F486933353139506F7765724FBC
:106DD0006666202853697A653A25642928434D441C
:106DE0003A256429285365713A2564290D0A000063
:106DF000204D656D6F7279207574696C697A617464
:106E0000696F6E3A256425250D0A0D0A0000000001
:106E1000F0B58FB0064606F08FF9054600203849D8
:106E200006F078F9024637A1284606F053F900200B
:106E3000014606F06FF9024633A1284606F04AF9EA
:106E40003046F9F767FC06F065F902462FA128469F
:106E500006F040F90DA90020FFF792F80EA90020D6
:106E6000FFF75CF89DF83A009DF836309DF8352024
:106E70009DF834108DE80F009DF83B209DF83930C7
:106E800023A104A802F5FA6205F0CEFB04A806F0DF
:106E90005BF9024625A1284606F01CF906F04CF9DC
:106EA0000446224624A1284606F014F9FCF730FED9
:106EB000F9F730FC06F02EF9024620A1204606F034
:106EC00009F9284606F0DAF90446F9F771F987B2AC
:106ED000284606F047F9214619A007F09DFE3346E3
:106EE0000822394617A007F065FE204606F03AFB57
:106EF00006F024FB014623A007F05CFE0FB0F0BDB6
:106F000000001840434D440044697200536571000D
:106F100025642D253032642D253032642025303211
:106F2000643A253032643A25303264004461746535
:106F300054696D65000000004D736700506F730069
:106F400025730D003C2D203C2D203C2D2053544D0D
:106F50003332546F4869333531392054616B6520C1
:106F6000612050686F746F202853697A653A2564F0
:106F70002928434D443A256429285365713A2564EC
:106F8000290D0A00204D656D6F7279207574696C4A
:106F9000697A6174696F6E3A256425250D0A0D0AB8
:106FA000000000002DE9F04F93B08946824606F0BC
:106FB000C3F811904846F9F7ADFB06F0ABF802466E
:106FC0006FA1119806F086F80020014606F0A2F89D
:106FD00002466CA1119806F07DF85046F9F79AFB2D
:106FE00006F098F8024668A1119806F073F804A913
:106FF0000020FEF7C5FF05A90020FEF78FFF9DF8D2
:1070000016009DF812309DF811209DF810108DE8A3
:107010000F009DF817209DF815305CA106A802F519
:10702000FA6205F001FB06A806F08EF802465EA1A2
:10703000119806F04FF8FCF705FE044606F07CF8C0
:1070400005462A465BA1119806F044F814F8540F3F
:10705000F9F760FB06F05EF8024658A1284606F0F4
:1070600039F8B4F80100F9F755FB06F053F8024679
:1070700053A1284606F02EF8607900902379E27833
:1070800050A10EA805F0D0FA0EA806F05DF8024651
:1070900050A1284606F01EF8207A0090E379A279E4
:1070A00048A10EA805F0C0FA0EA806F04DF8024659
:1070B0004AA1284606F00EF806F024F88346024658
:1070C00047A1284606F006F814F85469002529E07F
:1070D00006F032F88046681CF9F71CFB06F01AF837
:1070E000024641A1404605F0F5FF04EB4507B8888C
:1070F0007F30F9F7FEFA06F00DF802463BA1404654
:1071000005F0E8FFB88DF9F705FB06F003F8024635
:1071100037A1404605F0DEFF4146584605F0CBFF5B
:107120006D1CADB2B542D3D3119806F0A7F8044652
:1071300006F004FA01462FA007F03CFD2046F9F7BF
:1071400037F885B2119806F00DF8214631A007F006
:1071500063FD53464A4629462FA007F02BFD2146E2
:107160003CA007F027FD204606F0FCF906F0E6F902
:10717000014620A007F01EFD13B0BDE8F08F00000F
:10718000434D4400446972005365710025642D2508
:107190003032642D2530326420253032643A253077
:1071A00032643A25303264004461746554696D6517
:1071B0000000000050617261000000004E756D001B
:1071C000496E7400253032643A253032643A2530F5
:1071D000326400005374617274000000456E6400F4
:1071E000506F696E740000005000000048000000FD
:1071F00056000000204D656D6F7279207574696CC2
:10720000697A6174696F6E3A256425250D0A0D0A45
:107210000000000025730D003C2D203C2D203C2D4E
:107220002053544D3332546F53544D3332205465F0
:10723000737420436D642853697A653A256429285C
:10724000434D443A256429285365713A2564290D34
:107250000A00000025730D0A000000002DE9FC4122
:1072600001212720FEF7A2FA00248DF805404FF6F1
:107270007F708DF804400226474F00908DF807601C
:1072800001258DF8065069463846FCF7C9FA8DF895
:1072900005404FF6FF708DF80440DFF80081009044
:1072A0008DF807608DF8065069464046FCF7B8FA3D
:1072B0008DF8054068038DF8044000908DF8076054
:1072C0008DF8065069463648FCF7AAFA8DF8054055
:1072D00003208DF8044000908DF807608DF806506B
:1072E00069463048FCF79CFA8DF8045018208DF858
:1072F000064000908DF807508DF8055069464046CD
:10730000FCF78EFA08214046FCF7D6FA10214046D9
:10731000FCF7D2FA8DF804508DF80640EE038DF894
:10732000075000968DF8055069463846FCF778FA04
:1073300031463846FCF7C0FA8DF8054010208DF82C
:10734000044000908DF807508DF806506946384685
:10735000FCF766FA1448017991B905718DF804506B
:1073600080208DF8064000908DF807508DF805506C
:1073700069463846FCF754FA80213846FCF79AFAF9
:107380004FF47A742146094803F05EFF214608480D
:1073900003F05AFFBDE8FC810000024000040240F7
:1073A00000080240001402402801002069B00008D3
:1073B00059AF000870473EB500238DF80030062411
:1073C0008DF801408DF802308DF80300080A8DF821
:1073D00004008DF80510100A8DF806008DF80720BE
:1073E00008216846FAF717F98DF80800000A8DF8A9
:1073F00009000A21684604F099FD3EBD70B50446B7
:107400008089B2B0402853D82046FCF75BFB054684
:1074100020886E46000A8DF8000020788DF8010063
:10742000606804F10F01000E8DF802006068000C26
:107430008DF80300A088000A8DF8040020798DF8EB
:10744000050000208DF806006089000A8DF807000D
:10745000A07A8DF80800A089000A8DF80900207B29
:107460008DF80A00A07B8DF80B00A28906F10C00B4
:10747000F8F75EFEA08964230C3080B219AA355457
:10748000401C81B26846FEF763F90546014619A81B
:1074900004F04CFD002419AE05E0315D05A007F0B5
:1074A00089FB641CE4B2AC42F7D304A007F082FB72
:1074B00032B070BD25303258200000000D0A0000A7
:1074C0002DE9F0418189202967D8364C344E028855
:1074D000617856F821301A8056F8213042685A6097
:1074E00056F82130027A1A7256F8213042895A81B0
:1074F00056F8213082899A8156F82130827B9A731E
:1075000056F82130828900F10F0103F10F00F8F7DE
:107510000FFE65780027681CC0B26070052800D394
:10752000677061782078814205D1401CC0B220701C
:10753000052800D32770E06860BB606841691A487D
:1075400003F082FEE06056F8250001886068018340
:1075500056F825104968C16156F82510097A80F857
:10756000201056F825104989418456F8251089893C
:10757000818456F82510897B80F8261056F825104E
:1075800027308A890F31F8F7D3FD606841681830D9
:10759000884727610120BDE8F0810020FBE700005B
:1075A000B40400207800002009EB000870B5094CF5
:1075B000E068FFF793F80848002505704570E1681A
:1075C0004160491CE1604CF25031044803F03CFE3C
:1075D000257170BD5C000020F401002071B300082B
:1075E00070B50A4C2069FFF7C1F90948022100254E
:1075F0000173457321690161491C216142F21071D7
:10760000044803F021FEA57070BD00005C0000205E
:10761000F40100209DB3000870B50A4CA069FFF783
:1076200045FB09480821002501764576A169C1611D
:10763000491CA16141F28831044803F005FE6571DF
:1076400070BD00005C000020F4010020F5B30008CC
:1076500070B50A4C6069FFF7DBFB0948062100257D
:1076600000F8301F457061694160491C616142F258
:107670001071044803F0E8FDE57070BD5C00002067
:10768000F4010020C9B300082DE9F04FBFB0002677
:1076900005463C963D9605F04FFD29902878F9F770
:1076A00039F805F037FD0246F7A1299805F012FDDB
:1076B0000020F64905F02EFD0246F5A1299805F0B7
:1076C00009FD6868F9F726F805F024FD0246F1A1E6
:1076D000299805F0FFFC0020014605F01BFD02463D
:1076E000EDA1299805F0F6FC3AA90020FEF748FC28
:1076F0003BA90020FEF712FC9DF8EE009DF8EA3051
:107700009DF8E9209DF8E8108DE80F009DF8EF2026
:107710009DF8ED30E1A12AA802F5FA6204F084FF99
:107720002AA805F011FD0246E3A1299805F0D2FC34
:1077300028786FF07E090F286ED2DFE800F06D0820
:107740006D4B6E6DE36D6D6D6DE76D6DFD0005F05C
:10775000F3FC04462246DBA1299805F0BBFCFCF7AC
:10776000BFFAF8F7D7FF05F0D5FC0246D6A12046B0
:1077700005F0B0FCFCF7F8FA10F1FF4F00D3D44845
:10778000F9F721F805F0C6FC0246D2A1204605F023
:10779000A1FCFCF7BDF9F8F7BDFF05F0BBFC024604
:1077A000CDA1204605F096FC3DA93CA8FCF756FA71
:1077B0003C98F9F708F805F0ADFC0246C7A1204651
:1077C00005F088FC3D98F8F7FEFF05F0A3FC0246A3
:1077D000C5A11EE005F0B0FC04462246B9A12998D7
:1077E00005F078FCFCF79AF908B1C2A000E0C2A04D
:1077F00005F0AAFC0246C1A1204605F06BFCFCF78F
:1078000099F908B1BBA000E0BBA005F09DFC0246C1
:10781000BDA1204605F05EFC05E1FCF749FA0446EF
:1078200005F08AFC82465246A6A1299805F052FC32
:107830002068F8F76FFF05F06DFC0246B5A15046D1
:1078400005F048FC217CE07BCDE90001A37B627B55
:10785000B2A135A804F0E8FE35A805F075FC024693
:10786000B1A1504605F036FCB4F81100F8F752FF0C
:1078700005F050FC0246ADA1504605F02BFCDFF8A8
:10788000B4924846F9F7ECFEC7B2381F0DF1100864
:10789000742808D83A1D41464846FBF713FD08EB0B
:1078A0000700067108E0782F06D980214046F8F7D6
:1078B00058FCA1A007F07EF908F1040005F044FC93
:1078C0000246A2A1504605F005FCA08AF8F722FF67
:1078D00005F020FC0246A0A1504605F0FBFBE08A23
:1078E000F8F718FF05F016FC02469FA1504605F078
:1078F000F1FB207BF8F70EFF05F00CFC02469EA181
:10790000504687E79FA007F055F98CE0FCF79AF9FD
:10791000040073D005F010FC06463246A2A1299857
:1079200005F0D8FB14F8540FF8F7F4FE05F0F2FB5D
:1079300002469FA1304600E096E005F0CBFBB4F88C
:107940000100F8F7E7FE05F0E5FB024699A1304695
:1079500005F0C0FB607900902379E27896A124A815
:1079600004F062FE24A805F0EFFB024696A1304623
:1079700005F0B0FB207A0090E379A2798EA124A8CB
:1079800004F052FE24A805F0DFFB024690A1304629
:1079900005F0A0FB05F0B6FB834602468DA13046FC
:1079A00005F098FB14F8547900263AE005F0C4FB82
:1079B0008246701CF8F7AEFE05F0ACFB024687A1CC
:1079C000504605F087FB04EB4608B8F804007F3802
:1079D000484501DA484602E07F2800DD7F20F8F7BD
:1079E00088FE05F097FB02467DA1504605F072FB2C
:1079F000B8F82C00002802DA002003E031E03C282F
:107A000000DD3C20F8F775FE05F084FB024675A109
:107A1000504605F05FFB5146584605F04CFB761C7E
:107A2000F6B2BE42C2D3299805F028FC0446F8F706
:107A3000BFFB86B2299805F095FB21466AA007F0A6
:107A4000EBF800942A78314668A06B6807F0B2F82A
:107A5000204605F087FD05F071FD014671A007F095
:107A6000A9F83FB0BDE8F08F05F066FB044622465A
:107A700074A1299805F02EFBFCF76EF87F38484575
:107A800001DA4846E5E0E1E0434D44000000F03F04
:107A900044697200536571004572720025642D259A
:107AA0003032642D2530326420253032643A25305E
:107AB00032643A25303264004461746554696D65FE
:107AC000000000004D736700426174566F6C000047
:107AD000000080BF496C6C00506F73004C6174698A
:107AE00074756465000000004C6F6E67697475649E
:107AF000650000004F6E00004F666600436F6E50D9
:107B00006F77657200000000475053506F776572C1
:107B100000000000446576696365000025642E2539
:107B2000642E25642E25640049500000506F727445
:107B300000000000800108082048747470536572CA
:107B4000766572204F7665720D0A00004874747075
:107B5000536572766572000050686F746F496E7479
:107B6000657256616C00000044617461496E746511
:107B70007256616C000000004E6F536C6565704674
:107B80006C6167000D0A20486933353139CAD5B5B3
:107B9000BDC5C4D5D5D6B8C1EE2CBBD8B8B4D3A614
:107BA000B4F0210D0A000000506172610000000075
:107BB0004E756D00496E7400253032643A253032BE
:107BC000643A25303264000053746172740000001E
:107BD000456E6400506F696E740000005000000034
:107BE000480000005600000025730D003C2D203C8D
:107BF0002D203C2D2053656E6420634A736F6E20E8
:107C000041636B2853697A653A2564292028436DBE
:107C1000643A256429285365713A25642925730D32
:107C20000A000000204D656D6F7279207574696CD3
:107C3000697A6174696F6E3A256425250D0A0D0A0B
:107C40000000000050545A506F7300007F2800DD80
:107C50007F20F8F74EFD05F05DFA024606A12046AA
:107C600005F038FAFCF736F8F8F754FD05F052FA4B
:107C7000024603A1CDE5000048416E676C65000037
:107C800056416E676C6500000149487070470000FE
:107C9000900000200149087070470000B0000020EB
:107CA0000149087070470000C40000200149887035
:107CB00070470000C40000200149087070470000B0
:107CC0005C00002001498872704700005C000020C1
:107CD00010B504461A2801D91A2400E0A4B145F2CF
:107CE0005550FCF7BFFA0620FCF7B0FAC4EBC4000D
:107CF00000EB44104FF6FF7101EA8000FCF7ACFA8C
:107D0000FCF79CFAFCF792FABDE81040012101480B
:107D100003F09ABA6DC20008064AFF2807D010285F
:107D200004D2012181401088014311807047002056
:107D3000108070471401002070B5002868D0354CC1
:107D40005521E26811705921A2F8011090F85410E1
:107D500082F85410B0F85510A2F8551090F85A1047
:107D6000182902D3082180F85A1090F85B300021BE
:107D70003C2B01D380F85B1090F85C303C2B01D396
:107D800080F85C1090F85730182B02D3122380F83B
:107D9000573090F858303C2B01D380F8581090F8A9
:107DA00059303C2B01D380F8591010F8571F82F836
:107DB0005710417882F85810817882F85910C178AC
:107DC00082F85A10017982F85B10407982F85C00E1
:107DD0005921101DF9F714FCE168C8700420FBF765
:107DE00051FA0520FBF74EFA0B4D5D222846E1685B
:107DF000FBF77AFA5D2209492846FBF763FA07493F
:107E0000E160BDE870405D22A1F15D00F8F790B936
:107E100070BD0000B00000200001080861050020CE
:107E20000149C872704700005C000020014AC2E9A5
:107E300004017047C4000020014A9070D17070475F
:107E400050000020014908707047000044010020E4
:107E500001494870704700005C0000200A4670B578
:107E600001461F48012304683CB91E4C04601E4CA7
:107E700044601E4C84601E4CC460194D0024103DAB
:107E800055F82460964205D150F8242001209047EF
:107E9000601C70BD641C042CF2D3002455F82460CF
:107EA0009EB1641C042CF9D3642902D96420B1FB6F
:107EB000F0F311461846F9F733FA040008D0611EB2
:107EC0000CA006F077FE201D70BD45F82420DBE7EE
:107ED0004FF0FF3111A006F06DFE002070BD0000D4
:107EE0004819002035B90008C9B900085DBA000872
:107EF000F1BA00085B54696D65725D2D3E436F6E8B
:107F0000737420416C6C6F632053686172655469AF
:107F10006D65723A25640D0A00000000205B54690B
:107F20006D65725D2D3E54696D6572732046756C8A
:107F30006C210D0A00000000014908727047000022
:107F40005C00002070B5C2B005460068009068680B
:107F50000190A868029001208DF80600BDF8090084
:107F6000C4B206F0CBFDADF8090005F10C012246C4
:107F70000E4603A8F8F7DCF804F10C00C5B2294658
:107F80006846F9F73DFB0DF805006D1CE9B268463F
:107F9000F9F7A0FF55208DF80001ADF80141214609
:107FA0003046F9F72DFB8DF80301409820AD209065
:107FB00022463146281DF8F7BBF80620FBF762F988
:107FC0000720FBF75FF9221D20A90448FBF78CF975
:107FD00000202919087142B070BD00008001080816
:107FE00030B589B0044655208DF800001D20ADF84D
:107FF000010001462046F9F703FB8DF803002068D5
:10800000B0F1805F02D3002009B030BD1D222146AF
:1080100001A8F8F78DF80C4D092269462846FBF7B0
:108020008BF92846F9F71CFB084C40B1212204F1DA
:1080300038012846FBF746F904F13C0000E004480B
:1080400020630120E0E70000000008087401002020
:10805000D4EC00082DE9F04186B0FEF7C5FA0146E0
:1080600058A006F0A7FD00245B4F1E2526464FF4BE
:10807000D87800BFB4FBF5F005FB104008B9FCF759
:10808000DDF8039607EBC400082203A90496FBF76A
:1080900019F99DF812009DF81310C8427ED09DF882
:1080A00011009DF810109DF80E2000EB01209DF8A6
:1080B0000F100092CDE901109DF80D309DF80C20B5
:1080C000214646A006F076FD9DF81300C00702D0B9
:1080D0004BA006F06FFD9DF81300800702D54CA061
:1080E00006F068FD9DF81300400702D54CA006F08D
:1080F00061FD9DF81300000702D54DA006F05AFD62
:108100009DF81300C00602D54CA006F053FD9DF863
:108110001300800602D54CA006F04CFD9DF813001C
:10812000400602D54CA006F045FD9DF81300000660
:1081300002D54CA006F03EFD9DF81200C00702D00B
:108140004BA006F037FD9DF81200800702D54CA029
:1081500006F030FD9DF81200400702D54CA006F055
:1081600029FD9DF81200000702D54CA006F022FD63
:108170009DF81200C00602D54BA006F01BFD9DF82D
:108180001200800602D54BA006F014FD9DF81200E7
:10819000400602D54AA006F00DFD00E009E09DF87A
:1081A0001200000602D549A006F004FD09A006F061
:1081B00001FD641CA4B24445FFF45CAF06B0BDE809
:1081C000F081000020506F696E7465722041646414
:1081D000723A25640D0A00008002080825303364D5
:1081E0002E282564295B253032643A253032643AE2
:1081F000253032645D20566F6C3A25642000000003
:10820000204E6F204D4539303973207C000000002E
:10821000205765616B205369676E616C207C00009C
:1082200020436F6E736F6C65204F6E207C000000E2
:108230002054696D656F7574207C00002053756350
:1082400063657373207C000020506F737420466157
:10825000696C207C0000000020505050204661696D
:108260006C207C00204E6F2043617264207C0000F3
:108270002050686F746F204661696C207C0000009C
:10828000204E6F20486933353139207C00000000D2
:10829000204E6F20576F726B207C00002053656E5C
:1082A000736F72457272000020475053204F4B206D
:1082B0007C00000020475053204661696C207C0000
:1082C0002048617264457272207C00002053746102
:1082D0007274207C0000000002480121017000211E
:1082E000817170479000002010B5074CE07801289C
:1082F00008D0FCF7CDF8142004F0FAFF012020701C
:108300000020E07010BD00005400002010B5FFF701
:10831000E3FFBDE81040FFF7E7BF00002DE9FC4197
:1083200001212720FDF742FA00248DF805404FF681
:108330006F708DF804400226DFF8CC8000908DF835
:10834000076001258DF8065069464046FBF768FA3C
:108350008DF805404FF6FE708DF804402B4F0090CD
:108360008DF807608DF8065069463846FBF758FAD5
:108370008DF8054010208DF8044000908DF80750CE
:108380008DF8065069464046FBF74AFA8DF80540DD
:1083900068038DF8044000908DF807608DF8065052
:1083A00069461B48FBF73CFA8DF8054003208DF821
:1083B000044000908DF807608DF806506946154816
:1083C000FBF72EFA8DF804408DF806508DF8075013
:1083D00000958DF8055069463846FBF721FA8DF86F
:1083E000045080208DF8064000908DF807608DF8CD
:1083F000055069464046FBF713FA80214046FBF7DB
:1084000059FABDE8FC81000000000240000402406F
:10841000000802400014024000B58FB00EA90020F1
:10842000FDF77CFD0DA90020FDF7AAFD0EA9002097
:10843000FDF774FDFBF754FC9DF83A108DF8001021
:108440009DF834108DF801109DF835108DF802104C
:108450009DF836108DF80310010A8DF804108DF880
:10846000050007480088010A8DF806108DF80700FE
:10847000684604F05FF8FF20FFF74EFC0FB000BD28
:1084800014010020F0B50E46074600231CE000BF93
:1084900006EB430116F813004D7806F085FB3038E3
:1084A000C4B2092C01D9E41FE4B2284606F07CFBD3
:1084B0003038C5B2092D01D9ED1FEDB204EB8400AF
:1084C00005EB4000F8545B1C9342E1DBF0BD00007B
:1084D000F0B50E46074600231AE000BF06EB430145
:1084E00016F813004D7806F05FFB3038C4B2092C43
:1084F00001D9E41FE4B2284606F056FB3038C5B275
:10850000092D01D9ED1FEDB205EB0410F8545B1CE9
:108510009342E3DBF0BD000010B50446FDF782F99D
:108520000120FDF721FA2920FDF7F2F90028FAD001
:108530002046FDF71FFA0020FDF7FEF90020FDF7A9
:1085400023FA0020FDF72AFA0020FBF741F9012069
:10855000FBF730F90020FDF74BFA0348016811F0F2
:108560000C0FFBD110BD00000838024000B585B0EB
:108570004FF44040FFF7D0FF01A8FDF775F941F235
:108580006200FAF747FEFEF769FEFCF75EFD4FF466
:10859000E13003F031FB19A0019906F00BFB1EA29C
:1085A00020A123A006F006FBFDF718FBFDF754FA07
:1085B0000F20FFF78DFBFCF735F8F8F707FFFDF705
:1085C00019FFFBF755FEFBF7CBFFFBF77DFFF9F734
:1085D000B7F808B9F9F7B4F869460020FDF7D0FC00
:1085E0009DF802309DF801209DF8001019A006F0BA
:1085F000E1FAF8F7CDFE05B000BD00000D0A2053EA
:108600005953434C4B5F4672657175656E63793A99
:10861000202564487A0D0A0031323A31303A303040
:10862000000000004D6179203134203230323000BA
:108630000D0A2050726F6A656374204275696C641C
:1086400020446174613A202573202D2025730D0A82
:10865000000000000D0A205B25302E32643A2530E0
:108660002E32643A25302E32645D204C6F77706F65
:108670007765722043616D6572610D0A000000002C
:108680002DE9FC411D468DF802208DF801108DF872
:108690000300DDE9086701208DF80000694600202D
:1086A000FDF7A2FD8DF8067004468DF805608DF883
:1086B000045001A90020FDF7E5FD0146224606A071
:1086C00006F078FAFDF768FE642004F011FEFDF76D
:1086D00029FEBDE8FC810000202D2D2D4C6F636B21
:1086E0002D696E2054696D652D2D2D5265743A25C6
:1086F000642025640D0A000070470000024901480B
:10870000086070470400FA050CED00E070B53821F0
:108710001F48F7F726FD1F4C2046F8F7A1FF1C4D18
:1087200050B1212205F138012046FAF7CBFD05F1C1
:108730003C00286318A002E02048286320A006F02F
:1087400039FA1E481D3068634288018823A006F06C
:1087500031FA0024696B201D095C29A006F02AFA71
:10876000641CE4B2082CF5D326A006F023FA0024FA
:10877000696B04F10C00095C21A006F01BFA641C73
:10878000E4B2082CF4D3BDE8704021A006F012BA80
:1087900074010020000008080D0A205B53797374EF
:1087A000656D5D5265616420436F6E666967205335
:1087B000756363657373210D0A000000D4EC000833
:1087C0000D0A205B53797374656D5D446566617550
:1087D0006C7420436F6E6669670D0A000D0A205B9A
:1087E00053797374656D5D536F66743A2564202008
:1087F000486172643A2564202054696D653A00002E
:1088000025630000202056657273696F6E733A000D
:108810000D0A00002DE9F04101218C07204600F0EF
:1088200007F900281DD00121204600F082F80E4FE4
:108830000024A7F12006A04606F1100556F82410E2
:1088400059B155F82400401C45F8240057F824205D
:10885000904202D345F824808847641CE4B2042C7B
:10886000ECD3BDE8F08100007819002010B5094C68
:108870000121204600F0DCF800280AD00121204622
:1088800000F057F804480068002802D0BDE8104006
:10889000004710BD000400403819002010B5094CF5
:1088A0000121204600F0C4F800280AD0012120460A
:1088B00000F03FF804484068002802D0BDE81040AE
:1088C000004710BD000800403819002010B5094CC1
:1088D0000121204600F0ACF800280AD001212046F2
:1088E00000F027F804488068002802D0BDE8104056
:1088F000004710BD001000403819002010B5094C89
:108900000121204600F094F800280AD001212046D9
:1089100000F00FF80448C068002802D0BDE81040FD
:10892000004710BD0014004038190020C9430182DF
:108930007047C943018270470029018802D041F085
:10894000010101E021F001010180704710B5B0F193
:10895000804F09D02E4988420DD101210220FCF719
:108960003DFF002102202DE001210846FCF736FFE3
:108970000021012026E02749884206D10121042058
:10898000FCF72CFF002104201CE02349884206D17B
:1089900001210820FCF722FF0021082012E01F49D6
:1089A000884206D101211020FCF718FF0021102079
:1089B00008E01B49884209D101212020FCF70EFF65
:1089C00000212020BDE81040FCF708BF154988426F
:1089D00006D101210420FCF719FF0021042012E038
:1089E0001149884206D101210820FCF70FFF002120
:1089F000082008E00D49884209D101211020FCF728
:108A000005FF00211020BDE81040FCF7FFBE10BD9F
:108A10000004004000080040000C0040001000402E
:108A20000014004000080140000C0140001001400B
:108A300002460020138A92890B4202EA010202D008
:108A4000002A00D001207047002A828901D00A4301
:108A500000E08A43828170470288B0F1804F08D0DD
:108A60000F4B984205D00F4B984202D00E4B9842C4
:108A700003D122F070034A881A430C4B984206D067
:108A80000B4B984203D022F440730A891A430280A8
:108A90004A68C2620988018501218182704700000D
:108AA0000004004000080040000C0040001000409E
:108AB000001400402DE9F04F89B00025F94C0695CF
:108AC0000795E07878BB0120E070FBF7BBF8B0F8C1
:108AD0005500052801D81E2000E07820F1492062C9
:108AE00009310020FDF74CFAEE4900200D31FDF769
:108AF00015FA20202071FBF7B9F86061FBF7B6F892
:108B0000A061FBF7B3F8E061E6480930827841786C
:108B100000788DE80700E3480D3083784278C1780B
:108B2000E1A006F047F8FBF7CFF848B10020FFF7C7
:108B300003FAFBF79BF86061FBF798F8A061FCE390
:108B4000607810260E27DFF88C834FF0070A4FF06D
:108B500002094FF00C0B14287AD2DFE800F0900ADB
:108B60001293C2D7FFFDFCFBFAF9F8F7F6F5F4F320
:108B7000F2F184F80190FFF7C9FBD7A006F01AF8CC
:108B80007AE0FBF773F8A2466169FAF74DFB00281B
:108B900075D007A906A8FBF761F80798F7F713FE49
:108BA00006460F460698F7F70EFE04468946FBF781
:108BB00097F88346FBF7D8F8F7F705FECDE90249A9
:108BC0000246CDF800B00B46CBA0CDE9046705F016
:108BD000F1FFB44900200D31FDF7A0F9B1489AF832
:108BE00004100D3054468078884219D02071FDF76A
:108BF0003DF9CBA005F0DEFF46463046F9F774F8A4
:108C00000028FAD1FBF7A0FE642004F071FBFAF70C
:108C1000CBFE642004F06CFBA5710120607104E0C0
:108C2000A079022801D3A5716571FBF70BF818B381
:108C300090F854100320012960D80AD1A1780029A6
:108C40005CD045462846F9F74FF80028FAD106E0EF
:108C500015E045462846F9F747F80028FAD1B6A0AE
:108C600005F0A8FF042060700120FFF713F86420CE
:108C700004F03EFBFBF768FEFAF7F8FF606109B00D
:108C8000BDE8F08FFAF7DEFF90F8540018B3FAF75A
:108C90004BFF48B9FAF7EAFF6169FAF7C5FA092804
:108CA00002D860790028EAD1FDF7E0F8642004F0EA
:108CB0001FFBFBF761FE04206070FAF7D7FF6061CD
:108CC000A07808B90120A070FAF72EFF0028D6D0AE
:108CD000FAF724FED3E784F801A00120FEF7DAFFBB
:108CE000CDE7FAF7C3FF6061607940B1FAF722FF80
:108CF00028B1FAF713FF0028C1D105206AE2FAF77C
:108D00000DFF0028BBD184F801A0B5E7FAF7AEFF4C
:108D10006169FAF789FA0228B1D98FA005F04AFFF4
:108D200045462846F8F7E0FF0028FAD1FAF79EFFFB
:108D30006061FAF739FEFAF799FF60610620DBE21D
:108D400078E363E3DCE2CEE2B5E263E24DE232E2F5
:108D500002E298E18CE03FE01AE0FFE7FAF786FFD5
:108D60006169FAF761FA46280BD9FAF77FFF60616B
:108D700084F801A0FAF700FE0D20FEF7CDFF7EA0DB
:108D80006DE0FAF7D7FE0028A4D184F801A076E7B9
:108D9000FAF76CFF6169FAF747FA02289AD90020BE
:108DA000FEF78AFFFBF798F8FDF760F881A005F061
:108DB00001FFFAF75BFF606108206070FAF778FF47
:108DC000007B002886D084A005F0F4FE132060709C
:108DD000FAF74CFFA0612CE26079092660B3FAF73C
:108DE00045FF6169FAF720FA462811D962A005F01B
:108DF000E1FEFAF7C1FDFAF739FF60610D20FEF7D9
:108E00008BFFFEF7D3FB6670A079401CA07136E79C
:108E1000FAF790FE0028BAD1FAF728FF6169FAF74D
:108E200003FA1428B3D9FEF7C1FBFAF71FFF6061FC
:108E300066706571A57122E7FAF718FF6169FAF7A4
:108E4000F3F92A2802D9FAF769FE58B1FAF778FE41
:108E500001289CD16670FAF709FF606163A005F0F4
:108E6000A9FE0CE7FAF702FF6061FEF79FFB20E224
:108E7000FAF7FCFE6169FAF7D7F9012810D9FAF779
:108E8000F5FE6169FAF7D0F9642809D8FAF758FEB7
:108E90000028BCD0FAF7EAFE60610A20607005E1A4
:108EA000B0E00000000000202054696D653A3230C7
:108EB000253032642D253032642D25303264202057
:108EC000253032643A253032643A253032640D0A56
:108ED00000000000446002402053746172742067F7
:108EE000657474696E672073656E736F7220646158
:108EF00074610D0A0000000020496C6C3A25322E86
:108F000031662C566F6C3A25642C4C6174693A2595
:108F10002E31662C4C6F67693A252E31660D0A009A
:108F20002053746172742067657474696E6720479A
:108F300050530D0A00000000204E6F206E656564DE
:108F400020746F207475726E2074686520436F6E94
:108F5000736F6C650D0A00002047505320436F6DFE
:108F60006D756E69636174696F6E20526573746F9D
:108F700072650D0A00000000204E6F206C6174695C
:108F80007475646520616E64206C6F6E67697475BA
:108F90006465206461746120776173206F6274611D
:108FA000696E656420666F722074696D656F757493
:108FB0000D0A000048493335313920636F6D6D75F6
:108FC0006E69636174696F6E20696E69746961743A
:108FD00065640D0A0D0A000020BDF8C8EBB2BBD0D5
:108FE000DDC3DFC4A3CABD0D0A00000020D3EB48D7
:108FF00069736933353139D2D1BDA8C1A2CDA8D0AA
:10900000C50D0A00FAF732FE6169FAF70DF9642816
:1090100002D9FAF783FD80B1FAF750FE00283FF439
:1090200059AEFCF723FFFEF7DBFAFAF71FFE60618B
:1090300067700020FEF70CFF21E6FCF717FFFEA08B
:1090400005F0B8FD0920FEF767FEFAF70FFE606134
:10905000FAF70CFEA061E079401CC0B2E0710A286A
:109060000FD9FCA005F0A6FD0320FEF755FEFFF783
:10907000D3F945462846F8F737FE0028FAD1FFF71E
:109080003DFB6770FBE5FAF713FEFAF717FE78B1C0
:10909000FCF7ECFEF84805F08DFDFEF7A1FA002084
:1090A000FEF7D6FEFAF7E2FD60616770E571E6E56E
:1090B000FAF7DCFD6169FAF7B7F8642818D9FAF70E
:1090C000F1FD18B10020FEF7BDFED5E5FCF7CEFEA0
:1090D000EA4805F06FFDFAF7C9FD60610820FEF768
:1090E0001BFEFEF77DFA6770FAF7C0FDA061C6E5CA
:1090F000FAF72CFD01289FD1FAF70AFD2072002013
:10910000FEF7E0FD02F0B2F9012807D0FAF7AEFD54
:10911000A061FAF7ABFD606167702EE05E4684F8EF
:1091200001B0FAF78FFD30B190F85400012801D951
:10913000667000E06770FAF78BFD012804D1217A90
:10914000CFA005F037FD33E0217AD3A005F032FD42
:10915000A06A401CA06210E0FAF7F8FC012810D0C9
:10916000FAF784FD6169FAF75FF85F2805D984F89A
:1091700001B0217ACEA005F01DFD0020FEF750FEC3
:109180007DE5FAF7C5FC20720020FEF79BFD84F810
:1091900001B0FAF75DFD0128D6D1FAF767FD616AE3
:1091A000FAF742F860620246217AC7A005F002FD94
:1091B000E571A562E1E7FAF745FD0546FAF7A8FC77
:1091C000207295F85410814206D0FCF74FFEFBF751
:1091D000D3FB0D2060704FE56770FAF747FDA06183
:1091E000FAF744FD6061C0A039E6FAF797FC002861
:1091F000C6D1FAF78DFC2072FCF738FE217AC3A0A5
:1092000005F0D8FCFAF732FD60620B206070FEF7C3
:109210001FFA31E5FAF74CFD007B68B1AFF2482048
:1092200005F0C8FC13206070FAF720FDA061FFF77D
:10923000F3F801F06FFD22E5FAF718FD6169F9F71F
:10924000F3FF04289CD3B7490020FCF799FEB548EA
:10925000837842780178B4A005F0ACFCFAF706FDFB
:109260006061FFF7D9F8FAF701FDA06101F06AFD2E
:1092700001F050FDFAF71EFEFAF7E4FC054690F8FF
:109280005400B0B1FAF744FC2072014605EB4100EE
:10929000438D4288ADA005F08DFC207A05EB40009F
:1092A000418D0A2905D340880021FBF7DBFA0F2006
:1092B00022E06670E3E4FAF731FC30B1FAF7D6FC4D
:1092C0006169F9F7B1FF0628B5D3FAF7CFFC6169F8
:1092D000F9F7AAFF0528ECD3FBF736FB642004F06E
:1092E00007F8A2A09BE1FAF7A7FC022806D002210A
:1092F0000120FEF7A1FD11206070C0E40A21F7E70C
:10930000FAF7A0FC074602F0B1F880B3FAF7AEFC1A
:10931000A169F9F789FFB7F85510C1EB0111B0EB5E
:10932000810F02D202F08AFA10B397F85400FEF7C8
:10933000B1FCFAF719FDFF2000E050E0FEF7ECFC6D
:10934000FAF794FCA06177490020FCF719FEFAF7C0
:1093500079FC01F005FDF8F7BFF9FAF787FCE06149
:109360000020FEF775FD0020FEF7ACFC14E01FE0C6
:10937000A16AA1B1E06A022811D281A005F01AFC0D
:10938000E06A401CC4E90A500020FEF761FD082095
:10939000FEF7C2FCFFF740F884F801906FE4FAF79B
:1093A00065FC6169F9F740FF216A884241D280E794
:1093B000FAF75CFCE169F9F737FFB0F5E15F12D32A
:1093C0000020FEF745FD84F8019078A005F0F2FB3F
:1093D0000A20FEF7A1FC01F0C3FCF8F77DF9FAF7CB
:1093E00045FCE0614BE4FAF741FC6169F9F71CFFC9
:1093F000216A88421DD2FAF74FFC10B1A06A0028FA
:10940000D5D0E06A0228D2D2A16AB6E771480078C6
:109410000028C3D007A906A8FAF720FC0798F7F799
:10942000D2F981468A460698F7F7CDF9074688466D
:10943000D2E016E1F8E00000204E6F20636F726505
:1094400020626F6172642064657465637465642171
:109450000D0A00000D0A204578636573736976650F
:109460002074696D656F75742C20726573746172F8
:109470007421210D0A00000060EE000818EE0008BB
:109480000D0A20C5C4D5D5B5E328256429CDEAB396
:10949000C90D0A0D0A0000000D0A20C5C4D5D5B5B6
:1094A000E328256429CAA7B0DC0D0A0D0A000000D4
:1094B00020C5C4D5D5B5E328256429B5C8B4FDB306
:1094C000ACCAB10D0A0000000D0A20C5C4D5D5B53F
:1094D000E328256429CDEAB3C92CBAC4CAB13A2518
:1094E00064730D0A0D0A00000D0A20CBF9D3D0C514
:1094F000C4D5D5B5E3D2D1CDEAB3C92C20506F770E
:109500006572206F66660D0A0000000020C5C4D594
:10951000D5B5E328256429BFAACABC210D0A0D0AC6
:1095200000000000090000200D0A205B25302E32CB
:10953000643A25302E32643A25302E32645D476F0E
:1095400020746F20536C6565700D0A0020B5B1C79B
:10955000B0D4A4D6C3B5E3282564292CBDC7B6C8AA
:10956000CEAA3A25642C2025640D0A002054696D8A
:1095700065204F75742C536C6565700D0A000000F2
:1095800020C9CFD2BBB4CED3EBB7FECEF1C6F7CD58
:10959000A8D0C5CAA7B0DCA3ACBDF8D0D0D6D8C17E
:1095A000AC284572723A2564290D0A000D0A20B2D2
:1095B000BBD4DAC5C4D5D5BCE4B8F4A3ACD3EBB7FF
:1095C000FECEF1C6F7BDF8D0D0D2BBB4CEBDBBBB8A
:1095D000A50D0A0096000020FAF782FB8346FAF7F1
:1095E000C3FBF7F7F0F802460B46AFF2F46002A9AE
:1095F000CDF800B081E8800705F0DCFAFAF758FBF7
:109600000746007B00283FF432ACFAF769FBB0F55F
:10961000E15F07D23D733846FEF7E2FC17A005F084
:10962000C9FA46E6132067E6FAF70CFB0546FAF797
:109630001DFBA169F9F7F8FDB5F85510C1EB011153
:10964000B0EB810F05D3FAF711FBA061FEF700F82C
:1096500007E4FAF70BFB6169F9F7E6FD216A884236
:10966000F6D3FCF703FC0FA005F0A4FAFAF7FEFA14
:109670006061FEF74BFE12203EE600000D0A202D31
:10968000202D202DB5E7B3D8B5E7C1BFB5CDA3AC2C
:10969000BDF8C8EBD0DDC3DFC4A3CABD2D202D208B
:1096A0002D0D0A002053656E736F7220446574653A
:1096B00063742D2D0000000070B5084C2078002840
:1096C0000BD000252570F7F7B3FDFCF701F804492E
:1096D000C820FEF7C3FBE060A57170BD90000020BC
:1096E00091B600082DE9F04FADF5557DABA801907E
:1096F000FE48017801297DD14FF00008FC4C80F82C
:109700000080FCA12288FD48F6F76FFD002872D08A
:109710000522FBA1F948F6F768FD00286CD0042269
:10972000F9A1F648F6F761FDF94DF44E00287DD019
:109730000622F8A13046F6F758FD002877D005221A
:10974000F6A13046F6F751FD002871D02288F5A128
:109750003046F6F74AFD00286BD02288F3A1304648
:10976000F6F743FD00287DD02288F3A13046F6F7B6
:109770003CFD002877D02288F1A13046F6F735FD70
:10978000002871D02288F0A13046F6F72EFD00287F
:109790006BD02288EDA13046F6F727FD002865D072
:1097A0002288ECA13046F6F720FD00287ED02288E2
:1097B000EAA13046F6F719FD002878D02288E9A101
:1097C0003046F6F712FD002872D02288E7A1304615
:1097D000F6F70BFD00286CD00422E6A13046F6F720
:1097E00004FD002866D00122E4A13046F6F7FDFC16
:1097F000002802E0EFE3ACE2B7E27DD02288E0A1EE
:109800003046F6F7F2FC002877D00222DFA130467E
:10981000F6F7EBFC002871D02288DDA13046F6F780
:10982000E4FC012700286AD0228803E0A0E2B2E22B
:10983000B5E2BDE2D9A13046F6F7D7FC00287DD0CD
:109840002288D8A13046F6F7D0FC002877D02288AD
:10985000D8A13046F6F7C9FC002871D02288D9A1DA
:10986000304604E0B2E2B6E2BCE2C2E2C4E2F6F79D
:10987000BCFCDFF860B34FF002094FF0800A00280B
:109880007ED02288D4A13046F6F7AFFC002878D0ED
:109890002288D5A13046F6F7A8FC002872D022888D
:1098A000D4A13046F6F7A1FC002804E0ADE2B2E214
:1098B000B4E2B6E2BBE266D02288D1A13046F6F728
:1098C00094FC00287ED02288CEA13046F6F78DFC8D
:1098D0000028F7D02288CCA13046F6F786FC002875
:1098E00071D02288CBA13046F6F77FFCB94F0DF13D
:1098F000080B803F002803E0A7E2B2E2C2E2CAE21E
:109900007ED02288C5A13046F6F76FFC0DF5847A2B
:10991000002876D00722C3A13046F6F766FC00285F
:1099200070D00722C1A13046F6F75FFC00286AD04C
:109930000722C0A13046F6F758FC02E0B9E2C3E2C4
:10994000C8E200287ED02288BCA13046F6F74DFC44
:10995000002878D00522BCA13046F6F746FC002846
:1099600072D00A22BAA13046F6F73FFC06F10A0788
:1099700000286AD02288B9A13046F6F736FC03E009
:10998000AEE2D9E204E309E34FF0BB0A4FF0CC0B9F
:1099900000287DD00422B2A13046F6F726FC00282C
:1099A00077D02288B0A13046F6F71FFC002871D08E
:1099B0000822AFA13046F6F718FC00286BD004222D
:1099C000AEA101E0FCE2FEE23046F6F70EFC002814
:1099D0007BD00422ABA13046F6F707FC002875D0F7
:1099E0002288AAA13046F6F700FC00286FD0228812
:1099F000A9A13046F6F7F9FB002869D0228803E0D8
:109A0000EAE209E327E33FE3A5A13046F6F7EDFBE1
:109A100000285ED02288A5A13046F6F7E6FB002894
:109A200058D02288A3A13046F6F7DFFB002852D099
:109A30000622A3A13046F6F7D8FB00284CD004221A
:109A4000A1A103E03AE349E349E349E33046F6F7ED
:109A5000CCFB002841D022889DA13046F6F7C5FBFB
:109A600000283BD022889BA13046F6F7BEFB002899
:109A700035D0228899A13046F6F7B7FB00282FD0C1
:109A8000228898A13046F6F7B0FB002829D003E0E1
:109A900027E327E327E327E3228894A13046F6F75C
:109AA000A4FB00281ED0228892A13046F6F79DFB29
:109AB000002818D0228891A13046F6F796FB00289E
:109AC00012D0228890A1304624E10EE30EE30EE38B
:109AD0000EE30EE30EE30EE30EE30EE30EE30EE3FE
:109AE0000EE30EE30EE30EE30EE300002E01002072
:109AF0003201002052455345540000002414002038
:109B0000434C454152000000434D442000000000FA
:109B1000300000204750534F464600004750534FF7
:109B20004E00000048494F4E000000004869737421
:109B3000617475730000000048696465740000007A
:109B40004869706F7765720031313100486933358B
:109B50003139000048696578697400005265747293
:109B60007931000052657472793200005265747266
:109B70007933000053484F570000000024000000D4
:109B800047505352455345540000000055330000E0
:109B900054455354204D4F4445000000436F6E73AD
:109BA0006F6C6500436F6E736F6C65506F77657295
:109BB0004F66660048697369506F7765724F6666D5
:109BC0000000000053746172742043686172676919
:109BD0006E6700008000080853746F70204368614E
:109BE0007267696E67000000506F77657244657434
:109BF0006563740045726173654C6F670000000017
:109C00006C6F67004C4F470053544D333220535410
:109C10004F5000005245414431000000524541443C
:109C200034000000575249544531200057524954DE
:109C300045342000457261736531200045726173BF
:109C400065416C6C0000000054494D452000000047
:109C50004B696C6C54696D65722000005458440067
:109C600043545220000000004649464F00000000C7
:109C7000343835436F646520000000004C61742067
:109C8000000000004C6E6720000000005265616417
:109C9000416E676C6500000053686F774750530052
:109CA00053686F77475053300000000050686F745E
:109CB0006F000000416E676C65436F6E66696700F8
:109CC000416E676C65200000436F6E20000000004D
:109CD00055500000444F574E000000004C4546547C
:109CE00000000000524947485400000053544F50B0
:109CF0000000000053657454696D650053686F7708
:109D000054696D650000000052756E4D6F646530DA
:109D100000000000F6F769FA002873D02288FBA142
:109D20003046F6F762FA00286DD02288FAA1304654
:109D3000F6F75BFA002867D02288F9A13046F6F7DB
:109D400054FA002870D03078FF286ED07E286DD06D
:109D5000F2E2F5A004F02EFFF74C2046F7F7C4FF1F
:109D60000028FAD1FEF7CAFCF2E7FEF7CFFAEFE7D8
:109D7000A888401CA8802078001FC1B2301DF7F7CA
:109D800013FB04460146EDA004F014FFE1B2A888DD
:109D9000FDF708F9D0E2F9F7EFFD012005E0EAA0B0
:109DA00004F008FFF9F700FE0020FDF779FFC3E299
:109DB000A888401CA88000F00100FAF753F8287921
:109DC000C00701D0E3A0A4E3E6A0A2E3A888401C5A
:109DD00080B2A88013E0A888401C80B2A880FCF75D
:109DE0007DFCA9E2A888401C80B2A880FCF75EFF39
:109DF000A2E201F065FB9FE2A888411CA980FCF764
:109E0000B5FD99E2E5E3EAE3EFE3A888411CA98008
:109E1000FCF7F8FC90E2FDF7C9FB8DE2FDF7E0FBF3
:109E20008AE2FDF7F9FB87E2E5E3ECE3F0E3F9F71B
:109E300057FF0446F9F798FFF6F7C5FC02460B46B4
:109E4000CCA0009404F0B6FEFBE32188D9A006F86C
:109E50000180D74904F0AEFED549D6A004F0DCFE5F
:109E6000EFE3D6A004F0A6FED74D4FF40044214600
:109E70002846F9F71FFD4FF4967003F039FA214692
:109E8000284682E0B11CD1A004F094FEB11CD3A0FE
:109E900004F0F4FED5E3287838B1D1A004F08AFEAE
:109EA00085F80080F7F774FACBE32F7001F0B8FA69
:109EB000C7E34FF4165001F0E7FF002002F076F9F7
:109EC0000120FAF707FDBCE3D1A004F073FEFAF716
:109ED0003BFDB6E3D1A004F06DFEF9F7EBFFB0E374
:109EE000D2A004F067FEF9F7E7FD55219290417189
:109EF0000221001DF7F784FB92990622C87092A9EF
:109F00005846F9F7F1F90120FDF7BEFEFEF7E4F936
:109F10008DF850738DF85273CA4C8DF85393CDF869
:109F20004CA38DF85173D3A92046F9F779FC802111
:109F30002046F9F7BFFC84E3C3A004F03BFEF9F729
:109F4000BBFDAA21929041710221001DF7F758FB39
:109F500092990622C87092A95846F9F7C5F90020CF
:109F6000FDF792FEFEF7B8F98DF850738DF8527335
:109F7000B44C8DF85373CDF84CA38DF85173D3A91D
:109F80002046F9F74DFC80212046F9F795FC58E36F
:109F9000B4A004F00FFEFEF79FF952E3B5A004F061
:109FA00009FE09242046F9F76DF9611CB7A004F0F9
:109FB00001FE641CA4B2402CF4D3FAF785FA40E306
:109FC000FEF748F83DE3B6A004F0F4FD0A210120B5
:109FD000FDF732FF35E336E3B3A004F0EBFD0024D8
:109FE0004FF480784FEA0B0607EB0420424602A9A3
:109FF000F9F768F90025B1A0715D04F0DBFD6D1C77
:10A00000ADB2FF2DF7D94BA004F0D4FD641CA4B26F
:10A01000102CE9D347A007E3AAA004F0CBFD00254C
:10A020004FEA0A0607EB8510102242A9F9F754F906
:10A030005FF00004A8A056F8241004F0BBFD641CD7
:10A04000A4B2102CF6D33BA004F0B4FD6D1CADB24D
:10A05000402DE7D3DEE72078C01FC1B2F01DF7F72F
:10A06000A3F907EB80110C469DA004F0A3FD00208E
:10A0700059460854401C80B24028FAD3204640225A
:10A0800002A9F9F731F9DCE22078C01FC1B2F01D56
:10A09000F7F78AF907EB80110C4696A004F08AFDC9
:10A0A0000020514641F82000401C80B21028F9D30E
:10A0B0002046102242A9F9F73FF9C2E22078C01FDA
:10A0C000C1B2F01DF7F770F9044607EB84118EA0BA
:10A0D00004F070FD2046F9F7D5F8B2E21CE12CE15E
:10A0E00036E144E160E170E18EE1C3E1D0E1E8E115
:10A0F000EAE1EEE1F4E1F6E1F9E117E24DE24FE2E7
:10A1000051E253E255E257E260E2000052756E4DB3
:10A110006F646531000000004750494F3600000071
:10A120004750494F370000000D0A2052455345540F
:10A1300020434D440D0A00004460024020436D64FA
:10A140003A25640D0A00000020475053204F6E212D
:10A150000D0A0000486920504F574552204F4E0DC0
:10A160000A000000486920504F574552204F46468C
:10A170000D0A00002054656D703A2025322E32669B
:10A180002C2048756D693A2025322E32662C2049E4
:10A190006C6C3A25322E32662C205072653A20259E
:10A1A000322E32662C20566F6C3A2025640D0A0040
:10A1B0002414002025730D0A00000000475053208E
:10A1C00052455345540D0A00000402400D0A205325
:10A1D000656E643A25730D0A0000000025730000C7
:10A1E0000D0A204578697420646562756767696E39
:10A1F00067206D6F64652C20636F6D6D756E69638C
:10A200006174696F6E20726573756D650D0A00006B
:10A21000506F7765724F66660D0A00004869736972
:10A22000506F7765724F66660D0A00000D0A204672
:10A230006F72636564206368617267696E67206F1F
:10A240006E0D0A00000002400D0A20466F72636521
:10A2500064206368617267652073687574646F77E2
:10A260006E0D0A00506F7765724465746563740DF6
:10A270000A0000000D0A20457261736520454550B3
:10A28000524F4D20446174610D0A000020436C65FB
:10A29000617220256420426C6F636B0D0A00000020
:10A2A0002053746F700D0A000D0A454550524F4DF2
:10A2B0002052656164310D0A0000000025303258DB
:10A2C000200000000D0A454550524F4D2052656157
:10A2D00064340D0A000000002530385820000000CA
:10A2E0000D0A575249544531203A253038580D0A45
:10A2F000000000000D0A575249544534203A2530D9
:10A3000038580D0A000000000D0A4572617365207F
:10A310003A253038580D0A00CDA004F04BFC00243B
:10A320002046F8F7AFFF611CAFF2A00004F042FC3A
:10A33000641CA4B2402CF3D383E12078401FC1B247
:10A34000701DF7F731F80146C8A004F033FC78E13E
:10A3500020780A38C1B23846F7F726F80446014695
:10A36000C6A004F027FC2046FAF746F869E141F25E
:10A370003420ADF8FC02C648C0908DF8048368888C
:10A38000ADF80603401C6880ADF8089305208DF8F1
:10A390000A03BFAC8DF80BA38DF80CB3F7F756F991
:10A3A0004168204688474CE12078001FC1B2301D2B
:10A3B000F6F7FAFF04460146B6A004F0FBFB0022C4
:10A3C000E0B21146FCF7F7FF3BE149F68810ADF823
:10A3D000AC02B348AC908DF8B482A988ADF8B892BD
:10A3E00006208DF8BA02ADF8B6128DF8BBA28DF832
:10A3F000BCB2481CA880ABA004F0DCFBF7F726F940
:10A400000169019888471CE120880321C01F90FB47
:10A41000F1F0C5B2A6A004F0CDFB002482AF0EE09F
:10A4200004EB4400811938192A460831FEF750F828
:10A43000395DAFF2781004F0BDFB641CA4B2AC42ED
:10A44000EED3294682A8F7F7E6F8C3B27B556D1C18
:10A45000E9B2020A7A54491CCCB2194698A004F019
:10A46000A9FB81A004F0A6FB224682A9974801F02F
:10A47000C1FEE6E0301D02F009FEF6F7E7F9A8613B
:10A48000F6F7A1F902460B4691A004F093FBD8E041
:10A49000301D02F0FBFDF6F7D9F9E861F6F793F904
:10A4A00004460E46A869F6F78EF9CDE90046024645
:10A4B0000B468AA004F07EFBD5E90601FDF7B6FC49
:10A4C000BFE0FCF7ADF8BCE08AA004F073FB01200C
:10A4D00003E08BA004F06EFB0020FDF7E7FBB0E08B
:10A4E000FDF7B6F8ADE00120FCF7F0FAA9E0032192
:10A4F000B01DF6F759FF054603213846F6F754FF1D
:10A50000064602218148F6F74FFFC4B2142C01D34E
:10A510007FA089E033462A46214680A004F04AFB0A
:10A5200022463146284602F03DF88AE00121301DDE
:10A53000F6F73AFF8DF8A0020121701DF6F734FFFF
:10A54000ADF8A1020121B01DF6F72EFF8DF8A30290
:10A550000121F01DF6F728FF8DF8A4026B480121B8
:10A56000801FF6F721FF8DF8A50268480121401FE2
:10A57000F6F71AFF8DF8A60201213846F6F714FF08
:10A580008DF8A70261480121C01EF6F70DFF8DF876
:10A59000A80293A8FDF7D0FB53E0F7F7DDF950E0F0
:10A5A000F7F7B6F94DE0F7F7B8F94AE0F7F7BFF972
:10A5B00047E0F7F7CCF944E0052000900346024657
:10A5C000014601901320FEF75BF83AE0FBF7AAFE84
:10A5D00037E057A004F0EEFAF7F7AEF931E059A0F2
:10A5E00004F0E8FAF7F7ADF92BE0FFE75AA004F022
:10A5F000E1FA402103E05AA004F0DCFA80215A4835
:10A60000F9F75CF91DE0707801281AD1002507E000
:10A610000DE0715DAFF25C3004F0CCFA6D1CADB2B0
:10A6200020888542F5D351A004F0C4FA09E02088BF
:10A63000311811F8011C212903D10F2801D3F6F795
:10A64000EFFEF7F74FF80DF5557DBDE8F08F0000F0
:10A650000D0A20457261736520416C6C20454550A0
:10A66000524F4D20446174610D0A000020536574FF
:10A670002054696D653A25640D0A00004B696C6CC5
:10A680002054696D6572204E756D3A25640D0A007F
:10A6900088776655434D443A25640D0A0000000052
:10A6A00078563412204649464F3A2564200000006F
:10A6B00053656E642034383520436F64653A00007A
:10A6C0002025303258202530325800000048004004
:10A6D000204C61743A252E35660D0A00204C6174B9
:10A6E0003A252E356620204C6F6E673A252E35664A
:10A6F0000D0A00002053686F774750530D0A000081
:10A700002053686F77475053300D0A0032140020F1
:10A71000204E756D204F7665720D0A0020536574CA
:10A720003A282564292025642025640D0A000000AC
:10A7300020D4C6CCA8BDF8C8EBD5FDB3A3C4A3CA2A
:10A74000BD0D0A0020D4C6CCA8BDF8C8EBB2E2CA41
:10A75000D4C4A3CABD0D0A004750494F360D0A00A4
:10A760004750494F370D0A00000002400D0A0D0AFC
:10A77000000000002DE9FF5F6448017801297DD1C8
:10A780004FF0000980F8009061480188042976D3D1
:10A79000604CA07818B1604A60A004F00BFAF9F799
:10A7A00091F86248624AD0F8868008EB0201614A5B
:10A7B000914264D8D0F881705F49604A394491422F
:10A7C000F7D8A189491C89B2A181042957D9257AD2
:10A7D000A0F13C06A0F1280AA0F1140B032D384685
:10A7E0002FD2F5F781FF46F825004046F5F77CFFAC
:10A7F0004AF825004D48D0F8A0603046F5F76BFFC9
:10A800004BF825003846F5F785FF4D4D00222B46C5
:10A81000F5F7DBFEF6F71AF820614046F5F77AFF08
:10A8200000222B46F5F7D1FEF6F710F860613046AE
:10A83000F5F75FFF0022434BF5F7C7FEF6F706F882
:10A840002EE0F5F751FF677A46F827004046F5F706
:10A850004BFF4AF827003548D0F8A000F5F73BFF3A
:10A860004BF82700314829463C38F9F7C3FF364DED
:10A870002946F5F753FD2061217A01E044E03FE0ED
:10A880002A482838F9F7B6FF2946F5F747FD6061F1
:10A890002648217A1438F9F7ADFF2C49F5F73EFD2B
:10A8A000A061207A401CC0B22072617A491CC9B2F2
:10A8B0006172052801D305202072052920D384F870
:10A8C0000990A4F80C9084F80890F9F755F860699D
:10A8D000F5F779FF074688462069F5F774FF0546C6
:10A8E0000E46A069F5F76FFF8DE8E00102460B46C2
:10A8F00017A004F05FF90C20FDF70EFA012020707C
:10A90000BDE8FF5FF6F70CBFBDE8FF9F30010020F8
:10A9100036010020C4000020E01600202853697A88
:10A92000653A25642925730D0A000000FC05002006
:10A93000200090FF58585E0000A1FAFF08014C006B
:10A94000006AF840000024400050C3470000204146
:10A9500020476574204C6F636174696F6E20446199
:10A9600074612C416C7469747564653A252E316686
:10A970002C4C6F636174696F6E3A252E38662C25F6
:10A980002E38660D0A0000002DE9F04F8A4C002594
:10A990002046E77A837A0279C0798BB0411C4FF068
:10A9A00001084FF47A76C9B2012F4AD0022F5AD04B
:10A9B000032F77D0042F5DD1804EB6F89E006E36FF
:10A9C000F5F7A8FE00227E4BF5F7FFFD82468B4689
:10A9D000F08DF5F79FFE0022794BF5F7F6FD07465F
:10A9E0008946B08DF5F796FE0022754BF5F7EDFD23
:10A9F000CDE90001D6F83200F5F76DFEF5F7E3FE7C
:10AA000000226F4BF5F7E1FD0246B069D6F813302E
:10AA1000CDE9083004A880E8800EDDE90003CDE927
:10AA20000203CDE90021737FB27F16F86E1D6548E1
:10AA300004F0C0F8307805287ED2206A401C2062DD
:10AA4000A7E067790FB1022010E053B1002A11D0BE
:10AA50002571032817D35CA004F0ACF884F80080BB
:10AA6000A4E0012020E0A7793FB10320E072F6F7CF
:10AA70001FFEA5720BB0BDE8F08FA3B1002AF9D07C
:10AA80002571032807D2A572E1710BB058A0BDE86B
:10AA9000F04F04F08FB860A004F08CF8F8F76CFF6A
:10AAA0002570E7E70AE00220F8F7A6FF6449304680
:10AAB000FDF7D4F9E06184F80A80DBE761A004F0D7
:10AAC00079F860A004F0DAF8DFF88891624E4F461A
:10AAD000307848B161A16248F5F74EFB10B1F6F746
:10AAE0001FFE03E0F6F71CFE7F1EF1D25DA004F00E
:10AAF00061F85CA004F0C2F84F46307848B157A125
:10AB00005748F5F739FB10B1F6F70AFE03E0F6F700
:10AB100007FE7F1EF1D257A004F04CF855A004F0B8
:10AB2000ADF84F46307850B14CA14D48F5F724FBB5
:10AB300018B1F6F7F5FD04E029E0F6F7F1FD7F1E08
:10AB4000F0D250A004F036F84EA004F097F84F462B
:10AB5000307848B141A14248F5F70EFB10B1F6F745
:10AB6000DFFD03E0F6F7DCFD7F1EF1D20426E6727E
:10AB700084F803802562F9F765F8002891D090F8F1
:10AB8000540008B1666275E71420606272E72846D7
:10AB90002562616A884284D33EA0256204F00AF8E7
:10ABA00084F80B80A5720D20FDF7B6F80BB0BDE858
:10ABB000F04FF8F7E1BE0000C4000020FC050020C3
:10ABC0000000594044EF00085B5461736B466F729C
:10ABD00047505353656E644D73675D2D3E47505328
:10ABE00020506F776572204F46460D0A0000000026
:10ABF0005B5461736B466F7247505353656E644D7F
:10AC000073675D2D3E4661696C65642054696D65AE
:10AC1000733D25640D0A00005B5461736B466F72CF
:10AC200047505353656E644D73675D2D3E4D6173A0
:10AC300074657220506F776572204F46460D0A008A
:10AC4000FD540008244346474D53472C302C312CEB
:10AC5000300D0A00FEFF5F00300100204F4B000066
:10AC6000E0160020244346474D53472C302C352C0A
:10AC7000300D0A00244346474D53472C302C362CC8
:10AC8000300D0A00244346474D53472C302C372CB7
:10AC9000300D0A002047505320D0C5BAC5C8F52C46
:10ACA000CDCBB3F60D0A0000104810B5017801298C
:10ACB0001BD1002101700E48008801280ED90D48D3
:10ACC00000787B280ED00B48F5F772FA01460AA0EF
:10ACD00003F070FF07490DA003F06CFFBDE81040C2
:10ACE000F6F70EBDF7F772F9F8E710BD2F01002057
:10ACF00034010020BA1400200D0A20526563205050
:10AD000061636B73282564293A00000025730D0ADE
:10AD10000000000010B5074800F0DEFA064800F019
:10AD2000DBFA064800F0D8FABDE81040044800F00D
:10AD3000D3BA000071B300089DB30008F5B3000852
:10AD4000C9B3000810B5044800F0C6FABDE81040C9
:10AD5000024800F0C1BA000069B0000859AF00080D
:10AD600010B54FF47A742146064800F06DFA21467A
:10AD7000054800F069FABDE8104008210348F8F7DB
:10AD80009DBD000069B0000859AF000800040240F2
:10AD900004488178002904D000218170C078F8F738
:10ADA000B3BB7047500000202DE9F041264C4FF016
:10ADB000EE372078012844D100252570F9F7E6FC0C
:10ADC000F9F7C0F81E2002F093FA88210220F9F763
:10ADD000A5FC022680BBE5704FF4967002F088FA5D
:10ADE000F9F7CEFB1949884206D101206160E07075
:10ADF000F9F718FC67601FE01549F5F75DFA61780F
:10AE0000144A032902D242F8210005E0A37842F84F
:10AE100023001048F9F7EEFC60606078401CC0B277
:10AE20006070A178491CC9B2A170052801D3052022
:10AE30006070052900D3A570E670BDE8F041F9F710
:10AE40008BBCBDE8F081000054000020EFEE6E4F97
:10AE50000000A041E00100202DE9F041264C002631
:10AE600044F620672079012578B10022114606209A
:10AE7000FCF7A1FA21A003F09DFE642002F038FA4D
:10AE8000A5702671244938461EE0E07820B3F8F713
:10AE9000D9FE2178491CC9B2217090F8540088422B
:10AEA00007D225706079401CC1B261711BA003F00C
:10AEB00081FE60790A2801D3667125712078F8F740
:10AEC0005FFF15494FF47A50FCF7C8FF2061BDE8D9
:10AED000F041154800F000BAE5700F493846FCF71C
:10AEE000BDFF0022206111460620FCF764FAA57020
:10AEF0000EA003F05FFEEAE7B00000200D0A20413B
:10AF000075746F6D61746963206372756973652010
:10AF10006F6E0D0A0000000085BB000820436F75AE
:10AF20006E743A25640D0A0059AE00082046697215
:10AF3000737420706F776572206F6E2C207374614C
:10AF40007274206175746F6D6174696320637275CA
:10AF50006973650D0A0000007CB51A4D1A4EA87879
:10AF6000A0B91020012400908DF8044000208DF835
:10AF700006008DF807408DF8054069463046F8F721
:10AF80004FFC08213046F8F795FCAC70F8F7D8FD77
:10AF9000E978884210D0F8F7D3FD28B1F8F7D0FD52
:10AFA000E87041F2883104E0F8F7CAFDE8704FF428
:10AFB0007A71064800F0BEF910213046F8F77EFCA1
:10AFC0007CBD0000280100200004024059AF0008A9
:10AFD00070B51A48007800282ED01A4D184C082158
:10AFE0002868206068686060288920812046F6F71C
:10AFF00012FB217A627A01EB0221814203D12046C1
:10B00000F8F70AFB14E0104E3088052810D90FA07D
:10B0100003F0D0FD002405E0295D10A003F0CAFD77
:10B02000641CE4B230888442F6D30EA003F0C2FD63
:10B03000BDE87040F6F774BB70BD00003001002021
:10B04000F0040020E0160020360100200D0A204305
:10B050005243206572726F723A2000002025303210
:10B06000580000000D0A00007CB51C4D1C4E2878CD
:10B07000A0B90820012400908DF8044000208DF82C
:10B0800006008DF807408DF8054069463046F8F710
:10B09000C7FB08213046F8F70DFC2C70F8F750FD7F
:10B0A0006978884210D0F8F74BFD28B1F8F748FDD1
:10B0B000687041F2883104E0F8F742FD68704FF49F
:10B0C0007A71084800F036F908213046F8F7F6FBA7
:10B0D0004FF400410448F8F7F1FB7CBD2801002043
:10B0E0000004024069B000080000024070B5194831
:10B0F000017801292DD1184E002101703078174DAB
:10B100007E2814D12888311811F8011C21290ED16C
:10B110000F280CD31248F6F715FA20B111488168B0
:10B1200009B10F4888470E48FAF7F4F90DE00024FA
:10B1300005E0315D0CA003F03DFD641CE4B22888FD
:10B140008442F6D30AA003F035FDBDE87040F6F75F
:10B15000E7BA70BD30010020E01600203601002063
:10B160006C020020780000202530325820000000BA
:10B170000D0A00002DE9F041052004460C4E00EBBD
:10B1800040004FF0000806EB800500BF04EB4400D0
:10B1900006EB8007787A012804D12846FCF774FA78
:10B1A00087F80980641CE4B20A2CEFD3BDE8F08173
:10B1B000F401002038B5174C0025207888B125709F
:10B1C00001F0A4F969460020FAF7DAFE9DF8023092
:10B1D0009DF801209DF800100FA003F0EBFCF8F79C
:10B1E000D3F86078002813D0657001F08FF96946B4
:10B1F0000020FAF7C5FE9DF802309DF801209DF869
:10B2000000100AA003F0D6FCF8F7E8F8F8F7BCF84D
:10B2100038BD0000500000200D0A20253032643A6D
:10B22000253032643A253032640D0A000D0A205B65
:10B23000253032643A253032643A253032645D205C
:10B24000204175780D0A000070B5114D00240F4B98
:10B250002A6809E004EB440653F826601EB18642D2
:10B2600001D1012070BD641C9442F3D3541C142CF2
:10B270000AD202EB420243F8220003EB8200416053
:10B28000002181602C60ECE7002070BDB41C002020
:10B29000500100202DE9F04100250D4C2F460D4EA8
:10B2A00010E000BF05EB450304EB830081684A1CF6
:10B2B00082604268914204D3876054F8230000B151
:10B2C00080476D1C30688542ECD3BDE8F0810000FA
:10B2D000B41C00205001002070B5154B0021134C08
:10B2E0001A681FE001EB410554F82550CDB18542A5
:10B2F00017D1132A0CD30DE001EB410504EB8500B7
:10B30000491CC66844F82560056945604569856043
:10B310009142F1D3521E1A60132A01D913201860EA
:10B3200070BD491C9142DDD370BD0000B41C0020EB
:10B330005001002030B50D4C00220B4B24680FE06B
:10B3400002EB420553F825504DB1854207D102EB7F
:10B35000420003EB800041600021816030BD521C3F
:10B36000A242EDD330BD0000B41C002050010020EB
:10B3700007480179491CC9B20171142904D300217D
:10B3800001710448FFF7A8BF03484068FBF7A6B95E
:10B390005C00002071B30008F401002007488178A8
:10B3A000491CC9B28170032904D30021817004486B
:10B3B000FFF792BF03480069FBF7D8BA5C00002092
:10B3C0009DB30008F40100200748C178491CC9B2A8
:10B3D000C170062904D30021C1700448FFF77CBF67
:10B3E0000348406BFBF714BD5C000020C9B30008A4
:10B3F000F401002007484179491CC9B24171032971
:10B4000004D3002141710448FFF766BF0348C069B7
:10B41000FBF74CBC5C000020F5B30008F4010020F1
:10B420000A4810B5017800290FD1012101700848A0
:10B43000FFF752FFF9F7DEFAF8F74EFDF7F7A4FF32
:10B44000BDE8104003A003F0B5BB10BD0000002014
:10B45000B58A000820456E746572205465737420A7
:10B460004D6F64652E2E2E0D0A00000008B569464A
:10B470000020FAF785FDF8F7E5FBF8B19DF800200C
:10B480009DF80110C2EB021201EB820190F85730D7
:10B4900090F85820C3EB031302EB830291420BD3C5
:10B4A00090F85B2090F85A00C0EB001002EB80008F
:10B4B000814201D8012008BD002008BDFF2008BD41
:10B4C0002DE9F04701F038FE4F4C50492061002033
:10B4D00001F020FE02464EA1206901F0FBFD002094
:10B4E000014601F017FE02464AA1206901F0F2FD73
:10B4F000E068411CE160F5F70DF901F00BFE024632
:10B5000045A1206901F0E6FD444DDFF8149128467D
:10B51000494601F0FFFD024642A1206901F0DAFD33
:10B52000424E0020314601F0F5FD024640A120695F
:10B5300001F0D0FD404F0020394601F0EBFD0246FE
:10B540003EA1206901F0C6FDDFF8F48000204146ED
:10B5500001F0E0FD02463BA1206901F0BBFD284659
:10B56000494601F0D7FD024638A1206901F0B2FD3D
:10B570000020314601F0CEFD024635A1206901F0E0
:10B58000A9FD0020394601F0C5FD024631A1206920
:10B5900001F0A0FD0020414601F0BCFD02462EA1B5
:10B5A000206901F097FD0020414601F0B3FD0246FD
:10B5B0002AA1206901F08EFD2846494601F0AAFD26
:10B5C000024628A1206901F085FD0020414601F0D6
:10B5D000A1FD024621A1206901F07CFD206901F056
:10B5E00049FE6061206901F0BDFD20A0616903F0A2
:10B5F000E1FA606901F0B6FF01F0A0FFBDE8F04795
:10B6000001461BA003F0D6BA300000200000F03F36
:10B61000434D4400446972005365710048E17A1457
:10B62000AE87394054656D700000000000C0414095
:10B6300048756D6900000000404CCD40496C6C00BD
:10B6400000AC8F4031323331000000003132330022
:10B65000333231003232320033333300613132332E
:10B6600031000000613132330000000025730A0010
:10B67000204D656D6F7279207574696C697A61749B
:10B68000696F6E3A256425250D0A0D0A0000000039
:10B690002DE9F04186B000250120FAF757F9012184
:10B6A0004802FAF7A7F8544F01213846F5F7E7FCAE
:10B6B00040213846F5F709FD0028F9D000246E46F0
:10B6C0000723012213213846F5F734FD3846F5F7F4
:10B6D0009DFD02213846F5F7F8FC0028F9D03846E0
:10B6E000F5F7F0FC26F81400641CA4B20A2CE7D38A
:10B6F0005FF0000036F81010401C294480B28DB273
:10B700000A28F7D34FF00A08B5FBF8F0F5F702F86E
:10B710000222F4F7C9FF0022384BF4F7E4FE0022BE
:10B72000374BF4F752FFF5F735F8364C86B2364F03
:10B73000E5783046032D05D2F4F7D6FF47F825000B
:10B7400026810BE0F4F7D0FF217947F82100294644
:10B750002D48F9F74FF8F4F7EAFF208121892BA053
:10B7600003F028FAE078401CC1B2E1702079401C57
:10B77000C0B220710A2901D384F8038000260A2868
:10B7800000D32671F5F79CFD208941F6A4710125AF
:10B79000884200D2657001212048F8F784F818B972
:10B7A00066701FA003F006FA607880B180212148FE
:10B7B000F8F780F82069552100F8041F0221F5F7F9
:10B7C0001FFF21690622C8701B48F7F78DFD022074
:10B7D000A071E068F8F710FE6079002808D1657163
:10B7E0000F20FCF799FAFCF717FE0F20F5F76AFF18
:10B7F00006B0BDE8F0810000002401400004AA402A
:10B8000000FEAF4090000020C80400200D0A205622
:10B810006F6C3A25646D560D0A000000000402406A
:10B820000D0A20426174746572792066756C6C0D26
:10B830000A000000000002408000080808B56946C0
:10B840000020FAF79DFBF8F7FDF9002813D09DF8CA
:10B85000001090F8572091420ED19DF8011090F8F9
:10B860005800814208D19DF802000B2804D803A09B
:10B8700003F0A0F9012008BD002008BD0D0A20B585
:10B88000BDB4EFBFAACABCC5C4D5D5CAB1BCE4A378
:10B89000ACBFAACABCC5C4D5D5210D0A00000000A2
:10B8A0002DE9FF410F464FF0804490B3204800251A
:10B8B000417891B90126467031463046F9F782FF4A
:10B8C0001C208DF80C008DF80D5002208DF80E0014
:10B8D0008DF80F6003A8F9F7E1FB41F26200ADF8C3
:10B8E00000000197ADF80850ADF8025069462046B7
:10B8F000FDF7B2F801212046FDF718F801221146A4
:10B900002046FDF7A1F801212046FDF715F8BDE816
:10B91000FF81FFE7002201212046FDF795F8002175
:10B920002046FDF709F82046FDF710F8EFE7000084
:10B930003C0100202DE9FF41214C0F4690B32148E6
:10B940000025817891B90126867031460220F9F7E9
:10B9500039FF1D208DF80C008DF80D5002208DF858
:10B960000E008DF80F6003A8F9F798FB41F2620012
:10B97000ADF800000197ADF80850ADF802506946E7
:10B980002046FDF769F801212046FCF7CFFF012290
:10B9900011462046FDF758F801212046FCF7CCFF60
:10B9A000BDE8FF81FFE7002201212046FDF74CF8AA
:10B9B00000212046FCF7C0FF2046FCF7C7FFEFE759
:10B9C000000400403C0100202DE9FF41214C0F46BE
:10B9D00090B321480025C17891B90126C67031463F
:10B9E0000420F9F7EFFE1E208DF80C008DF80D50A5
:10B9F00002208DF80E008DF80F6003A8F9F74EFBBA
:10BA000041F26200ADF800000197ADF80850ADF8C2
:10BA1000025069462046FDF71FF801212046FCF739
:10BA200085FF012211462046FDF70EF80121204630
:10BA3000FCF782FFBDE8FF81FFE7002201212046DD
:10BA4000FDF702F800212046FCF776FF2046FCF7C0
:10BA50007DFFEFE7000800403C0100202DE9FF4199
:10BA6000214C0F4690B321480025017991B9012658
:10BA7000067131461020F9F7A5FE2B208DF80C0039
:10BA80008DF80D5002208DF80E008DF80F6003A880
:10BA9000F9F704FB41F26200ADF800000197ADF840
:10BAA0000850ADF8025069462046FCF7D5FF012149
:10BAB0002046FCF73BFF012211462046FCF7C4FF5D
:10BAC00001212046FCF738FFBDE8FF81FFE7002297
:10BAD00001212046FCF7B8FF00212046FCF72CFF8F
:10BAE0002046FCF733FFEFE7001000403C01002048
:10BAF0002DE9FF41214C0F4690B3214800254179A3
:10BB000091B90126467131462020F9F75BFE2C20C1
:10BB10008DF80C008DF80D5002208DF80E008DF878
:10BB20000F6003A8F9F7BAFA41F26200ADF800001D
:10BB30000197ADF80850ADF8025069462046FCF771
:10BB40008BFF01212046FCF7F1FE01221146204621
:10BB5000FCF77AFF01212046FCF7EEFEBDE8FF81ED
:10BB6000FFE7002201212046FCF76EFF002120465E
:10BB7000FCF7E2FE2046FCF7E9FEEFE70014004088
:10BB80003C01002070B51248124C00250078C8B95D
:10BB9000A07860B1A57043F698210F48FFF754FBD9
:10BBA0000E494FF47A50FCF759F9206170BD0CA092
:10BBB00003F000F80F4E3046F6F796F80028FAD159
:10BBC000F8F7C2FE2069F8F717FC256170BD000088
:10BBD00030000020B000002059AE000885BB0008EE
:10BBE000204D6F746F7220506F776572204F6666BC
:10BBF0000D0A00004460024070B50546012186B080
:10BC00000846F9F7D3FD01218803F9F7F3FD234E28
:10BC1000072209213046F7F736FE07220A2130466F
:10BC2000F7F731FE7015009002208DF80400012016
:10BC30008DF8050000248DF806408DF80700694650
:10BC40003046F7F7EDFD3015009069463046F7F7BE
:10BC5000E7FDADF80C40ADF80E40ADF81040ADF882
:10BC600014400C200E4CADF81200029502A920469B
:10BC700000F046FA012240F22441204600F028FA62
:10BC80000121204600F0B2F9F5F78EFFF5F7DAFE54
:10BC90000A210448FFF7D8FA06B070BD0000024040
:10BCA00000380140E59600082DE9F041124C0D46A0
:10BCB00006462046F6F718F80028FAD14FF4005748
:10BCC0003846F6F715F8012802D13846F5F754FF43
:10BCD00000212046F5F75CFF2A4631460748F4F775
:10BCE00027FA29462046F6F730F82046BDE8F0410D
:10BCF0000121F5F74DBF000044600240C01900204B
:10BD000070B5174C40F22441204600F0C2F90128DA
:10BD100024D12088201D0088124C00212046F5F7F0
:10BD200037FF2046F5F7E0FFC0F1960082B20E49DA
:10BD300000200E4B01258A80962A01D2985402E0F9
:10BD40001A4402F8010C0D7096212046F5F7FDFF0C
:10BD50002046BDE870400121F5F71ABF70BD000014
:10BD600000380140586002402E01002024140020B9
:10BD700070B50546012186B00846F9F717FD012187
:10BD80004804F9F71FFD214E072202213046F7F73C
:10BD90007AFD072203213046F7F775FD0420009055
:10BDA00002208DF8040001208DF8050000248DF894
:10BDB00006408DF8070069463046F7F731FD082048
:10BDC000009069463046F7F72BFDADF80C40ADF812
:10BDD0000E40ADF81040ADF814400C200C4CADF8FE
:10BDE0001200029502A9204600F08AF9012240F2D1
:10BDF0002441204600F06CF9F5F7AAFFF5F754FE50
:10BE00000121204600F0F2F806B070BD00000240AB
:10BE10000044004070B5184C40F22441204600F028
:10BE200038F9012826D12088201D0088134C0021D4
:10BE30002046F5F7ADFE2046F5F756FFA0F2262086
:10BE4000404283B20E4A40F2262100200D4D0126C9
:10BE5000D3808B4201D2E85402E02B4403F8010C5A
:10BE600056702046F5F771FF2046BDE8704001216D
:10BE7000F5F78EBE70BD0000004400406C600240CB
:10BE80002E010020BA14002070B5054686B00121AD
:10BE90000220F9F78BFC01218804F9F793FC214E6D
:10BEA00007220A213046F7F7EEFC07220B21304625
:10BEB000F7F7E9FC3015009002208DF8040001200E
:10BEC0008DF8050000248DF806408DF807006946BE
:10BED0003046F7F7A5FCF014009069463046F7F7B6
:10BEE0009FFCADF80C40ADF80E40ADF81040ADF839
:10BEF00014400C200C4CADF81200029502A920460B
:10BF000000F0FEF8012240F22441204600F0E0F863
:10BF1000F5F74CFFF5F7FCFD0121204600F066F82F
:10BF200006B070BD000402400048004070B5114CDE
:10BF30000D4606462046F5F7D7FE0028FAD1202008
:10BF4000F5F7D6FE012802D12020F5F715FE0021D5
:10BF50002046F5F71DFE2A4631460748F4F7E8F873
:10BF600029462046F5F7F1FE2046BDE87040012144
:10BF7000F5F70EBE1C600240801C002070B5174C07
:10BF800040F22441204600F084F8012825D1208881
:10BF9000201D0088124C00212046F5F7F9FD2046AF
:10BFA000F5F7A2FEC0F5167083B20E4A4FF4167173
:10BFB00000200D4D012613818B4201D2E85402E08E
:10BFC0002B4403F8010C96702046F5F7BEFE204680
:10BFD000BDE870400121F5F7DBBD70BD00480040B1
:10BFE000306002402E010020E016002000298189E7
:10BFF00002D041F4005101E021F4005181817047E9
:10C00000002A828A01D00A4300E08A438282704774
:10C01000174910B588420AD101218C032046F9F74F
:10C02000F5FB2046BDE810400021F9F7EFBB1149B0
:10C03000884202D101214C0410E00F49884202D10C
:10C0400001218C040AE00D49884202D10121CC046F
:10C0500004E00B4988420AD101210C052046F9F77A
:10C06000BDFB2046BDE810400021F9F7B7BB10BD6D
:10C07000003801400044004000480040004C0040AF
:10C08000005000400246002012880A4200D00120E1
:10C09000704730B501F01F0201240025C1F342139F
:10C0A00004FA02F2012B0FD0022B0FD0838A4FEA41
:10C0B00011210088134204FA01F400EA040001D0BF
:10C0C00000B10125284630BD8389F0E7038AEEE7F9
:10C0D00010B5C1F3421301F01F040121A140012B4F
:10C0E00007D0022B07D01430002A026805D00A437B
:10C0F00004E00C30F8E71030F6E78A43026010BD28
:10C100007FB50446008A0D4620F44051E888084374
:10C110002082A08941F20C618843A9882A891143B1
:10C120006A8902431143A181A08A20F44071A88941
:10C130000843A0826846F9F797FB1948844201D169
:10C14000039800E00298A189090400EBC00101EB0B
:10C150000010296801D5490000E08900B0FBF1F02A
:10C160006422B0FBF2F109010B096FF018056B4373
:10C1700000EB8300A3891D044FF0320306D503EBC7
:10C18000C000B0FBF2F000F0070005E003EB001088
:10C19000B0FBF2F000F00F00084320817FBD0000EB
:10C1A00000380140C1F30801818070477CB5044626
:10C1B00000208DF8050001208DF804008DF807009F
:10C1C0000B4E4FF480758DF8060000956946304699
:10C1D000F7F726FB34B1012C03D129463046F7F797
:10C1E0006BFB7CBD29463046F7F764FB7CBD000045
:10C1F0000000024070B515460C4606460AE0802154
:10C200003046FFF73FFF0028F9D014F8011B3046F5
:10C21000FFF7C8FF6D1EEDB2F1D270BDF0B500247E
:10C2200025464FF07E0E4FF07D0C212705E0465D40
:10C230007D2E07D016556D1C641C8D42F7DB1C80CB
:10C240000120F0BD46197678512E0BD05D2E06D018
:10C250005E2E01D00020F0BD02F804E003E002F8F9
:10C2600004C000E01755AD1CE6E7000038B5F7F74D
:10C27000E5FFF7F71DFD0446807E20B9A08AA0F5F2
:10C280004071E73932D169460020F9F779FE9DF80F
:10C290000010B4F81B00B1EB102F27D19DF801104E
:10C2A000C0B2814222D19DF802000A281ED810A0F7
:10C2B00002F080FCFAF7D2FF0A244FF47A75284680
:10C2C00001F016F8214611A002F074FC641E14F06F
:10C2D000FF04F4D14FF4966001F00AF80E4C2046AA
:10C2E000F5F702FD0028FAD1FCF708FA38BD000086
:10C2F0000D0A2054696D6520746F20726573657432
:10C300002C7265626F6F74210D0A00002054696DF4
:10C31000653A25640D0A0000446002404FF4E130A4
:10C32000FFF76AFC044D05A000F06EF92C460220D0
:10C33000401CA042FCD3F6E7FFFF2F005573616756
:10C34000654661756C745F48616E646C65720D0A58
:10C35000000000002DE9FC4701212720F9F726FA0B
:10C3600000258DF8055047F66F708DF804500227B0
:10C37000624E00908DF8077001248DF806406946E2
:10C380003046F7F74DFA8DF805504FF6E6708DF808
:10C390000450DFF86C9100908DF807708DF806401E
:10C3A00069464846F7F73CFA8DF805508DF8045079
:10C3B0004FF010088DF80740CDF800808DF806404A
:10C3C00069463046F7F72CFA8DF8055060038DF872
:10C3D000045000908DF807708DF806406946494872
:10C3E000F7F71EFA8DF8055003208DF804500090E1
:10C3F0008DF807708DF8064069464348F7F710FA44
:10C400008DF804508DF806408DF8074000948DF8A3
:10C41000054069464846F7F703FAF7F791FB4FF0F6
:10C42000080AE703CDF800808DF80440C0B38DF80A
:10C430000650A8468DF807408DF8054069464D46E0
:10C440004846F7F7EDF910212846F7F735FAF7F7E0
:10C45000F3FB8DF804408DF8068000288DF8074026
:10C46000CDF800A08DF805406946284619D0F7F7A9
:10C47000D7F908212846F7F71FFA8DF804400097EE
:10C480008DF806808DF807408DF8054069463046E6
:10C49000F7F7C6F939463046F7F70EFABDE8FC87DC
:10C4A00006E0F7F7BDF908212846F7F703FAE4E7B5
:10C4B0008DF806508DF807408DF8054069464846CE
:10C4C000F7F7AEF910214846F7F7F6F98DF8044072
:10C4D0008DF806508DF80740CDF800A08DF8054086
:10C4E00069464846F7F79CF908214846F7F7E4F90A
:10C4F0008DF8044000978DF80650C3E70000024015
:10C5000000040240000802400014024010B5FFF78A
:10C5100021FF4FF4E1342046FFF76EFB4FF4165035
:10C52000FFF726FC2046FFF7AFFCBDE81040F7F709
:10C5300009BD000070B50546FAF756F80446A0F5A7
:10C540004070E73802D10CA002F034FB0F480822FB
:10C5500000EBC4002946F6F7C7FE21460CA002F006
:10C5600029FB641CA0B2B0F5D77F00D90020BDE83C
:10C57000704000F033B8000020506F696E7465722F
:10C580002041646472204572720D0A00800208081E
:10C59000205772697465204C6F6720282564290D27
:10C5A0000A00000010B50B4C0346E06800280FD0CD
:10C5B00000EB4202001D538051855921F5F720F808
:10C5C000E1685D22C870BDE810400348F6F78CBEF4
:10C5D00010BD0000B00000200001080810B5084C94
:10C5E0000146606820F8041F0221F5F709F8616828
:10C5F0000622C870BDE810400248F6F775BE00007C
:10C6000014010020400208080FB4054B10B503A91F
:10C61000044A029800F09EF910BC5DF814FB00007B
:10C6200055D40008380100200FB4084B10B504A9F8
:10C6300002AA039800F08EF9044602A9002000F037
:10C6400020FD204610BC5DF814FB000083D00008DC
:10C6500037B514460846064B6A46214600F07AF97B
:10C6600004466946002000F00CFD20463EBD000057
:10C6700083D00008490050EAC12018BF04204A0DA9
:10C6800018BF40F0010040F2FF72B2EB515F08BFEB
:10C6900040F00200012808BF052070472DE9F04155
:10C6A0004F1E00EBC7010446D1E9000115461E46A6
:10C6B00037F006020DD02A463346F3F714FF7F1EEB
:10C6C00004EBC703D3E90023F3F766FE37F0060255
:10C6D000F1D1022F25D0042F13D0062F18BFBDE8AB
:10C6E000F0812A463346F3F7FEFED4E90A23F3F736
:10C6F00053FE2A463346F3F7F6FED4E90823F3F750
:10C700004BFE2A463346F3F7EEFED4E90623F3F751
:10C7100043FE2A463346F3F7E6FED4E90423F3F753
:10C720003BFE2A463346F3F7DEFED4E90223F3F755
:10C7300033FE2A463346F3F7D6FED4E90023BDE89C
:10C74000F041F3F729BE00000022134610460149CC
:10C75000F3F73BBF0000F03FF3F71EBE0022134685
:10C7600010461146F3F731BF40F2013200204FF07E
:10C77000E041F3F799BF0000024A00201107F3F7E8
:10C7800093BF000001FDFFFF0148006870470000F3
:10C790007001002002E008C8121F08C1002AFAD167
:10C7A00070477047002001E001C1121F002AFBD131
:10C7B00070470000014908607047000070010020C8
:10C7C0002DE9FF5F82B00021DDE90430020DDDF8C4
:10C7D00040B0034318D044F61050A2F2FF32424357
:10C7E0001514119801281FD0A5EB0B00401C5FEA1F
:10C7F000000A4FF000064E4FDFF83891B046504621
:10C8000015D5CAF1000413E0119801244AA30128A8
:10C8100001D16FEA0B010298119AC0E90031C0E919
:10C82000024206B0BDE8F09FCBF10000DFE704460E
:10C830000021404A491842EB0450CDE9001012E0B3
:10C84000E00707D032463B4640464946F3F74BFEE9
:10C850008046894632463B4610461946F3F743FE6A
:10C8600006460F466410002CEAD1DDE90401DDE93B
:10C870000023BAF1000F06DAF3F735FE42464B46C5
:10C88000F3F731FE05E0F3F7A0FE42464B46F3F71F
:10C890009CFE04460E460022284BF3F7BFFF03D848
:10C8A0004FF0FF30014607E00022254B204631467D
:10C8B000F3F772FDF4F754F9102409E0002C0ADBB9
:10C8C0000A220023F4F708F8039B30321A55641E3D
:10C8D00050EA0102F2D1641C039AC4F1110314441A
:10C8E000119A012A03D0012208430DD10AE008431E
:10C8F00004D000204FF0110B119072E7A3EB0B0551
:10C900006D1E0DE05B4504DD4FF0000205F10105F1
:10C9100004E003DA4FF00002A5F10105002AECD093
:10C9200002981199C0E90231C0E9004579E7000099
:10C93000000014400000F03F300000000000F04311
:10C940000000E03F30380A2801D201207047002063
:10C95000704700002DE9FF4F95B09B46894606467B
:10C9600000250FE2252877D100242746F84A012127
:10C97000059400E0044316F8013F203B01FA03F060
:10C980001042F7D130782A2811D06FF02F03307879
:10C99000A0F13002092A16D8059A44F0020402EBED
:10C9A000820203EB42021044761C0590EFE759F82F
:10C9B000042B0592002A03DA504244F400540590F7
:10C9C00044F00204761C30782E2816D116F8010F98
:10C9D00044F004042A280DD06FF02F023078A0F123
:10C9E0003003092B09D807EB870302EB4303C71871
:10C9F000761CF3E759F8047B761C30786C280FD04E
:10CA000006DC4C2817D068280DD06A2814D104E021
:10CA1000742810D07A280FD10DE044F400140AE0F5
:10CA200044F4801401E044F440147278824202D14C
:10CA300004F58014761C761C307866280BD013DC45
:10CA4000582877D009DC002875D04528F6D046282C
:10CA5000F4D047281AD19DE118E0632835D0642826
:10CA600079D0652812D195E1702873D008DC672849
:10CA7000F1D069286FD06E280DD06F2806D1B5E0AF
:10CA800073282CD0752875D0782874D05A461799F9
:10CA900090476D1C75E1C4F30250022809D00328A9
:10CAA0000DD0D9F8001004280DD00D6009F104094B
:10CAB00067E1D9F80010EA17C1E90052F6E7D9F8A2
:10CAC00000100D80F2E70D70F0E719F8041B8DF8E7
:10CAD000001000208DF80100EA46012003E059F81B
:10CAE00004AB4FF0FF3061074FF0000102D40DE0BE
:10CAF00008F101018846B9420FDA8045F8DB1AF8DF
:10CB000008100029F4D108E008F1010188468142AB
:10CB1000FADB1AF808100029F6D105985B46A0EB5D
:10CB2000080721463846179A00F094FA284400EB8B
:10CB3000080507E04DE029E10DE01AF8010B5A461F
:10CB400017999047B8F10108F7D25B46214638465D
:10CB5000179A13E142E00A220092C4F302524FF006
:10CB6000000A022A08D059F804CB032A4FEAEC71D4
:10CB70000AD00DE029E02AE009F1070121F00702BF
:10CB8000F2E802C1914609E00FFA8CFC4FEAEC7121
:10CB9000042A03D14FFA8CFC4FEAEC71002907DA22
:10CBA0000A460021DCF1000C61EB02012D2202E0BB
:10CBB000220504D52B228DF80420012203E0E20790
:10CBC00001D02022F7E7904659E00A2102E0102226
:10CBD0000DE010214FF0000A00910BE010224FF001
:10CBE000000A44F004040827009203E008224FF0F2
:10CBF000000A0092C4F30252022A05D059F804CB6D
:10CC00000021032A08D009E009F1070121F00702F9
:10CC1000F2E802C1914605E01FFA8CFC042A01D11A
:10CC20000CF0FF0C4FF00008220728D5702806D022
:10CC3000009B83F0100353EA0A0305D00EE0402264
:10CC40008DF80420012208E05CEA010206D03022BF
:10CC50008DF804208DF8050002229046009B83F099
:10CC6000080353EA0A030AD15CEA010201D1620710
:10CC700005D530228DF804204FF001087F1E58287A
:10CC800004D034A003900EA802900DE036A0F9E77E
:10CC900053466046009AF3F71FFE84460398825C71
:10CCA0000298401E029002705CEA0100F0D10298E6
:10CCB00006A9081A00F1200A600702D524F480347E
:10CCC00000E00127574502DDA7EB0A0000E0002045
:10CCD00000EB0A01009005984144401A0590E003DA
:10CCE00006D45B462146179A059800F0B3F905442F
:10CCF000002706E001A85A46C05D179990476D1CB1
:10CD00007F1C4745F6DBE0030CD55B462146179AAE
:10CD1000059800F09FF9054404E030205A46179921
:10CD200090476D1C0099481E00900029F5DC08E032
:10CD3000029802995A460078491C02911799904727
:10CD40006D1CBAF10001AAF1010AF1DC65E10000F5
:10CD500009280100303132333435363738396162D1
:10CD60006364656600000000303132333435363795
:10CD700038394142434445460000000000F058F96C
:10CD80000544761C307800287FF4ECAD19B02846B5
:10CD9000BDE8F08F620700D4062709F1070222F0F0
:10CDA000070CFCE80223E14603F000485FEA080CA8
:10CDB00002D00FF2702C0DE05FEA045C02D50FF296
:10CDC000682C07E05FEAC47C02D00FF2602C01E01F
:10CDD000AFF2700C4FF0FF3823F00043CDF850C095
:10CDE00065280CD006DC452809D046281DD04728E8
:10CDF0003DD13DE0662818D067287ED138E000217B
:10CE0000112F01DB112000E0781CCDE9000106A9FB
:10CE10000EA8FFF7D5FCDDE90F010E9A0391002162
:10CE2000009207F1010A04914DE04FF00040009795
:10CE3000CDE9011006A90EA8FFF7C2FCDDE90F023B
:10CE400003920E9B11990022DDF80CA0009304922E
:10CE500011B9791C00EB010AB7EB0A0004D4C0F148
:10CE6000FF3007F1010A0490AAEB0700019044E0AB
:10CE7000012F00DA01270021112F01DD112000E030
:10CE80003846CDE9000106A90EA8FFF799FCDDE9B7
:10CE90000F010E9A0391002104910092BA462107D6
:10CEA0000CD40399514500DA8A46BAF1010F05DD29
:10CEB000009AAAF10101515C302908D0B84202DA87
:10CEC00010F1040F06DA0121CDE9011015E0AAF1F5
:10CED0000101E9E7002805DC049901440491AAEB6B
:10CEE000000102E0411C514500DD8A460499401AC8
:10CEF000401C01904FF000400290200704D401989C
:10CF0000504501DBCDF8048000208DF84F000298D9
:10CF10000DF14F07B0F1004F25D02B200E90029855
:10CF20004FF0020800280CDA404202902D200E90AB
:10CF300007E00A210298F3F7B9FC3031029007F8B4
:10CF4000011DB8F10001A8F10108F2DC02980028E7
:10CF5000EFD1791E0E980870307800F0200040F074
:10CF6000450007F8020D12A8C01B00F1070814982D
:10CF7000007800B1012000EB0A01019801EBE0719B
:10CF800005984144401A401E0590E00306D45B46D4
:10CF90002146179A059800F05DF80544149800782A
:10CFA00018B15A46179990476D1CE00324D55B468B
:10CFB0002146179A059800F04DF805441CE00498A6
:10CFC000002807DBDDE90301884203DD0098405CAF
:10CFD000179901E0179930205A469047049805F1B7
:10CFE0000105401C04900198401E019004D12E20A0
:10CFF0005A46179990476D1CBAF10001AAF1010A2F
:10D00000DDDC05E017F8010B5A46179990476D1CB7
:10D01000B8F10001A8F10108F4DC5B462146179A3B
:10D020000598ABE62D0000002B000000200000005A
:10D030002DE9F041044600251E461746880404D415
:10D0400005E039462020B0476D1C641EF9D52846FE
:10D05000BDE8F0812DE9F041044600251E469046CA
:10D06000C80301D5302700E02027880404D505E057
:10D0700041463846B0476D1C641EF9D52846BDE8C8
:10D08000F0810A68531C0B601070704730B583B094
:10D090000446FFF779FB05460020CDE90000024673
:10D0A00021466846F3F795FC2846FFF783FBDDE948
:10D0B000000103B030BD8268002901D01AB9816037
:10D0C0007047020002D010680028FAD111604A604F
:10D0D0007047000070B514000D4606460ED0206A59
:10D0E00010B1074949688847284600F0EDF82062EA
:10D0F00021463046BDE87040FFF7DDBF70BD00003F
:10D10000F000002010B500F073F8002801D00521D0
:10D11000C16010BD70B505460E4600F069F8040008
:10D1200008D00320E060C4E9065628463146F3F7EC
:10D1300012FB6061204670BD10B500F059F8002860
:10D1400001D00621C16010BD70B5054600F050F851
:10D15000040005D00420E060284600F0B5F8206106
:10D16000204670BD70B504460D4E16E0A0892568B6
:10D1700080050AD4A06820B1FFF7F4FFA0898005DC
:10D1800003D4206908B171688847206A08B17168C2
:10D1900088477168204688472C46002CE6D170BD30
:10D1A000F0000020806801E00068491E002801D0DE
:10D1B0000029F9DC70478168002001E00968401C03
:10D1C0000029FBD1704700000148806870470000CB
:10D1D000F000002070B50D46846800E024682CB192
:10D1E0002946206A00F04EF80028F7D1204670BD8D
:10D1F000054910B5096828208847040002D0282175
:10D20000F2F7AFFF204610BDF000002000221146CB
:10D21000AFF300802DE9F04190460E460446FFF73B
:10D22000E7FF134F05004FF00000B86015D020460F
:10D2300001F028FC0146284600F00CFC04000FD049
:10D24000B8F1000F10D0204601F01CFC0446007815
:10D2500050B12846FFF786FFBC600020BDE8F08192
:10D260002846FFF77FFFF8E706B134602846F5E768
:10D27000F00000200122002101F0CEBB0022114667
:10D2800001F0CABB70B505000C4601D00CB108E036
:10D2900009B1012070BD002070BD0028FCD0641CC5
:10D2A0006D1C2878F2F73EFF06462078F2F73AFF29
:10D2B00086422878F1D0F2F735FF05462078F2F75C
:10D2C00031FF281A70BD000070B50646F2F770FFF6
:10D2D0000649401C044609688847051E04D02246BA
:10D2E0003146F2F725FF284670BD0000F00000200F
:10D2F0000E49498848434FF47A71484340F27371AC
:10D3000090FBF1F14FF0E020416100228261016960
:10D3100041F0010101610169CB0701D0C903FAD5D0
:10D32000016921F001010161826170471001002053
:10D33000022800D202200F49098848434FF47A712D
:10D34000484340F27371B0FBF1F14FF0E0204161CE
:10D3500000228261016941F0010101610169CB078D
:10D3600001D0C903FAD5016921F00101016182618F
:10D3700070470000100100202DE9F041C1F30A526E
:10D38000A2F2FF362F4A304B0D460446142E2FDAF8
:10D39000002E12DAF3F700F800221346F3F73EFAF4
:10D3A0004CD2002DA4BF0024254647DA25F00040CA
:10D3B000204318BF254D41D018E0DFF894C02CFA67
:10D3C00006F705EA070C5CEA040C08BFBDE8F0812B
:10D3D000F2F7E2FF00221346F3F720FA2ED2002DD7
:10D3E00003DA4FF48010F0400544BD43002425E0EB
:10D3F000332EC8BFBDE8F081A6F1140C4FF0FF3703
:10D4000027FA0CF73C4208BFBDE8F081F3F768F853
:10D4100000221346F3F702FA10D2002D0DDA142E73
:10D4200008BF6D1C09D0C6F13400012101FA00F0DB
:10D430002044A04238BF6D1C0446BC432946204608
:10D44000BDE8F0819C7500883CE4377E0000F0BFA9
:10D45000FFFF0F0004490A885206FCD5024AC1B2F8
:10D46000121D11807047000000380140FBF77EF864
:10D47000FDF710FFFCE7000070B50E490A7C4AB1C9
:10D48000B0F5406F13D20209C86830F8123000209E
:10D49000044608E008688047012070BDCD68161872
:10D4A000401C25F816409842F8DB002070BD022091
:10D4B00070BD0000FC00002010B5084C4FF4C07295
:10D4C0000021E06800F066F84FF440620021A06897
:10D4D00000F060F80120207410BD0000FC00002066
:10D4E00070B5154C06460025207C08B92068804799
:10D4F0004FF0FF33F6B1C6F30F11300701D0491CCE
:10D5000089B2D4F80C20BF2032F8106026B1002573
:10D510008D420DD1002207E06D1CADB2F8E7E36843
:10D520008518521C23F815108A42F8D3000170BDEB
:10D53000401EE9D5184670BDFC000020084A0021B5
:10D540000846D26832F8103003B1491C401CC0288C
:10D55000F8D364204143C020B1FBF0F0C0B2704763
:10D56000FC000020002804D002498968401AFFF717
:10D5700083BF7047FC00002010B5FFF7B1FF411CCE
:10D5800003D003498968084410BD002010BD000085
:10D59000FC00002002E000BF00F8011B521EFBD27D
:10D5A000704700002DE9F041044608781A4E5B28C8
:10D5B00001D0B1602BE00520E060481C01F062FA68
:10D5C000074600785D2806D0FFF712FE051EA06012
:10D5D00002D038460AE0781CBDE8F081FFF708FE6B
:10D5E0000028F9D0286045600546601C01F04AFA21
:10D5F0000146284600F02EFA01F044FA040006D055
:10D6000020782C28EAD020785D2802D0B460002051
:10D61000E2E7601CE0E70000F00000200178A1F1E3
:10D620003002092A01D811460AE0A1F14102052A77
:10D6300001D8373904E0A1F16102052A3FD85739F2
:10D640000A0110F8011FA1F13003092B01D8303A6B
:10D650000AE0A1F14103052B01D8373A04E0A1F11A
:10D660006103052B2BD8573A11440A0110F8011F0A
:10D67000A1F13003092B01D8303A0AE0A1F14103AE
:10D68000052B01D8373A04E0A1F16103052B16D828
:10D69000573A114440780901A0F13002092A01D813
:10D6A000303904E0A0F14102052A02D83739084494
:10D6B0007047A0F16102052A01D85739F7E7002029
:10D6C000704700002DE9F34F002583B00C46504908
:10D6D0000120CDE90051029020782E462F46A84621
:10D6E000A9462D2804D100204A49641CCDE9000137
:10D6F0002078302800D1641C20783138082816D8CA
:10D7000014F8010B3038F2F7F4FF82468B46002202
:10D71000414B28463146F2F7E6FE52465B46F2F7A9
:10D720003BFE054620780E4630380928E8D9207897
:10D730002E2824D16078302841D339283FD8641C62
:10D7400014F8010B3038F2F7D4FF82468B460022E2
:10D75000314B28463146F2F7C6FE52465B46F2F799
:10D760001BFE05460E460022294B38464146F2F77D
:10D77000B4FE07462078884630380928E0D920785A
:10D78000652801D045281AD114F8010F2B2802D0A2
:10D790002D2810D000E0641C6FF02F012078A0F13C
:10D7A0003002092A0BD809EB890201EB420200EB97
:10D7B0000209641CF2E74FF0FF300290EBE7029998
:10D7C00009FB01F0F2F795FF3A464346F2F7E4FD14
:10D7D00002460B460020104900F096F9074688469D
:10D7E000DDE900012A463346F2F77DFE3A4643461C
:10D7F000F2F779FE039AC2E90601F2F7ACFF03994A
:10D80000486103980321C16005B02046BDE8F08F50
:10D810000000F03F0000F0BF000024402DE9F0417F
:10D82000054608782A4E7B2801D0B16033E00620F7
:10D83000E860481C01F026F9074600787D2813D0DF
:10D84000FFF7D6FC041EA8600FD0384601F01AF985
:10D850000146204600F03EF801F014F9002804D0FB
:10D860002169002721622CE0781CBDE8F081B060BE
:10D8700011E0401C01F006F90146204600F0EAF8EC
:10D8800001F000F9051EF0D028782C2805D0287862
:10D890007D281BD0B5600020E7E7FFF7A9FC002832
:10D8A000E3D0206044600446681C01F0EBF80146B8
:10D8B000204600F00FF801F0E5F80028D5D02169E6
:10D8C0002162276101783A29D3D0D0E7681CCCE7E0
:10D8D000F00000202DE9F0470C460646481C22784F
:10D8E00000215A4B222A07D000209C60BDE8F08717
:10D8F000401C5C2A00D1401C0278222A02D00AB1C6
:10D90000491CF5D1481C19688847051EEED0601CDB
:10D910002C464FF4806788E05C2903D004F8011B93
:10D92000401C82E000F101084078722814D006DC27
:10D93000622809D0662809D06E2808D10AE0742828
:10D940000CD0752803D10BE0082000E00C2004F86F
:10D95000010B68E00A20FAE70D20F8E70920F6E756
:10D9600008F10100FFF75AFE8146A0F55C4008F17E
:10D970000408B84257D3B9F1000F54D0A9F5584064
:10D98000B84217D298F801005C284CD198F80200F0
:10D99000752848D108F10300FFF740FEA0F55C416F
:10D9A00008F10608B9423ED2C9F3090161F39F208C
:10D9B00000F580390420B9F1800F02D20120641CE7
:10D9C0002AE0B9F5006F02D20220A41C06E0B9F5E6
:10D9D000803F02D20320E41C0EE0241D022813D055
:10D9E000032809D004281DD109F0BF0141F08001AE
:10D9F00004F8011D4FEA991909F0BF0141F08001B7
:10DA000004F8011D4FEA991909F0BF0141F08001A6
:10DA100004F8011D4FEA99190D49095C41EA090111
:10DA200004F8011D044408F101000178222902D004
:10DA300000297FF471AF002121700178222900D1E3
:10DA4000401C0421C6E9031550E70000F000002047
:10DA500040ED000870B50C00054620D0042223A13B
:10DA60002046F2F7C2FBE0B1052222A12046F2F7E0
:10DA7000BCFBC8B1042221A12046F2F7B6FBB8B125
:10DA80002078222819D02D2803D0A0F130010929AF
:10DA900019D821462846BDE87040FFF713BE002084
:10DAA00070BD0220E86006E00020E860601D70BDE7
:10DAB0000120E8606861201D70BD21462846BDE850
:10DAC0007040FFF707BF5B2804D07B2808D00D48C3
:10DAD0008460E4E721462846BDE87040FFF762BD58
:10DAE00021462846BDE87040FFF798BE6E756C6C05
:10DAF0000000000066616C7365000000747275655B
:10DB000000000000F00000202DE9F04D1D460C46FD
:10DB100098B0174621F0004123F00043002814BFBD
:10DB20004FF0010C4FF0000C0CEB440CFE4A0CEBD8
:10DB300002064FEA620C66452BD33E0018BF012651
:10DB400006EB45061644F94A964222D3F84A53EAB0
:10DB5000070C02D0944205D148B918B000201146F4
:10DB6000BDE8F08D002808BF4FF0000C01D04FF049
:10DB7000010C0CEB440212F5001F0AD8002F14BF51
:10DB80004FF0010C4FF0000C0CEB450212F5001F9A
:10DB900007D918B03A462B462146BDE8F04DFEF7AE
:10DBA000DBBD0022DFF88CA3002CB8BF534526DA7A
:10DBB000DFF884C36345A8BF022220DADFF870C310
:10DBC0009C451CDCDFF874C30CEB235CBCF1140F28
:10DBD00008DDCCF1340627FA06FC0CFA06F6BE4244
:10DBE0000DD108E05FB9CCF1140623FA06FC0CFA5B
:10DBF00006F69E4203D10CF00102C2F1020251EA84
:10DC0000000C19D1002D17DA002C18BF022A01D000
:10DC1000012A07D00220FEF7CDFD18B0BDE8F04D77
:10DC2000FEF792BD0220FEF7C5FDFEF78DFD18B090
:10DC300081F00041BDE8F08DB7F1000C6CD1534587
:10DC400025D104F1804212F5801201BF0028002086
:10DC5000B74918B008BFBDE8F08DB548884207DC69
:10DC6000002DA1BF6046294618B0BDE8F08D07E041
:10DC7000281E05DA80F0004118B06046BDE8F08D3E
:10DC8000AF497944D1E9000118B0BDE8F08DDFF863
:10DC9000A0C2634525D1002D1FDA19B1514512D11B
:10DCA000D8B909E0002840F0EC82A24A214618B019
:10DCB00062F31E01BDE8F08D0020214618B060F32C
:10DCC0001E01BDE8F08D08DA18B02346BDE8F04D1E
:10DCD000024600206146F2F778BC18B02146BDE844
:10DCE000F08D514518DAB5F1804F0DD0A5F1005CEB
:10DCF000BCF1FF5C10D1B4F1000C0DDB18B0614633
:10DD0000BDE8F04D00F0C8BE234618B00246BDE89D
:10DD1000F04D1946F2F7E7BB060024F0004C3BD16A
:10DD2000D9B1514533D1002C06DD002DA1BF002013
:10DD3000514618B0BDE8F08D002C01DD002D1BDB35
:10DD4000002C13DA002D11DB012A4FF0000014BF64
:10DD500078497C4918B0BDE8F08D022A18BF002C24
:10DD60000AD0012A08D1002C06DA0AE0002CB8BF3C
:10DD7000002D11DA012A04D0002018B00146BDE8B8
:10DD8000F08D18B000204FF00041BDE8F08DA1F1FA
:10DD90004050B0F17F601AD0012000EBE47050EAEF
:10DDA000020421D0624C521E4FF0000B104304BFFE
:10DDB0004FF0000B644C654883427CDD644A654843
:10DDC00093421FDD884217DB002D25DB37E0002C56
:10DDD00000DA4AB1022A0CBF01204FF0FF3018B020
:10DDE000BDE8F04DF2F785BC0120FEF7E3FC18B06A
:10DDF000BDE8F04DFEF7B2BC4D4A8A4202DC002D70
:10DE00000ADC1CE0814202DA002D18DA04E0484BFB
:10DE1000994220DD002D12DD0220FEF7CBFCFEF73B
:10DE2000A3FC05460E460022534658462146F2F70B
:10DE30005AFB18B066F31E012846BDE8F08D02209B
:10DE4000FEF7B8FCFEF798FC0A46214618B062F3CC
:10DE50001E01BDE8F08D002230466146F2F73DFB21
:10DE600080460E466FF00102F2F71EFC4FF055326D
:10DE7000394BF2F735FB42463346F2F734FB0022CA
:10DE8000364BF2F72DFB824642463346049110464C
:10DE90001946F2F728FB5246049BF2F724FB8A4608
:10DEA00000904FF0C0422E4B40463146F2F71BFB2C
:10DEB0002C4A2B4B00E027E0CDE9060151460098A3
:10DEC000F2F711FB82460191274A284B4046314622
:10DED000F2F709FB5246019BF2F7FFFA82460B4626
:10DEE00002460591DDE90601F2F756FADDE906235F
:10DEF000002688463046F2F7F0FA5246059BF2F7C4
:10DF0000EFFA024600F07EB90020B1F5801F07DA73
:10DF1000352230466146F2F7C7FB06466FF0340003
:10DF200000EB215024E00000FFFF1F00FFFF0F0067
:10DF30000000F03F0000F07F0000404301FCFFFFC5
:10DF40004A1100000000F0FF0000F0BF0000E041B7
:10DF50000000F043FFFFEF3F5555D53F0000E03F85
:10DF60004715F73FFE822B6544DF5DF80BAE543E4C
:10DF7000A0F2FF300190C1F3130040F07F6141F047
:10DF800040510291FE498842D8BF002004DDFD497E
:10DF90008142C8BF012001DD0D9008E000200D90F6
:10DFA0000198401C01900298A0F5801002900299FF
:10DFB000F54878440B910D9900EBC100D0E900239E
:10DFC0000F9330460A920B99F2F787FACDE90601D2
:10DFD000DDE90A2130460F9BF2F7DEF902460B46D7
:10DFE0000020EA49F2F7F1FA059102460B4600904B
:10DFF000DDE90601F2F777FA1490E5488A464FF01A
:10E00000000878440299006812904FF0005040EAEE
:10E0100061010D980F9B01EB804000F500210991F3
:10E020000A9A1298F2F759FA32460B9BF2F758FA0D
:10E0300042465346F2F757FA064602914046514689
:10E04000099B129AF2F74FFADDE90623F2F748FA34
:10E050003246029BF2F741FA059B009AF2F743FA27
:10E060000091149A0490534610461946F2F73BFA71
:10E0700006460246C7480B46029106217844FEF741
:10E080000DFBCDE90510029B324610461946F2F70A
:10E090002AFADDE90532F2F726FA059106465346DB
:10E0A00040461946149AF2F777F9009B049AF2F762
:10E0B0001AFA3246059BF2F76FF9CDE90510424690
:10E0C000534610461946F2F70EFA0022B24B02915F
:10E0D0000A90F2F761F9DDE90532F2F75DF90E46D3
:10E0E0004246AD4B4046F2F7F8F9029B0A9AF2F726
:10E0F000F4F9DDE90532F2F7F3F9424602910A90AC
:10E10000334610465146F2F7EEF9CDE90601534683
:10E11000149A02990A98F2F7E6F98A460290334671
:10E12000424600990498F2F7DEF95346029AF2F754
:10E1300033F982460B4602460591DDE90601F2F706
:10E140002BF9DDE90623002088460646F2F7C5F9DB
:10E150005246059BF2F7C4F9824609914FF060429E
:10E160008E4B30464146F2F7BEF9049006918C4A38
:10E170008A4B50460999F2F7B6F982460291894ACC
:10E18000894B30464146F2F7AEF95246029BF2F710
:10E1900003F9864B7B440D9A03EBC203D3E90023BA
:10E1A000F2F7FAF80E9007910198F2F7A2FA0591AA
:10E1B000DDE9061382460E9A0498F2F7EDF87C4AE0
:10E1C0007A440D9B02EBC303D3E900230093029230
:10E1D000F2F7E2F85246059BF2F7DEF80026884691
:10E1E00052463046059BF2F778F9009B029AF2F707
:10E1F00074F9069B049AF2F770F9079B0E9AF2F7EE
:10E200006FF9024600200B46029038462946F2F785
:10E210006AF9824601912B4638461946029AF2F76E
:10E220005CF932464346F2F75EF95246019BF2F73B
:10E23000B3F807468A463246434629460298F2F723
:10E2400052F905460E463A465346F2F7A5F8594AA2
:10E250008846914221DBA8EB020353EA000210D169
:10E260002A463346F2F739F9CDE90401524A534BB5
:10E2700038465146F2F790F8DDE90423F2F7CEFA7A
:10E2800021D20220FEF796FAFEF76EFA0A462146E0
:10E2900018B062F31E01BDE8F08D494B28F0004232
:10E2A0009A4210D3474A08EB020353EA00027FF474
:10E2B000C6AD2A463346F2F710F93A465346F2F70E
:10E2C000ADFA7FF6BCAD0022019228F000403E4935
:10E2D0003E4A01EB2051824223DA481C4FF4801160
:10E2E00021FA00F040443A4AC0F30A517A44394BCB
:10E2F000A1F2FF31CB4020EA0303C0F3130040F446
:10E300008010C1F11401C84012680190B8F1000FEB
:10E31000BCBF4042019028463146F2F7DEF8054680
:10E320000E462A46334638465146F2F735F84FF046
:10E3300000084246284B40460591F2F7D4F8CDE953
:10E340000601264A264B40460599F2F7CCF8009183
:10E3500002902A46334640460599F2F7BEF83A46FF
:10E360005346F2F7BDF81F4A1F4BF2F7BCF8009B6B
:10E37000029AF2F711F80746884602460B4635E046
:10E380008E9803007AB60B00920D00000000F03F5B
:10E39000CA0D0000F80C00000000084009C7EE3F5D
:10E3A000FD033ADCF5015B14E02F3EBED00B00000C
:10E3B000940B000000009040FE822B654715973CAF
:10E3C00000CC904000346F3F01FCFFFF0000E03FB5
:10E3D000E00A0000FFFF0F00432EE63F396CA80C57
:10E3E000615C20BEEF39FAFE422EE63FDDE9060110
:10E3F000F1F7D2FFDDE9062305460E46F2F76DF888
:10E400003A464346F2F76CF80F462A4633460090E8
:10E4100010461946F2F767F8824602462E488846AB
:10E420000B4605217844FEF739F952464346F2F788
:10E430005AF82A463346F2F753F880468A463B4656
:10E4400028463146009AF2F74EF83B46009AF1F71B
:10E45000A3FF0691009000224FF0804340465146B2
:10E46000F2F73BF80F460C90424653462846314699
:10E47000F2F739F83B460C9AF2F7A7F8069B009A98
:10E48000F2F72BF82A463346F2F727F80022134B0F
:10E49000F2F726F8054601980E4601EB00510815E3
:10E4A000002810DC28463146019AF2F7FDF8FEF705
:10E4B000E1F8042808BFFEF75FF928463146019AC3
:10E4C000F2F7F2F805460B4618B02A4658462146A0
:10E4D000BDE8F04DF2F707B8800900000000F03FFA
:10E4E0002DE9F74F002581464FF0050B8068A846BF
:10E4F0002E4601E000686D1C0028FBD1414A1168DE
:10E500005DB1A800044692468847071E0DD02146FB
:10E51000F1F727FED9F8084022E0032088470400DD
:10E5200002D039A1F1F758FE2046BDE8FE8F00BFAA
:10E53000DDE901122046491C00F06EFA47F8280078
:10E5400008F1010850B1F1F733FE029901B1012140
:10E55000014401EB0B0000F1020B00E001262468EE
:10E5600014B1002EE4D012E08EB9DAF8001058464B
:10E5700088475FEA00080AD05B214FF0000988F85D
:10E58000001008F1010488F801904E462DE00024A7
:10E59000564605E057F8240008B171688847641CA6
:10E5A000AC42F7DB7168384688470020BDE700BF02
:10E5B00057F826102046F1F70FFE57F82600F1F71E
:10E5C000F7FD0444681E864209D02C2004F8010B94
:10E5D000029810B1202004F8010B84F80090DAF8BA
:10E5E000041057F826008847761CAE42E0DBDAF8C4
:10E5F0000410384688475D20207084F8019040461A
:10E6000093E70000F00000205B5D00002DE9F04181
:10E610000646344FD6E90643DFF8CC801D464069F4
:10E62000F2F767F822462B46F1F757FF21F0004139
:10E6300000224346F2F7DAF817D82C4A2C4B204632
:10E640002946F2F7D3F810D800222A4B2046294653
:10E65000F2F7E4F809D839681520884707003ED05A
:10E6600025A17269FDF7E0FF39E03968402088474D
:10E67000070034D020462946FEF77EFE22462B4670
:10E68000F1F72BFF21F0004100224346F2F7AEF8EC
:10E690000BD8204625F00041184A194BF2F7A6F88E
:10E6A00003D222462B4617A116E025F00041204652
:10E6B0000E46164A164BF2F799F806D32046314615
:10E6C0000022144BF2F7AAF803D222462B4612A1DD
:10E6D00002E022462B4611A13846FDF7A5FF384639
:10E6E000BDE8F081F00000200000B03C0000C0FF59
:10E6F000FFFFDF410000E0C12564000044F3C2E4F5
:10E70000E4E9634C252E3066000000008DEDB5A0D5
:10E71000F7C6B03E65CDCD412565000025660000F9
:10E720002DE9FE4F054607204FF0000B0090A8682A
:10E7300016468A465F46CDF808B001E000687F1CA7
:10E740000028FBD17A490A68E7B1B800044690472F
:10E750005FEA000935D076492046096888475FEAB4
:10E76000000830D021464846F1F7FBFC21464046E0
:10E77000F1F7F7FCAC680AF1010AEEB300985044D7
:10E7800000904FE016B10AF1040000E0032090472A
:10E79000002814D07B210170411C66B10A2201F8C7
:10E7A000012B00220924AAF1010302E001F8014B28
:10E7B000521C9A42FADB7D220A7000224A70BDE8A0
:10E7C000FE8F0020FBE75A494846496858E0206A16
:10E7D00000F0B0F8019048F82B0032465146204630
:10E7E00000F01AF9014649F82B0001980BF1010BD2
:10E7F000A8B1A1B1084600E014E0F1F7D9FC054644
:10E800000198F1F7D5FC291816B10AF1020000E0D1
:10E810000020014400980844801C009001E0012081
:10E8200002902468002CD2D1029898B940490098EF
:10E83000096888475FEA000B0CD07B218BF8001039
:10E840000BF1010416B10A2004F8010B002020701E
:10E85000054652E00024364D0BE000BF58F8240076
:10E8600008B16968884759F8240008B16968884781
:10E87000641CBC42F2DB69684046884769684846C8
:10E8800088479EE73EB10020092102E004F8011B01
:10E89000401C5045FADB58F825102046F1F79CFC47
:10E8A00058F82500F1F784FC04443A2004F8010BE1
:10E8B00016B1092004F8010B59F825102046F1F78C
:10E8C0008BFC59F82500F1F773FC0444781E85424F
:10E8D00002D02C2004F8010B16B10A2004F8010B19
:10E8E000134900202070496858F8250088471049CE
:10E8F00059F82500496888476D1CBD42C2DB0C4DA4
:10E900004046696888476968484688474EB1002094
:10E910000922AAF1010102E004F8012B401C8842FF
:10E92000FADB7D20207000206070584647E7000029
:10E93000F00000202DE9F04104004FF0000501D067
:10E9400006460FE0BDE8F0412DA0FEF7BDBC3946FC
:10E950002CA0F1F723FC08B16D1C02E0202F00D29F
:10E960006D1D761C37780FB16D1CF0D12749E81C5E
:10E9700009688847051E2FD022260670681C4FF0B4
:10E980005C0823E01F2907D9222905D05C2903D080
:10E9900000F8011B641C19E000F8018B14F8012B2E
:10E9A000414607460C2A20D006DC082A1BD0092A3B
:10E9B00021D00A2A06D11AE00D2A1AD0222A0FD015
:10E9C0005C2A0BD012A1FDF72FFE781D21780029BB
:10E9D000D8D1067041702846BDE8F081397000E05A
:10E9E0003E70401CF2E7622006E0662004E06E20E4
:10E9F00002E0722000E074203870781CE6E7000026
:10EA000000000000225C080C0A0D0900F000002044
:10EA1000752530347800000030B403004FF000005A
:10EA200008D01C7B072C06D2DFE804F0090B070F87
:10EA300013171B00002030BC70470CA002E00DA093
:10EA400000E00EA030BCFEF73FBC30BC1846FFF71C
:10EA5000DDBD186930BCFFF76DBF30BC1846FFF74D
:10EA60003FBD30BC1846FFF75BBE00006E756C6C96
:10EA70000000000066616C736500000074727565CB
:10EA80000000000000E0401C002804D001780029AC
:10EA900001D02029F7D970472DE9F04106460F46ED
:10EAA000F2F75EFA041E0D4618BF0120284320F03D
:10EAB0000040C0F17F6000F1E040C00F0ED0301C7C
:10EAC00018BF0120384320F00040C0F17F6000F102
:10EAD000E040C00F04BF0120FDF76CFE2046294630
:10EAE000BDE8F081020EC0F30741C0F30723000622
:10EAF00000EB034000EB012010447047010A01EBDA
:10EB0000002080B27047000070B5244C2069401C82
:10EB10002061052816D3002525612078401CC0B24D
:10EB20002070052800D3257060782178884209D1AB
:10EB30001B48FCF7D1FBE560606900282CD0BDE8DC
:10EB4000704000471749227851F822000388606816
:10EB5000038351F822305B68C36151F822301B7A7D
:10EB600080F8203051F822305B89438451F82230FC
:10EB70009B89838451F822309B7B80F8263051F8A2
:10EB8000221027308A890F31F1F7D2FA6068416884
:10EB9000BDE870401830084770BD000078000020C4
:10EBA00009EB0008B4040020A0F16101192900D884
:10EBB000203870470FB470B5154C2046F3F794F821
:10EBC0000028FAD14FF400552846F3F791F80128B0
:10EBD00002D12846F2F7D0FF00212046F2F7D8FFF5
:10EBE0004FF4AF710B48F1F7BCFA05AA0948049934
:10EBF000FDF72EFD0748F1F7DBFA81B22046F3F767
:10EC0000A4F801212046F2F7C3FF70BC5DF814FBA5
:10EC100044600240C01900200FB470B5154C204666
:10EC2000F3F762F80028FAD14FF000752846F3F7A1
:10EC30005FF8012802D12846F2F79EFF0021204606
:10EC4000F2F7A6FF4FF4AF710B48F1F78AFA05AA65
:10EC500009480499FDF7FCFC0748F1F7A9FA81B2CD
:10EC60002046F3F772F801212046F2F791FF70BCBD
:10EC70005DF814FB80600240201B00200FB410B52B
:10EC8000124C2046F3F730F80028FAD12020F3F791
:10EC90002FF8012802D12020F2F76EFF0021204634
:10ECA000F2F776FF03AA0A480299FDF7D1FC08485B
:10ECB000F1F77EFA81B22046F3F747F801212046AA
:10ECC000F2F766FF10BC5DF814FB00001C60024008
:10ECD000801C002010AE2201080F270F270F2716D7
:10ECE000002F6A77FCB6170158025802580201300B
:10ECF0000558025802323032303035313443616DBC
:10ED0000657261313200000068747470733A2F2F9D
:10ED10007978622E74636C6F756469742E636E2FDC
:10ED200000000000000000000000000000000000E3
:10ED3000000000000000000000000000FFFFFFFFD7
:10ED40000000C0E0F0F8FC00000000000000F03F10
:10ED5000000000000000F83F00000000000000007C
:10ED60000000004003B8E23F000000000000000087
:10ED700006D0CF43EBFD4C3E033333333333E33F15
:10ED8000FFAB6FDBB66DDB3F4D268F515555D53F41
:10ED900001411DA96074D13F65DBC9934A86CD3F0F
:10EDA000EF4E454A287ECA3F3E5555555555C53FFD
:10EDB00093BDBE166CC166BF2CDE25AF6A56113FEF
:10EDC000F16BD2C541BDBBBED0A4BE726937663EF1
:10EDD0000000000000000000DDDDDDDDDCBBBBDD90
:10EDE000DDDDDDDDDDDDDDDD9888888888888888EB
:10EDF000777777777788888885555556666666660B
:10EE000066666666666888888333333222222222E9
:10EE1000222222222228888D2054686520636F7266
:10EE20006520626F617264206973206E6F74206365
:10EE30006F6E6E656374656420746F2074686520FE
:10EE40006E6574776F726B206F7665722074696D72
:10EE5000652C506F776572204F66660D0A000000C2
:10EE600020436F726520626F617264207265706FFB
:10EE70007274206461746120697320636F6D706CBB
:10EE8000657465642C20706F7765722063616E20F5
:10EE9000626520637574206F66662C33732061662B
:10EEA00074657220706F7765720D0A003C2D203CEE
:10EEB0002D203C2D2053544D33322044657465631E
:10EEC0007420436F6D6D756E69636174696F6E2830
:10EED00053697A653A25642928434D443A256429C3
:10EEE000285365713A25642925730D0A0000000036
:10EEF0000D0A20496E697469616C697A65207468CD
:10EF000065206368697020666F722074686520668A
:10EF1000697273742074696D6520616E6420777204
:10EF200069746520746865206368617267696E67DB
:10EF300020636F6E66696775726174696F6E0D0A22
:10EF40000000000020536174656C6C697465204E8C
:10EF5000756D3A25642C506F736974696F6E204E1D
:10EF6000756D3A25642C4750532053746174757342
:10EF70003A25642C416C7469747564653A252E31A8
:10EF8000666D2C503A252E32662C483A252E326674
:10EF90002C563A252E32662C4C6F636174696F6E65
:10EFA0003A25642C25640D0A00000000CCEF00080F
:10EFB00000000020740100004410000810F0000858
:10EFC0007401002034260000A4C7000803310001AA
:10EFD000045C010001033E01010219018204597918
:10EFE000D5000865D500082FB9D400083DD5000824
:10EFF000A4060020A4120249205A030406080C109B
:10F000001820308D010203040102030406070809D9
:04000005080000F5FA
:00000001FF
